{
  "_format": "hh-sol-artifact-1",
  "contractName": "Uptune",
  "sourceName": "contracts/Uptune.sol",
  "abi": [
    {
      "anonymous": false,
      "inputs": [
        {
          "indexed": false,
          "internalType": "uint256",
          "name": "id",
          "type": "uint256"
        },
        {
          "indexed": false,
          "internalType": "address",
          "name": "wallet",
          "type": "address"
        },
        {
          "indexed": false,
          "internalType": "string",
          "name": "audiogateway",
          "type": "string"
        },
        {
          "indexed": false,
          "internalType": "string",
          "name": "coverartgateway",
          "type": "string"
        },
        {
          "indexed": false,
          "internalType": "string",
          "name": "title",
          "type": "string"
        },
        {
          "indexed": false,
          "internalType": "string",
          "name": "mainAuthor",
          "type": "string"
        },
        {
          "indexed": false,
          "internalType": "string[]",
          "name": "tags",
          "type": "string[]"
        },
        {
          "indexed": false,
          "internalType": "string[]",
          "name": "genres",
          "type": "string[]"
        },
        {
          "indexed": false,
          "internalType": "string",
          "name": "authors",
          "type": "string"
        }
      ],
      "name": "AudioUploaded",
      "type": "event"
    },
    {
      "inputs": [],
      "name": "audioCount",
      "outputs": [
        {
          "internalType": "uint256",
          "name": "",
          "type": "uint256"
        }
      ],
      "stateMutability": "view",
      "type": "function"
    },
    {
      "inputs": [
        {
          "internalType": "uint256",
          "name": "",
          "type": "uint256"
        }
      ],
      "name": "audios",
      "outputs": [
        {
          "internalType": "uint256",
          "name": "id",
          "type": "uint256"
        },
        {
          "internalType": "address",
          "name": "wallet",
          "type": "address"
        },
        {
          "internalType": "string",
          "name": "audiogateway",
          "type": "string"
        },
        {
          "internalType": "string",
          "name": "coverartgateway",
          "type": "string"
        },
        {
          "internalType": "string",
          "name": "title",
          "type": "string"
        },
        {
          "internalType": "string",
          "name": "mainAuthor",
          "type": "string"
        },
        {
          "internalType": "string",
          "name": "authors",
          "type": "string"
        }
      ],
      "stateMutability": "view",
      "type": "function"
    },
    {
      "inputs": [],
      "name": "getAllAudio",
      "outputs": [
        {
          "components": [
            {
              "internalType": "uint256",
              "name": "id",
              "type": "uint256"
            },
            {
              "internalType": "address",
              "name": "wallet",
              "type": "address"
            },
            {
              "internalType": "string",
              "name": "audiogateway",
              "type": "string"
            },
            {
              "internalType": "string",
              "name": "coverartgateway",
              "type": "string"
            },
            {
              "internalType": "string",
              "name": "title",
              "type": "string"
            },
            {
              "internalType": "string",
              "name": "mainAuthor",
              "type": "string"
            },
            {
              "internalType": "string[]",
              "name": "tags",
              "type": "string[]"
            },
            {
              "internalType": "string[]",
              "name": "genres",
              "type": "string[]"
            },
            {
              "internalType": "string",
              "name": "authors",
              "type": "string"
            }
          ],
          "internalType": "struct Uptune.Audio[]",
          "name": "",
          "type": "tuple[]"
        }
      ],
      "stateMutability": "view",
      "type": "function"
    },
    {
      "inputs": [
        {
          "internalType": "uint256",
          "name": "_audioCount",
          "type": "uint256"
        }
      ],
      "name": "getOneAudio",
      "outputs": [
        {
          "components": [
            {
              "internalType": "uint256",
              "name": "id",
              "type": "uint256"
            },
            {
              "internalType": "address",
              "name": "wallet",
              "type": "address"
            },
            {
              "internalType": "string",
              "name": "audiogateway",
              "type": "string"
            },
            {
              "internalType": "string",
              "name": "coverartgateway",
              "type": "string"
            },
            {
              "internalType": "string",
              "name": "title",
              "type": "string"
            },
            {
              "internalType": "string",
              "name": "mainAuthor",
              "type": "string"
            },
            {
              "internalType": "string[]",
              "name": "tags",
              "type": "string[]"
            },
            {
              "internalType": "string[]",
              "name": "genres",
              "type": "string[]"
            },
            {
              "internalType": "string",
              "name": "authors",
              "type": "string"
            }
          ],
          "internalType": "struct Uptune.Audio",
          "name": "",
          "type": "tuple"
        }
      ],
      "stateMutability": "view",
      "type": "function"
    },
    {
      "inputs": [],
      "name": "name",
      "outputs": [
        {
          "internalType": "string",
          "name": "",
          "type": "string"
        }
      ],
      "stateMutability": "view",
      "type": "function"
    },
    {
      "inputs": [
        {
          "internalType": "string",
          "name": "_audiogateway",
          "type": "string"
        },
        {
          "internalType": "string",
          "name": "_coverartgateway",
          "type": "string"
        },
        {
          "internalType": "string",
          "name": "_mainAuthor",
          "type": "string"
        },
        {
          "internalType": "string",
          "name": "_title",
          "type": "string"
        },
        {
          "internalType": "string[]",
          "name": "_tags",
          "type": "string[]"
        },
        {
          "internalType": "string[]",
          "name": "_genres",
          "type": "string[]"
        },
        {
          "internalType": "string",
          "name": "_authors",
          "type": "string"
        }
      ],
      "name": "uploadAudio",
      "outputs": [],
      "stateMutability": "nonpayable",
      "type": "function"
    }
  ],
  "bytecode": "0x6080604052600080556040518060400160405280600681526020017f557074756e65000000000000000000000000000000000000000000000000000081525060019080519060200190620000559291906200006a565b503480156200006357600080fd5b506200017f565b82805462000078906200011a565b90600052602060002090601f0160209004810192826200009c5760008555620000e8565b82601f10620000b757805160ff1916838001178555620000e8565b82800160010185558215620000e8579182015b82811115620000e7578251825591602001919060010190620000ca565b5b509050620000f79190620000fb565b5090565b5b8082111562000116576000816000905550600101620000fc565b5090565b600060028204905060018216806200013357607f821691505b602082108114156200014a576200014962000150565b5b50919050565b7f4e487b7100000000000000000000000000000000000000000000000000000000600052602260045260246000fd5b61203e806200018f6000396000f3fe608060405234801561001057600080fd5b50600436106100625760003560e01c8063038421171461006757806306fdde031461009757806338cb3b49146100b557806356b808de146100d35780636845c1c2146100f1578063cba211fa1461010d575b600080fd5b610081600480360381019061007c9190611694565b610143565b60405161008e9190611b14565b60405180910390f35b61009f61065d565b6040516100ac9190611af2565b60405180910390f35b6100bd6106eb565b6040516100ca9190611b36565b60405180910390f35b6100db6106f1565b6040516100e89190611ad0565b60405180910390f35b61010b6004803603810190610106919061154e565b610cf5565b005b61012760048036038101906101229190611694565b610f4e565b60405161013a9796959493929190611c0f565b60405180910390f35b61014b611258565b6002600083815260200190815260200160002060405180610120016040529081600082015481526020016001820160009054906101000a900473ffffffffffffffffffffffffffffffffffffffff1673ffffffffffffffffffffffffffffffffffffffff1673ffffffffffffffffffffffffffffffffffffffff1681526020016002820180546101da90611ea7565b80601f016020809104026020016040519081016040528092919081815260200182805461020690611ea7565b80156102535780601f1061022857610100808354040283529160200191610253565b820191906000526020600020905b81548152906001019060200180831161023657829003601f168201915b5050505050815260200160038201805461026c90611ea7565b80601f016020809104026020016040519081016040528092919081815260200182805461029890611ea7565b80156102e55780601f106102ba576101008083540402835291602001916102e5565b820191906000526020600020905b8154815290600101906020018083116102c857829003601f168201915b505050505081526020016004820180546102fe90611ea7565b80601f016020809104026020016040519081016040528092919081815260200182805461032a90611ea7565b80156103775780601f1061034c57610100808354040283529160200191610377565b820191906000526020600020905b81548152906001019060200180831161035a57829003601f168201915b5050505050815260200160058201805461039090611ea7565b80601f01602080910402602001604051908101604052809291908181526020018280546103bc90611ea7565b80156104095780601f106103de57610100808354040283529160200191610409565b820191906000526020600020905b8154815290600101906020018083116103ec57829003601f168201915b5050505050815260200160068201805480602002602001604051908101604052809291908181526020016000905b828210156104e357838290600052602060002001805461045690611ea7565b80601f016020809104026020016040519081016040528092919081815260200182805461048290611ea7565b80156104cf5780601f106104a4576101008083540402835291602001916104cf565b820191906000526020600020905b8154815290600101906020018083116104b257829003601f168201915b505050505081526020019060010190610437565b50505050815260200160078201805480602002602001604051908101604052809291908181526020016000905b828210156105bc57838290600052602060002001805461052f90611ea7565b80601f016020809104026020016040519081016040528092919081815260200182805461055b90611ea7565b80156105a85780601f1061057d576101008083540402835291602001916105a8565b820191906000526020600020905b81548152906001019060200180831161058b57829003601f168201915b505050505081526020019060010190610510565b5050505081526020016008820180546105d490611ea7565b80601f016020809104026020016040519081016040528092919081815260200182805461060090611ea7565b801561064d5780601f106106225761010080835404028352916020019161064d565b820191906000526020600020905b81548152906001019060200180831161063057829003601f168201915b5050505050815250509050919050565b6001805461066a90611ea7565b80601f016020809104026020016040519081016040528092919081815260200182805461069690611ea7565b80156106e35780601f106106b8576101008083540402835291602001916106e3565b820191906000526020600020905b8154815290600101906020018083116106c657829003601f168201915b505050505081565b60005481565b60606000805467ffffffffffffffff811115610736577f4e487b7100000000000000000000000000000000000000000000000000000000600052604160045260246000fd5b60405190808252806020026020018201604052801561076f57816020015b61075c611258565b8152602001906001900390816107545790505b50905060005b600054811015610ced57600260006001836107909190611dd3565b815260200190815260200160002060405180610120016040529081600082015481526020016001820160009054906101000a900473ffffffffffffffffffffffffffffffffffffffff1673ffffffffffffffffffffffffffffffffffffffff1673ffffffffffffffffffffffffffffffffffffffff16815260200160028201805461081a90611ea7565b80601f016020809104026020016040519081016040528092919081815260200182805461084690611ea7565b80156108935780601f1061086857610100808354040283529160200191610893565b820191906000526020600020905b81548152906001019060200180831161087657829003601f168201915b505050505081526020016003820180546108ac90611ea7565b80601f01602080910402602001604051908101604052809291908181526020018280546108d890611ea7565b80156109255780601f106108fa57610100808354040283529160200191610925565b820191906000526020600020905b81548152906001019060200180831161090857829003601f168201915b5050505050815260200160048201805461093e90611ea7565b80601f016020809104026020016040519081016040528092919081815260200182805461096a90611ea7565b80156109b75780601f1061098c576101008083540402835291602001916109b7565b820191906000526020600020905b81548152906001019060200180831161099a57829003601f168201915b505050505081526020016005820180546109d090611ea7565b80601f01602080910402602001604051908101604052809291908181526020018280546109fc90611ea7565b8015610a495780601f10610a1e57610100808354040283529160200191610a49565b820191906000526020600020905b815481529060010190602001808311610a2c57829003601f168201915b5050505050815260200160068201805480602002602001604051908101604052809291908181526020016000905b82821015610b23578382906000526020600020018054610a9690611ea7565b80601f0160208091040260200160405190810160405280929190818152602001828054610ac290611ea7565b8015610b0f5780601f10610ae457610100808354040283529160200191610b0f565b820191906000526020600020905b815481529060010190602001808311610af257829003601f168201915b505050505081526020019060010190610a77565b50505050815260200160078201805480602002602001604051908101604052809291908181526020016000905b82821015610bfc578382906000526020600020018054610b6f90611ea7565b80601f0160208091040260200160405190810160405280929190818152602001828054610b9b90611ea7565b8015610be85780601f10610bbd57610100808354040283529160200191610be8565b820191906000526020600020905b815481529060010190602001808311610bcb57829003601f168201915b505050505081526020019060010190610b50565b505050508152602001600882018054610c1490611ea7565b80601f0160208091040260200160405190810160405280929190818152602001828054610c4090611ea7565b8015610c8d5780601f10610c6257610100808354040283529160200191610c8d565b820191906000526020600020905b815481529060010190602001808311610c7057829003601f168201915b505050505081525050828281518110610ccf577f4e487b7100000000000000000000000000000000000000000000000000000000600052603260045260246000fd5b60200260200101819052508080610ce590611f0a565b915050610775565b508091505090565b6000875111610d0357600080fd5b6000865111610d1157600080fd5b6000845111610d1f57600080fd5b600073ffffffffffffffffffffffffffffffffffffffff163373ffffffffffffffffffffffffffffffffffffffff161415610d5957600080fd5b600080815480929190610d6b90611f0a565b919050555060405180610120016040528060005481526020013373ffffffffffffffffffffffffffffffffffffffff1681526020018881526020018781526020018681526020018581526020018481526020018381526020018281525060026000805481526020019081526020016000206000820151816000015560208201518160010160006101000a81548173ffffffffffffffffffffffffffffffffffffffff021916908373ffffffffffffffffffffffffffffffffffffffff1602179055506040820151816002019080519060200190610e499291906112ba565b506060820151816003019080519060200190610e669291906112ba565b506080820151816004019080519060200190610e839291906112ba565b5060a0820151816005019080519060200190610ea09291906112ba565b5060c0820151816006019080519060200190610ebd929190611340565b5060e0820151816007019080519060200190610eda929190611340565b50610100820151816008019080519060200190610ef89291906112ba565b509050507fc85d5a233884b5a31a93b692b10f02538ed2bddc924e7a51e22114b01c6a9d546000543389898989898989604051610f3d99989796959493929190611b51565b60405180910390a150505050505050565b60026020528060005260406000206000915090508060000154908060010160009054906101000a900473ffffffffffffffffffffffffffffffffffffffff1690806002018054610f9d90611ea7565b80601f0160208091040260200160405190810160405280929190818152602001828054610fc990611ea7565b80156110165780601f10610feb57610100808354040283529160200191611016565b820191906000526020600020905b815481529060010190602001808311610ff957829003601f168201915b50505050509080600301805461102b90611ea7565b80601f016020809104026020016040519081016040528092919081815260200182805461105790611ea7565b80156110a45780601f10611079576101008083540402835291602001916110a4565b820191906000526020600020905b81548152906001019060200180831161108757829003601f168201915b5050505050908060040180546110b990611ea7565b80601f01602080910402602001604051908101604052809291908181526020018280546110e590611ea7565b80156111325780601f1061110757610100808354040283529160200191611132565b820191906000526020600020905b81548152906001019060200180831161111557829003601f168201915b50505050509080600501805461114790611ea7565b80601f016020809104026020016040519081016040528092919081815260200182805461117390611ea7565b80156111c05780601f10611195576101008083540402835291602001916111c0565b820191906000526020600020905b8154815290600101906020018083116111a357829003601f168201915b5050505050908060080180546111d590611ea7565b80601f016020809104026020016040519081016040528092919081815260200182805461120190611ea7565b801561124e5780601f106112235761010080835404028352916020019161124e565b820191906000526020600020905b81548152906001019060200180831161123157829003601f168201915b5050505050905087565b60405180610120016040528060008152602001600073ffffffffffffffffffffffffffffffffffffffff168152602001606081526020016060815260200160608152602001606081526020016060815260200160608152602001606081525090565b8280546112c690611ea7565b90600052602060002090601f0160209004810192826112e8576000855561132f565b82601f1061130157805160ff191683800117855561132f565b8280016001018555821561132f579182015b8281111561132e578251825591602001919060010190611313565b5b50905061133c91906113a0565b5090565b82805482825590600052602060002090810192821561138f579160200282015b8281111561138e57825182908051906020019061137e9291906112ba565b5091602001919060010190611360565b5b50905061139c91906113bd565b5090565b5b808211156113b95760008160009055506001016113a1565b5090565b5b808211156113dd57600081816113d491906113e1565b506001016113be565b5090565b5080546113ed90611ea7565b6000825580601f106113ff575061141e565b601f01602090049060005260206000209081019061141d91906113a0565b5b50565b600061143461142f84611cc6565b611ca1565b9050808382526020820190508285602086028201111561145357600080fd5b60005b8581101561149d57813567ffffffffffffffff81111561147557600080fd5b808601611482898261150f565b85526020850194506020840193505050600181019050611456565b5050509392505050565b60006114ba6114b584611cf2565b611ca1565b9050828152602081018484840111156114d257600080fd5b6114dd848285611e65565b509392505050565b600082601f8301126114f657600080fd5b8135611506848260208601611421565b91505092915050565b600082601f83011261152057600080fd5b81356115308482602086016114a7565b91505092915050565b60008135905061154881611ff1565b92915050565b600080600080600080600060e0888a03121561156957600080fd5b600088013567ffffffffffffffff81111561158357600080fd5b61158f8a828b0161150f565b975050602088013567ffffffffffffffff8111156115ac57600080fd5b6115b88a828b0161150f565b965050604088013567ffffffffffffffff8111156115d557600080fd5b6115e18a828b0161150f565b955050606088013567ffffffffffffffff8111156115fe57600080fd5b61160a8a828b0161150f565b945050608088013567ffffffffffffffff81111561162757600080fd5b6116338a828b016114e5565b93505060a088013567ffffffffffffffff81111561165057600080fd5b61165c8a828b016114e5565b92505060c088013567ffffffffffffffff81111561167957600080fd5b6116858a828b0161150f565b91505092959891949750929550565b6000602082840312156116a657600080fd5b60006116b484828501611539565b91505092915050565b60006116c98383611862565b905092915050565b60006116dd83836118d4565b905092915050565b6116ee81611e29565b82525050565b6116fd81611e29565b82525050565b600061170e82611d43565b6117188185611d7e565b93508360208202850161172a85611d23565b8060005b85811015611766578484038952815161174785826116bd565b945061175283611d64565b925060208a0199505060018101905061172e565b50829750879550505050505092915050565b600061178382611d43565b61178d8185611d8f565b93508360208202850161179f85611d23565b8060005b858110156117db57848403895281516117bc85826116bd565b94506117c783611d64565b925060208a019950506001810190506117a3565b50829750879550505050505092915050565b60006117f882611d4e565b6118028185611da0565b93508360208202850161181485611d33565b8060005b85811015611850578484038952815161183185826116d1565b945061183c83611d71565b925060208a01995050600181019050611818565b50829750879550505050505092915050565b600061186d82611d59565b6118778185611db1565b9350611887818560208601611e74565b61189081611fe0565b840191505092915050565b60006118a682611d59565b6118b08185611dc2565b93506118c0818560208601611e74565b6118c981611fe0565b840191505092915050565b6000610120830160008301516118ed6000860182611ab2565b50602083015161190060208601826116e5565b50604083015184820360408601526119188282611862565b915050606083015184820360608601526119328282611862565b9150506080830151848203608086015261194c8282611862565b91505060a083015184820360a08601526119668282611862565b91505060c083015184820360c08601526119808282611703565b91505060e083015184820360e086015261199a8282611703565b9150506101008301518482036101008601526119b68282611862565b9150508091505092915050565b6000610120830160008301516119dc6000860182611ab2565b5060208301516119ef60208601826116e5565b5060408301518482036040860152611a078282611862565b91505060608301518482036060860152611a218282611862565b91505060808301518482036080860152611a3b8282611862565b91505060a083015184820360a0860152611a558282611862565b91505060c083015184820360c0860152611a6f8282611703565b91505060e083015184820360e0860152611a898282611703565b915050610100830151848203610100860152611aa58282611862565b9150508091505092915050565b611abb81611e5b565b82525050565b611aca81611e5b565b82525050565b60006020820190508181036000830152611aea81846117ed565b905092915050565b60006020820190508181036000830152611b0c818461189b565b905092915050565b60006020820190508181036000830152611b2e81846119c3565b905092915050565b6000602082019050611b4b6000830184611ac1565b92915050565b600061012082019050611b67600083018c611ac1565b611b74602083018b6116f4565b8181036040830152611b86818a61189b565b90508181036060830152611b9a818961189b565b90508181036080830152611bae818861189b565b905081810360a0830152611bc2818761189b565b905081810360c0830152611bd68186611778565b905081810360e0830152611bea8185611778565b9050818103610100830152611bff818461189b565b90509a9950505050505050505050565b600060e082019050611c24600083018a611ac1565b611c3160208301896116f4565b8181036040830152611c43818861189b565b90508181036060830152611c57818761189b565b90508181036080830152611c6b818661189b565b905081810360a0830152611c7f818561189b565b905081810360c0830152611c93818461189b565b905098975050505050505050565b6000611cab611cbc565b9050611cb78282611ed9565b919050565b6000604051905090565b600067ffffffffffffffff821115611ce157611ce0611fb1565b5b602082029050602081019050919050565b600067ffffffffffffffff821115611d0d57611d0c611fb1565b5b611d1682611fe0565b9050602081019050919050565b6000819050602082019050919050565b6000819050602082019050919050565b600081519050919050565b600081519050919050565b600081519050919050565b6000602082019050919050565b6000602082019050919050565b600082825260208201905092915050565b600082825260208201905092915050565b600082825260208201905092915050565b600082825260208201905092915050565b600082825260208201905092915050565b6000611dde82611e5b565b9150611de983611e5b565b9250827fffffffffffffffffffffffffffffffffffffffffffffffffffffffffffffffff03821115611e1e57611e1d611f53565b5b828201905092915050565b6000611e3482611e3b565b9050919050565b600073ffffffffffffffffffffffffffffffffffffffff82169050919050565b6000819050919050565b82818337600083830152505050565b60005b83811015611e92578082015181840152602081019050611e77565b83811115611ea1576000848401525b50505050565b60006002820490506001821680611ebf57607f821691505b60208210811415611ed357611ed2611f82565b5b50919050565b611ee282611fe0565b810181811067ffffffffffffffff82111715611f0157611f00611fb1565b5b80604052505050565b6000611f1582611e5b565b91507fffffffffffffffffffffffffffffffffffffffffffffffffffffffffffffffff821415611f4857611f47611f53565b5b600182019050919050565b7f4e487b7100000000000000000000000000000000000000000000000000000000600052601160045260246000fd5b7f4e487b7100000000000000000000000000000000000000000000000000000000600052602260045260246000fd5b7f4e487b7100000000000000000000000000000000000000000000000000000000600052604160045260246000fd5b6000601f19601f8301169050919050565b611ffa81611e5b565b811461200557600080fd5b5056fea264697066735822122067d09eef99b6cc2605b35a1708ea680a2abec95cea29ef0791a71516c6b5af9364736f6c63430008040033",
  "linkReferences": {},
  "deployedLinkReferences": {}
}