{
  "_format": "hh-sol-artifact-1",
  "contractName": "Uptune",
  "sourceName": "contracts/Uptune.sol",
  "abi": [
    {
      "anonymous": false,
      "inputs": [
        {
          "indexed": false,
          "internalType": "uint256",
          "name": "id",
          "type": "uint256"
        },
        {
          "indexed": false,
          "internalType": "string",
          "name": "audiohash",
          "type": "string"
        },
        {
          "indexed": false,
          "internalType": "string",
          "name": "coverart",
          "type": "string"
        },
        {
          "indexed": false,
          "internalType": "string",
          "name": "title",
          "type": "string"
        },
        {
          "indexed": false,
          "internalType": "string[]",
          "name": "tags",
          "type": "string[]"
        },
        {
          "indexed": false,
          "internalType": "address[]",
          "name": "authors",
          "type": "address[]"
        }
      ],
      "name": "VideoUploaded",
      "type": "event"
    },
    {
      "inputs": [],
      "name": "audioCount",
      "outputs": [
        {
          "internalType": "uint256",
          "name": "",
          "type": "uint256"
        }
      ],
      "stateMutability": "view",
      "type": "function"
    },
    {
      "inputs": [
        {
          "internalType": "uint256",
          "name": "",
          "type": "uint256"
        }
      ],
      "name": "audios",
      "outputs": [
        {
          "internalType": "uint256",
          "name": "id",
          "type": "uint256"
        },
        {
          "internalType": "string",
          "name": "audiohash",
          "type": "string"
        },
        {
          "internalType": "string",
          "name": "coverart",
          "type": "string"
        },
        {
          "internalType": "string",
          "name": "title",
          "type": "string"
        }
      ],
      "stateMutability": "view",
      "type": "function"
    },
    {
      "inputs": [],
      "name": "name",
      "outputs": [
        {
          "internalType": "string",
          "name": "",
          "type": "string"
        }
      ],
      "stateMutability": "view",
      "type": "function"
    },
    {
      "inputs": [
        {
          "internalType": "string",
          "name": "_audiohash",
          "type": "string"
        },
        {
          "internalType": "string",
          "name": "_coverart",
          "type": "string"
        },
        {
          "internalType": "string",
          "name": "_title",
          "type": "string"
        },
        {
          "internalType": "string[]",
          "name": "_tags",
          "type": "string[]"
        },
        {
          "internalType": "address[]",
          "name": "_authors",
          "type": "address[]"
        }
      ],
      "name": "uploadVideo",
      "outputs": [],
      "stateMutability": "nonpayable",
      "type": "function"
    }
  ],
  "bytecode": "0x6080604052600080556040518060400160405280600681526020017f557074756e65000000000000000000000000000000000000000000000000000081525060019080519060200190620000559291906200006a565b503480156200006357600080fd5b506200017f565b82805462000078906200011a565b90600052602060002090601f0160209004810192826200009c5760008555620000e8565b82601f10620000b757805160ff1916838001178555620000e8565b82800160010185558215620000e8579182015b82811115620000e7578251825591602001919060010190620000ca565b5b509050620000f79190620000fb565b5090565b5b8082111562000116576000816000905550600101620000fc565b5090565b600060028204905060018216806200013357607f821691505b602082108114156200014a576200014962000150565b5b50919050565b7f4e487b7100000000000000000000000000000000000000000000000000000000600052602260045260246000fd5b610fe2806200018f6000396000f3fe608060405234801561001057600080fd5b506004361061004c5760003560e01c806306fdde0314610051578063211321961461006f57806338cb3b491461008b578063cba211fa146100a9575b600080fd5b6100596100dc565b6040516100669190610b4e565b60405180910390f35b610089600480360381019061008491906108a7565b61016a565b005b610093610310565b6040516100a09190610b70565b60405180910390f35b6100c360048036038101906100be9190610996565b610316565b6040516100d39493929190610b8b565b60405180910390f35b600180546100e990610e34565b80601f016020809104026020016040519081016040528092919081815260200182805461011590610e34565b80156101625780601f1061013757610100808354040283529160200191610162565b820191906000526020600020905b81548152906001019060200180831161014557829003601f168201915b505050505081565b600085511161017857600080fd5b600084511161018657600080fd5b600083511161019457600080fd5b600073ffffffffffffffffffffffffffffffffffffffff163373ffffffffffffffffffffffffffffffffffffffff1614156101ce57600080fd5b6000808154809291906101e090610e97565b91905055506040518060c00160405280600054815260200186815260200185815260200184815260200183815260200182815250600260008054815260200190815260200160002060008201518160000155602082015181600101908051906020019061024e9291906104de565b50604082015181600201908051906020019061026b9291906104de565b5060608201518160030190805190602001906102889291906104de565b5060808201518160040190805190602001906102a5929190610564565b5060a08201518160050190805190602001906102c29291906105c4565b509050507fc15681eb928beceaea3ba1f3862a8bd694e4b66ece4d50b49991c49cabca3cf1600054868686868660405161030196959493929190610be5565b60405180910390a15050505050565b60005481565b600260205280600052604060002060009150905080600001549080600101805461033f90610e34565b80601f016020809104026020016040519081016040528092919081815260200182805461036b90610e34565b80156103b85780601f1061038d576101008083540402835291602001916103b8565b820191906000526020600020905b81548152906001019060200180831161039b57829003601f168201915b5050505050908060020180546103cd90610e34565b80601f01602080910402602001604051908101604052809291908181526020018280546103f990610e34565b80156104465780601f1061041b57610100808354040283529160200191610446565b820191906000526020600020905b81548152906001019060200180831161042957829003601f168201915b50505050509080600301805461045b90610e34565b80601f016020809104026020016040519081016040528092919081815260200182805461048790610e34565b80156104d45780601f106104a9576101008083540402835291602001916104d4565b820191906000526020600020905b8154815290600101906020018083116104b757829003601f168201915b5050505050905084565b8280546104ea90610e34565b90600052602060002090601f01602090048101928261050c5760008555610553565b82601f1061052557805160ff1916838001178555610553565b82800160010185558215610553579182015b82811115610552578251825591602001919060010190610537565b5b509050610560919061064e565b5090565b8280548282559060005260206000209081019282156105b3579160200282015b828111156105b25782518290805190602001906105a29291906104de565b5091602001919060010190610584565b5b5090506105c0919061066b565b5090565b82805482825590600052602060002090810192821561063d579160200282015b8281111561063c5782518260006101000a81548173ffffffffffffffffffffffffffffffffffffffff021916908373ffffffffffffffffffffffffffffffffffffffff160217905550916020019190600101906105e4565b5b50905061064a919061064e565b5090565b5b8082111561066757600081600090555060010161064f565b5090565b5b8082111561068b5760008181610682919061068f565b5060010161066c565b5090565b50805461069b90610e34565b6000825580601f106106ad57506106cc565b601f0160209004906000526020600020908101906106cb919061064e565b5b50565b60006106e26106dd84610c8e565b610c69565b9050808382526020820190508285602086028201111561070157600080fd5b60005b85811015610731578161071788826107ff565b845260208401935060208301925050600181019050610704565b5050509392505050565b600061074e61074984610cba565b610c69565b9050808382526020820190508285602086028201111561076d57600080fd5b60005b858110156107b757813567ffffffffffffffff81111561078f57600080fd5b80860161079c8982610868565b85526020850194506020840193505050600181019050610770565b5050509392505050565b60006107d46107cf84610ce6565b610c69565b9050828152602081018484840111156107ec57600080fd5b6107f7848285610df2565b509392505050565b60008135905061080e81610f7e565b92915050565b600082601f83011261082557600080fd5b81356108358482602086016106cf565b91505092915050565b600082601f83011261084f57600080fd5b813561085f84826020860161073b565b91505092915050565b600082601f83011261087957600080fd5b81356108898482602086016107c1565b91505092915050565b6000813590506108a181610f95565b92915050565b600080600080600060a086880312156108bf57600080fd5b600086013567ffffffffffffffff8111156108d957600080fd5b6108e588828901610868565b955050602086013567ffffffffffffffff81111561090257600080fd5b61090e88828901610868565b945050604086013567ffffffffffffffff81111561092b57600080fd5b61093788828901610868565b935050606086013567ffffffffffffffff81111561095457600080fd5b6109608882890161083e565b925050608086013567ffffffffffffffff81111561097d57600080fd5b61098988828901610814565b9150509295509295909350565b6000602082840312156109a857600080fd5b60006109b684828501610892565b91505092915050565b60006109cb83836109eb565b60208301905092915050565b60006109e38383610acd565b905092915050565b6109f481610db6565b82525050565b6000610a0582610d37565b610a0f8185610d72565b9350610a1a83610d17565b8060005b83811015610a4b578151610a3288826109bf565b9750610a3d83610d58565b925050600181019050610a1e565b5085935050505092915050565b6000610a6382610d42565b610a6d8185610d83565b935083602082028501610a7f85610d27565b8060005b85811015610abb5784840389528151610a9c85826109d7565b9450610aa783610d65565b925060208a01995050600181019050610a83565b50829750879550505050505092915050565b6000610ad882610d4d565b610ae28185610d94565b9350610af2818560208601610e01565b610afb81610f6d565b840191505092915050565b6000610b1182610d4d565b610b1b8185610da5565b9350610b2b818560208601610e01565b610b3481610f6d565b840191505092915050565b610b4881610de8565b82525050565b60006020820190508181036000830152610b688184610b06565b905092915050565b6000602082019050610b856000830184610b3f565b92915050565b6000608082019050610ba06000830187610b3f565b8181036020830152610bb28186610b06565b90508181036040830152610bc68185610b06565b90508181036060830152610bda8184610b06565b905095945050505050565b600060c082019050610bfa6000830189610b3f565b8181036020830152610c0c8188610b06565b90508181036040830152610c208187610b06565b90508181036060830152610c348186610b06565b90508181036080830152610c488185610a58565b905081810360a0830152610c5c81846109fa565b9050979650505050505050565b6000610c73610c84565b9050610c7f8282610e66565b919050565b6000604051905090565b600067ffffffffffffffff821115610ca957610ca8610f3e565b5b602082029050602081019050919050565b600067ffffffffffffffff821115610cd557610cd4610f3e565b5b602082029050602081019050919050565b600067ffffffffffffffff821115610d0157610d00610f3e565b5b610d0a82610f6d565b9050602081019050919050565b6000819050602082019050919050565b6000819050602082019050919050565b600081519050919050565b600081519050919050565b600081519050919050565b6000602082019050919050565b6000602082019050919050565b600082825260208201905092915050565b600082825260208201905092915050565b600082825260208201905092915050565b600082825260208201905092915050565b6000610dc182610dc8565b9050919050565b600073ffffffffffffffffffffffffffffffffffffffff82169050919050565b6000819050919050565b82818337600083830152505050565b60005b83811015610e1f578082015181840152602081019050610e04565b83811115610e2e576000848401525b50505050565b60006002820490506001821680610e4c57607f821691505b60208210811415610e6057610e5f610f0f565b5b50919050565b610e6f82610f6d565b810181811067ffffffffffffffff82111715610e8e57610e8d610f3e565b5b80604052505050565b6000610ea282610de8565b91507fffffffffffffffffffffffffffffffffffffffffffffffffffffffffffffffff821415610ed557610ed4610ee0565b5b600182019050919050565b7f4e487b7100000000000000000000000000000000000000000000000000000000600052601160045260246000fd5b7f4e487b7100000000000000000000000000000000000000000000000000000000600052602260045260246000fd5b7f4e487b7100000000000000000000000000000000000000000000000000000000600052604160045260246000fd5b6000601f19601f8301169050919050565b610f8781610db6565b8114610f9257600080fd5b50565b610f9e81610de8565b8114610fa957600080fd5b5056fea2646970667358221220f26f455ed719a347d60f3cd57c04762f4efcae24e799e882d6b08cb32d2e8df564736f6c63430008040033",
  "linkReferences": {},
  "deployedLinkReferences": {}
}