{
  "_format": "hh-sol-artifact-1",
  "contractName": "Uptune",
  "sourceName": "contracts/Uptune.sol",
  "abi": [
    {
      "anonymous": false,
      "inputs": [
        {
          "indexed": false,
          "internalType": "uint256",
          "name": "id",
          "type": "uint256"
        },
        {
          "indexed": false,
          "internalType": "uint256",
          "name": "amount",
          "type": "uint256"
        },
        {
          "indexed": false,
          "internalType": "uint256",
          "name": "timestamp",
          "type": "uint256"
        },
        {
          "indexed": false,
          "internalType": "address",
          "name": "wallet",
          "type": "address"
        },
        {
          "indexed": false,
          "internalType": "string",
          "name": "audiogateway",
          "type": "string"
        },
        {
          "indexed": false,
          "internalType": "string",
          "name": "coverartgateway",
          "type": "string"
        },
        {
          "indexed": false,
          "internalType": "string",
          "name": "title",
          "type": "string"
        },
        {
          "indexed": false,
          "internalType": "string",
          "name": "mainAuthor",
          "type": "string"
        },
        {
          "indexed": false,
          "internalType": "string[]",
          "name": "tags",
          "type": "string[]"
        },
        {
          "indexed": false,
          "internalType": "string[]",
          "name": "genres",
          "type": "string[]"
        },
        {
          "indexed": false,
          "internalType": "string",
          "name": "authors",
          "type": "string"
        }
      ],
      "name": "AudioUploaded",
      "type": "event"
    },
    {
      "inputs": [],
      "name": "audioCount",
      "outputs": [
        {
          "internalType": "uint256",
          "name": "",
          "type": "uint256"
        }
      ],
      "stateMutability": "view",
      "type": "function"
    },
    {
      "inputs": [
        {
          "internalType": "uint256",
          "name": "",
          "type": "uint256"
        }
      ],
      "name": "audios",
      "outputs": [
        {
          "internalType": "uint256",
          "name": "id",
          "type": "uint256"
        },
        {
          "internalType": "uint256",
          "name": "amount",
          "type": "uint256"
        },
        {
          "internalType": "uint256",
          "name": "timestamp",
          "type": "uint256"
        },
        {
          "internalType": "address",
          "name": "wallet",
          "type": "address"
        },
        {
          "internalType": "string",
          "name": "audiogateway",
          "type": "string"
        },
        {
          "internalType": "string",
          "name": "coverartgateway",
          "type": "string"
        },
        {
          "internalType": "string",
          "name": "title",
          "type": "string"
        },
        {
          "internalType": "string",
          "name": "mainAuthor",
          "type": "string"
        },
        {
          "internalType": "string",
          "name": "authors",
          "type": "string"
        }
      ],
      "stateMutability": "view",
      "type": "function"
    },
    {
      "inputs": [
        {
          "internalType": "uint256",
          "name": "",
          "type": "uint256"
        }
      ],
      "name": "comments",
      "outputs": [
        {
          "internalType": "uint256",
          "name": "id",
          "type": "uint256"
        }
      ],
      "stateMutability": "view",
      "type": "function"
    },
    {
      "inputs": [],
      "name": "getAllAudio",
      "outputs": [
        {
          "components": [
            {
              "internalType": "uint256",
              "name": "id",
              "type": "uint256"
            },
            {
              "internalType": "uint256",
              "name": "amount",
              "type": "uint256"
            },
            {
              "internalType": "uint256",
              "name": "timestamp",
              "type": "uint256"
            },
            {
              "internalType": "address",
              "name": "wallet",
              "type": "address"
            },
            {
              "internalType": "string",
              "name": "audiogateway",
              "type": "string"
            },
            {
              "internalType": "string",
              "name": "coverartgateway",
              "type": "string"
            },
            {
              "internalType": "string",
              "name": "title",
              "type": "string"
            },
            {
              "internalType": "string",
              "name": "mainAuthor",
              "type": "string"
            },
            {
              "internalType": "string[]",
              "name": "tags",
              "type": "string[]"
            },
            {
              "internalType": "string[]",
              "name": "genres",
              "type": "string[]"
            },
            {
              "internalType": "string",
              "name": "authors",
              "type": "string"
            }
          ],
          "internalType": "struct Uptune.Audio[]",
          "name": "",
          "type": "tuple[]"
        }
      ],
      "stateMutability": "view",
      "type": "function"
    },
    {
      "inputs": [
        {
          "internalType": "uint256",
          "name": "_id",
          "type": "uint256"
        }
      ],
      "name": "getAllComments",
      "outputs": [
        {
          "components": [
            {
              "internalType": "uint256",
              "name": "id",
              "type": "uint256"
            },
            {
              "internalType": "string[]",
              "name": "comment",
              "type": "string[]"
            },
            {
              "internalType": "uint256[]",
              "name": "amount",
              "type": "uint256[]"
            },
            {
              "internalType": "uint256[]",
              "name": "timestamp",
              "type": "uint256[]"
            }
          ],
          "internalType": "struct Uptune.Comment",
          "name": "",
          "type": "tuple"
        }
      ],
      "stateMutability": "view",
      "type": "function"
    },
    {
      "inputs": [
        {
          "internalType": "uint256",
          "name": "_audioCount",
          "type": "uint256"
        }
      ],
      "name": "getOneAudio",
      "outputs": [
        {
          "components": [
            {
              "internalType": "uint256",
              "name": "id",
              "type": "uint256"
            },
            {
              "internalType": "uint256",
              "name": "amount",
              "type": "uint256"
            },
            {
              "internalType": "uint256",
              "name": "timestamp",
              "type": "uint256"
            },
            {
              "internalType": "address",
              "name": "wallet",
              "type": "address"
            },
            {
              "internalType": "string",
              "name": "audiogateway",
              "type": "string"
            },
            {
              "internalType": "string",
              "name": "coverartgateway",
              "type": "string"
            },
            {
              "internalType": "string",
              "name": "title",
              "type": "string"
            },
            {
              "internalType": "string",
              "name": "mainAuthor",
              "type": "string"
            },
            {
              "internalType": "string[]",
              "name": "tags",
              "type": "string[]"
            },
            {
              "internalType": "string[]",
              "name": "genres",
              "type": "string[]"
            },
            {
              "internalType": "string",
              "name": "authors",
              "type": "string"
            }
          ],
          "internalType": "struct Uptune.Audio",
          "name": "",
          "type": "tuple"
        }
      ],
      "stateMutability": "view",
      "type": "function"
    },
    {
      "inputs": [
        {
          "internalType": "uint256",
          "name": "_id",
          "type": "uint256"
        },
        {
          "internalType": "uint256",
          "name": "_amount",
          "type": "uint256"
        },
        {
          "internalType": "string",
          "name": "_message",
          "type": "string"
        }
      ],
      "name": "sendTip",
      "outputs": [],
      "stateMutability": "nonpayable",
      "type": "function"
    },
    {
      "inputs": [
        {
          "internalType": "string",
          "name": "_audiogateway",
          "type": "string"
        },
        {
          "internalType": "string",
          "name": "_coverartgateway",
          "type": "string"
        },
        {
          "internalType": "string",
          "name": "_mainAuthor",
          "type": "string"
        },
        {
          "internalType": "string",
          "name": "_title",
          "type": "string"
        },
        {
          "internalType": "string[]",
          "name": "_tags",
          "type": "string[]"
        },
        {
          "internalType": "string[]",
          "name": "_genres",
          "type": "string[]"
        },
        {
          "internalType": "string",
          "name": "_authors",
          "type": "string"
        }
      ],
      "name": "uploadAudio",
      "outputs": [],
      "stateMutability": "nonpayable",
      "type": "function"
    }
  ],
  "bytecode": "0x60806040526000805534801561001457600080fd5b506125da806100246000396000f3fe608060405234801561001057600080fd5b50600436106100885760003560e01c80636845c1c21161005b5780636845c1c2146101295780638ebb4c1514610145578063cba211fa14610175578063f0339d88146101ad57610088565b8063038421171461008d57806303926df9146100bd57806338cb3b49146100ed57806356b808de1461010b575b600080fd5b6100a760048036038101906100a291906119f8565b6101c9565b6040516100b49190612007565b60405180910390f35b6100d760048036038101906100d291906119f8565b6106f7565b6040516100e49190612029565b60405180910390f35b6100f56108b7565b604051610102919061204b565b60405180910390f35b6101136108bd565b6040516101209190611fe5565b60405180910390f35b610143600480360381019061013e91906118b2565b610ed5565b005b61015f600480360381019061015a91906119f8565b611156565b60405161016c919061204b565b60405180910390f35b61018f600480360381019061018a91906119f8565b611174565b6040516101a499989796959493929190612142565b60405180910390f35b6101c760048036038101906101c29190611a21565b61148a565b005b6101d1611586565b60016000838152602001908152602001600020604051806101600160405290816000820154815260200160018201548152602001600282015481526020016003820160009054906101000a900473ffffffffffffffffffffffffffffffffffffffff1673ffffffffffffffffffffffffffffffffffffffff1673ffffffffffffffffffffffffffffffffffffffff16815260200160048201805461027490612443565b80601f01602080910402602001604051908101604052809291908181526020018280546102a090612443565b80156102ed5780601f106102c2576101008083540402835291602001916102ed565b820191906000526020600020905b8154815290600101906020018083116102d057829003601f168201915b5050505050815260200160058201805461030690612443565b80601f016020809104026020016040519081016040528092919081815260200182805461033290612443565b801561037f5780601f106103545761010080835404028352916020019161037f565b820191906000526020600020905b81548152906001019060200180831161036257829003601f168201915b5050505050815260200160068201805461039890612443565b80601f01602080910402602001604051908101604052809291908181526020018280546103c490612443565b80156104115780601f106103e657610100808354040283529160200191610411565b820191906000526020600020905b8154815290600101906020018083116103f457829003601f168201915b5050505050815260200160078201805461042a90612443565b80601f016020809104026020016040519081016040528092919081815260200182805461045690612443565b80156104a35780601f10610478576101008083540402835291602001916104a3565b820191906000526020600020905b81548152906001019060200180831161048657829003601f168201915b5050505050815260200160088201805480602002602001604051908101604052809291908181526020016000905b8282101561057d5783829060005260206000200180546104f090612443565b80601f016020809104026020016040519081016040528092919081815260200182805461051c90612443565b80156105695780601f1061053e57610100808354040283529160200191610569565b820191906000526020600020905b81548152906001019060200180831161054c57829003601f168201915b5050505050815260200190600101906104d1565b50505050815260200160098201805480602002602001604051908101604052809291908181526020016000905b828210156106565783829060005260206000200180546105c990612443565b80601f01602080910402602001604051908101604052809291908181526020018280546105f590612443565b80156106425780601f1061061757610100808354040283529160200191610642565b820191906000526020600020905b81548152906001019060200180831161062557829003601f168201915b5050505050815260200190600101906105aa565b505050508152602001600a8201805461066e90612443565b80601f016020809104026020016040519081016040528092919081815260200182805461069a90612443565b80156106e75780601f106106bc576101008083540402835291602001916106e7565b820191906000526020600020905b8154815290600101906020018083116106ca57829003601f168201915b5050505050815250509050919050565b6106ff6115f6565b600260008381526020019081526020016000206040518060800160405290816000820154815260200160018201805480602002602001604051908101604052809291908181526020016000905b828210156107f857838290600052602060002001805461076b90612443565b80601f016020809104026020016040519081016040528092919081815260200182805461079790612443565b80156107e45780601f106107b9576101008083540402835291602001916107e4565b820191906000526020600020905b8154815290600101906020018083116107c757829003601f168201915b50505050508152602001906001019061074c565b5050505081526020016002820180548060200260200160405190810160405280929190818152602001828054801561084f57602002820191906000526020600020905b81548152602001906001019080831161083b575b50505050508152602001600382018054806020026020016040519081016040528092919081815260200182805480156108a757602002820191906000526020600020905b815481526020019060010190808311610893575b5050505050815250509050919050565b60005481565b60606000805467ffffffffffffffff811115610902577f4e487b7100000000000000000000000000000000000000000000000000000000600052604160045260246000fd5b60405190808252806020026020018201604052801561093b57816020015b610928611586565b8152602001906001900390816109205790505b50905060005b600054811015610ecd576001600060018361095c919061235d565b8152602001908152602001600020604051806101600160405290816000820154815260200160018201548152602001600282015481526020016003820160009054906101000a900473ffffffffffffffffffffffffffffffffffffffff1673ffffffffffffffffffffffffffffffffffffffff1673ffffffffffffffffffffffffffffffffffffffff1681526020016004820180546109fa90612443565b80601f0160208091040260200160405190810160405280929190818152602001828054610a2690612443565b8015610a735780601f10610a4857610100808354040283529160200191610a73565b820191906000526020600020905b815481529060010190602001808311610a5657829003601f168201915b50505050508152602001600582018054610a8c90612443565b80601f0160208091040260200160405190810160405280929190818152602001828054610ab890612443565b8015610b055780601f10610ada57610100808354040283529160200191610b05565b820191906000526020600020905b815481529060010190602001808311610ae857829003601f168201915b50505050508152602001600682018054610b1e90612443565b80601f0160208091040260200160405190810160405280929190818152602001828054610b4a90612443565b8015610b975780601f10610b6c57610100808354040283529160200191610b97565b820191906000526020600020905b815481529060010190602001808311610b7a57829003601f168201915b50505050508152602001600782018054610bb090612443565b80601f0160208091040260200160405190810160405280929190818152602001828054610bdc90612443565b8015610c295780601f10610bfe57610100808354040283529160200191610c29565b820191906000526020600020905b815481529060010190602001808311610c0c57829003601f168201915b5050505050815260200160088201805480602002602001604051908101604052809291908181526020016000905b82821015610d03578382906000526020600020018054610c7690612443565b80601f0160208091040260200160405190810160405280929190818152602001828054610ca290612443565b8015610cef5780601f10610cc457610100808354040283529160200191610cef565b820191906000526020600020905b815481529060010190602001808311610cd257829003601f168201915b505050505081526020019060010190610c57565b50505050815260200160098201805480602002602001604051908101604052809291908181526020016000905b82821015610ddc578382906000526020600020018054610d4f90612443565b80601f0160208091040260200160405190810160405280929190818152602001828054610d7b90612443565b8015610dc85780601f10610d9d57610100808354040283529160200191610dc8565b820191906000526020600020905b815481529060010190602001808311610dab57829003601f168201915b505050505081526020019060010190610d30565b505050508152602001600a82018054610df490612443565b80601f0160208091040260200160405190810160405280929190818152602001828054610e2090612443565b8015610e6d5780601f10610e4257610100808354040283529160200191610e6d565b820191906000526020600020905b815481529060010190602001808311610e5057829003601f168201915b505050505081525050828281518110610eaf577f4e487b7100000000000000000000000000000000000000000000000000000000600052603260045260246000fd5b60200260200101819052508080610ec5906124a6565b915050610941565b508091505090565b6000875111610ee357600080fd5b6000865111610ef157600080fd5b6000845111610eff57600080fd5b600073ffffffffffffffffffffffffffffffffffffffff163373ffffffffffffffffffffffffffffffffffffffff161415610f3957600080fd5b600080815480929190610f4b906124a6565b91905055506040518061016001604052806000548152602001600081526020014281526020013373ffffffffffffffffffffffffffffffffffffffff16815260200188815260200187815260200186815260200185815260200184815260200183815260200182815250600160008054815260200190815260200160002060008201518160000155602082015181600101556040820151816002015560608201518160030160006101000a81548173ffffffffffffffffffffffffffffffffffffffff021916908373ffffffffffffffffffffffffffffffffffffffff160217905550608082015181600401908051906020019061104a92919061161e565b5060a082015181600501908051906020019061106792919061161e565b5060c082015181600601908051906020019061108492919061161e565b5060e08201518160070190805190602001906110a192919061161e565b506101008201518160080190805190602001906110bf9291906116a4565b506101208201518160090190805190602001906110dd9291906116a4565b5061014082015181600a0190805190602001906110fb92919061161e565b509050507fa1fc5cdd23c6b76a608f4da38b2f26d481221787014b35c06cf86618b2e8d044600054600042338b8b8b8b8b8b8b6040516111459b9a99989796959493929190612066565b60405180910390a150505050505050565b60026020528060005260406000206000915090508060000154905081565b60016020528060005260406000206000915090508060000154908060010154908060020154908060030160009054906101000a900473ffffffffffffffffffffffffffffffffffffffff16908060040180546111cf90612443565b80601f01602080910402602001604051908101604052809291908181526020018280546111fb90612443565b80156112485780601f1061121d57610100808354040283529160200191611248565b820191906000526020600020905b81548152906001019060200180831161122b57829003601f168201915b50505050509080600501805461125d90612443565b80601f016020809104026020016040519081016040528092919081815260200182805461128990612443565b80156112d65780601f106112ab576101008083540402835291602001916112d6565b820191906000526020600020905b8154815290600101906020018083116112b957829003601f168201915b5050505050908060060180546112eb90612443565b80601f016020809104026020016040519081016040528092919081815260200182805461131790612443565b80156113645780601f1061133957610100808354040283529160200191611364565b820191906000526020600020905b81548152906001019060200180831161134757829003601f168201915b50505050509080600701805461137990612443565b80601f01602080910402602001604051908101604052809291908181526020018280546113a590612443565b80156113f25780601f106113c7576101008083540402835291602001916113f2565b820191906000526020600020905b8154815290600101906020018083116113d557829003601f168201915b50505050509080600a01805461140790612443565b80601f016020809104026020016040519081016040528092919081815260200182805461143390612443565b80156114805780601f1061145557610100808354040283529160200191611480565b820191906000526020600020905b81548152906001019060200180831161146357829003601f168201915b5050505050905089565b816001600085815260200190815260200160002060010160008282546114b0919061235d565b92505081905550600260008481526020019081526020016000206001018190806001815401808255809150506001900390600052602060002001600090919091909150908051906020019061150692919061161e565b506002600084815260200190815260200160002060020182908060018154018082558091505060019003906000526020600020016000909190919091505560026000848152602001908152602001600020600301429080600181540180825580915050600190039060005260206000200160009091909190915055505050565b604051806101600160405280600081526020016000815260200160008152602001600073ffffffffffffffffffffffffffffffffffffffff168152602001606081526020016060815260200160608152602001606081526020016060815260200160608152602001606081525090565b6040518060800160405280600081526020016060815260200160608152602001606081525090565b82805461162a90612443565b90600052602060002090601f01602090048101928261164c5760008555611693565b82601f1061166557805160ff1916838001178555611693565b82800160010185558215611693579182015b82811115611692578251825591602001919060010190611677565b5b5090506116a09190611704565b5090565b8280548282559060005260206000209081019282156116f3579160200282015b828111156116f25782518290805190602001906116e292919061161e565b50916020019190600101906116c4565b5b5090506117009190611721565b5090565b5b8082111561171d576000816000905550600101611705565b5090565b5b8082111561174157600081816117389190611745565b50600101611722565b5090565b50805461175190612443565b6000825580601f106117635750611782565b601f0160209004906000526020600020908101906117819190611704565b5b50565b600061179861179384612217565b6121f2565b905080838252602082019050828560208602820111156117b757600080fd5b60005b8581101561180157813567ffffffffffffffff8111156117d957600080fd5b8086016117e68982611873565b855260208501945060208401935050506001810190506117ba565b5050509392505050565b600061181e61181984612243565b6121f2565b90508281526020810184848401111561183657600080fd5b611841848285612401565b509392505050565b600082601f83011261185a57600080fd5b813561186a848260208601611785565b91505092915050565b600082601f83011261188457600080fd5b813561189484826020860161180b565b91505092915050565b6000813590506118ac8161258d565b92915050565b600080600080600080600060e0888a0312156118cd57600080fd5b600088013567ffffffffffffffff8111156118e757600080fd5b6118f38a828b01611873565b975050602088013567ffffffffffffffff81111561191057600080fd5b61191c8a828b01611873565b965050604088013567ffffffffffffffff81111561193957600080fd5b6119458a828b01611873565b955050606088013567ffffffffffffffff81111561196257600080fd5b61196e8a828b01611873565b945050608088013567ffffffffffffffff81111561198b57600080fd5b6119978a828b01611849565b93505060a088013567ffffffffffffffff8111156119b457600080fd5b6119c08a828b01611849565b92505060c088013567ffffffffffffffff8111156119dd57600080fd5b6119e98a828b01611873565b91505092959891949750929550565b600060208284031215611a0a57600080fd5b6000611a188482850161189d565b91505092915050565b600080600060608486031215611a3657600080fd5b6000611a448682870161189d565b9350506020611a558682870161189d565b925050604084013567ffffffffffffffff811115611a7257600080fd5b611a7e86828701611873565b9150509250925092565b6000611a948383611cb2565b905092915050565b6000611aa88383611d24565b905092915050565b6000611abc8383611fc7565b60208301905092915050565b611ad1816123b3565b82525050565b611ae0816123b3565b82525050565b6000611af1826122a4565b611afb81856122f7565b935083602082028501611b0d85612274565b8060005b85811015611b495784840389528151611b2a8582611a88565b9450611b35836122d0565b925060208a01995050600181019050611b11565b50829750879550505050505092915050565b6000611b66826122a4565b611b708185612308565b935083602082028501611b8285612274565b8060005b85811015611bbe5784840389528151611b9f8582611a88565b9450611baa836122d0565b925060208a01995050600181019050611b86565b50829750879550505050505092915050565b6000611bdb826122af565b611be58185612319565b935083602082028501611bf785612284565b8060005b85811015611c335784840389528151611c148582611a9c565b9450611c1f836122dd565b925060208a01995050600181019050611bfb565b50829750879550505050505092915050565b6000611c50826122ba565b611c5a818561232a565b9350611c6583612294565b8060005b83811015611c96578151611c7d8882611ab0565b9750611c88836122ea565b925050600181019050611c69565b5085935050505092915050565b611cac816123ef565b82525050565b6000611cbd826122c5565b611cc7818561233b565b9350611cd7818560208601612410565b611ce08161257c565b840191505092915050565b6000611cf6826122c5565b611d00818561234c565b9350611d10818560208601612410565b611d198161257c565b840191505092915050565b600061016083016000830151611d3d6000860182611fc7565b506020830151611d506020860182611fc7565b506040830151611d636040860182611fc7565b506060830151611d766060860182611ac8565b5060808301518482036080860152611d8e8282611cb2565b91505060a083015184820360a0860152611da88282611cb2565b91505060c083015184820360c0860152611dc28282611cb2565b91505060e083015184820360e0860152611ddc8282611cb2565b915050610100830151848203610100860152611df88282611ae6565b915050610120830151848203610120860152611e148282611ae6565b915050610140830151848203610140860152611e308282611cb2565b9150508091505092915050565b600061016083016000830151611e566000860182611fc7565b506020830151611e696020860182611fc7565b506040830151611e7c6040860182611fc7565b506060830151611e8f6060860182611ac8565b5060808301518482036080860152611ea78282611cb2565b91505060a083015184820360a0860152611ec18282611cb2565b91505060c083015184820360c0860152611edb8282611cb2565b91505060e083015184820360e0860152611ef58282611cb2565b915050610100830151848203610100860152611f118282611ae6565b915050610120830151848203610120860152611f2d8282611ae6565b915050610140830151848203610140860152611f498282611cb2565b9150508091505092915050565b6000608083016000830151611f6e6000860182611fc7565b5060208301518482036020860152611f868282611ae6565b91505060408301518482036040860152611fa08282611c45565b91505060608301518482036060860152611fba8282611c45565b9150508091505092915050565b611fd0816123e5565b82525050565b611fdf816123e5565b82525050565b60006020820190508181036000830152611fff8184611bd0565b905092915050565b600060208201905081810360008301526120218184611e3d565b905092915050565b600060208201905081810360008301526120438184611f56565b905092915050565b60006020820190506120606000830184611fd6565b92915050565b60006101608201905061207c600083018e611fd6565b612089602083018d611ca3565b612096604083018c611fd6565b6120a3606083018b611ad7565b81810360808301526120b5818a611ceb565b905081810360a08301526120c98189611ceb565b905081810360c08301526120dd8188611ceb565b905081810360e08301526120f18187611ceb565b90508181036101008301526121068186611b5b565b905081810361012083015261211b8185611b5b565b90508181036101408301526121308184611ceb565b90509c9b505050505050505050505050565b600061012082019050612158600083018c611fd6565b612165602083018b611fd6565b612172604083018a611fd6565b61217f6060830189611ad7565b81810360808301526121918188611ceb565b905081810360a08301526121a58187611ceb565b905081810360c08301526121b98186611ceb565b905081810360e08301526121cd8185611ceb565b90508181036101008301526121e28184611ceb565b90509a9950505050505050505050565b60006121fc61220d565b90506122088282612475565b919050565b6000604051905090565b600067ffffffffffffffff8211156122325761223161254d565b5b602082029050602081019050919050565b600067ffffffffffffffff82111561225e5761225d61254d565b5b6122678261257c565b9050602081019050919050565b6000819050602082019050919050565b6000819050602082019050919050565b6000819050602082019050919050565b600081519050919050565b600081519050919050565b600081519050919050565b600081519050919050565b6000602082019050919050565b6000602082019050919050565b6000602082019050919050565b600082825260208201905092915050565b600082825260208201905092915050565b600082825260208201905092915050565b600082825260208201905092915050565b600082825260208201905092915050565b600082825260208201905092915050565b6000612368826123e5565b9150612373836123e5565b9250827fffffffffffffffffffffffffffffffffffffffffffffffffffffffffffffffff038211156123a8576123a76124ef565b5b828201905092915050565b60006123be826123c5565b9050919050565b600073ffffffffffffffffffffffffffffffffffffffff82169050919050565b6000819050919050565b60006123fa826123e5565b9050919050565b82818337600083830152505050565b60005b8381101561242e578082015181840152602081019050612413565b8381111561243d576000848401525b50505050565b6000600282049050600182168061245b57607f821691505b6020821081141561246f5761246e61251e565b5b50919050565b61247e8261257c565b810181811067ffffffffffffffff8211171561249d5761249c61254d565b5b80604052505050565b60006124b1826123e5565b91507fffffffffffffffffffffffffffffffffffffffffffffffffffffffffffffffff8214156124e4576124e36124ef565b5b600182019050919050565b7f4e487b7100000000000000000000000000000000000000000000000000000000600052601160045260246000fd5b7f4e487b7100000000000000000000000000000000000000000000000000000000600052602260045260246000fd5b7f4e487b7100000000000000000000000000000000000000000000000000000000600052604160045260246000fd5b6000601f19601f8301169050919050565b612596816123e5565b81146125a157600080fd5b5056fea26469706673582212202223117124b4027c266541134852c33102cb2123005061ef8009ee7cf0932bcd64736f6c63430008040033",
  "linkReferences": {},
  "deployedLinkReferences": {}
}