{
  "_format": "hh-sol-artifact-1",
  "contractName": "Uptune",
  "sourceName": "contracts/Uptune.sol",
  "abi": [
    {
      "anonymous": false,
      "inputs": [
        {
          "indexed": false,
          "internalType": "uint256",
          "name": "id",
          "type": "uint256"
        },
        {
          "indexed": false,
          "internalType": "uint256",
          "name": "amount",
          "type": "uint256"
        },
        {
          "indexed": false,
          "internalType": "uint256",
          "name": "timestamp",
          "type": "uint256"
        },
        {
          "indexed": false,
          "internalType": "address",
          "name": "wallet",
          "type": "address"
        },
        {
          "indexed": false,
          "internalType": "string",
          "name": "audiogateway",
          "type": "string"
        },
        {
          "indexed": false,
          "internalType": "string",
          "name": "coverartgateway",
          "type": "string"
        },
        {
          "indexed": false,
          "internalType": "string",
          "name": "title",
          "type": "string"
        },
        {
          "indexed": false,
          "internalType": "string",
          "name": "mainAuthor",
          "type": "string"
        },
        {
          "indexed": false,
          "internalType": "string[]",
          "name": "tags",
          "type": "string[]"
        },
        {
          "indexed": false,
          "internalType": "string[]",
          "name": "genres",
          "type": "string[]"
        },
        {
          "indexed": false,
          "internalType": "string",
          "name": "authors",
          "type": "string"
        }
      ],
      "name": "AudioUploaded",
      "type": "event"
    },
    {
      "inputs": [],
      "name": "audioCount",
      "outputs": [
        {
          "internalType": "uint256",
          "name": "",
          "type": "uint256"
        }
      ],
      "stateMutability": "view",
      "type": "function"
    },
    {
      "inputs": [
        {
          "internalType": "uint256",
          "name": "",
          "type": "uint256"
        }
      ],
      "name": "audios",
      "outputs": [
        {
          "internalType": "uint256",
          "name": "id",
          "type": "uint256"
        },
        {
          "internalType": "uint256",
          "name": "amount",
          "type": "uint256"
        },
        {
          "internalType": "uint256",
          "name": "timestamp",
          "type": "uint256"
        },
        {
          "internalType": "address",
          "name": "wallet",
          "type": "address"
        },
        {
          "internalType": "string",
          "name": "audiogateway",
          "type": "string"
        },
        {
          "internalType": "string",
          "name": "coverartgateway",
          "type": "string"
        },
        {
          "internalType": "string",
          "name": "title",
          "type": "string"
        },
        {
          "internalType": "string",
          "name": "mainAuthor",
          "type": "string"
        },
        {
          "internalType": "string",
          "name": "authors",
          "type": "string"
        }
      ],
      "stateMutability": "view",
      "type": "function"
    },
    {
      "inputs": [],
      "name": "getAllAudio",
      "outputs": [
        {
          "components": [
            {
              "internalType": "uint256",
              "name": "id",
              "type": "uint256"
            },
            {
              "internalType": "uint256",
              "name": "amount",
              "type": "uint256"
            },
            {
              "internalType": "uint256",
              "name": "timestamp",
              "type": "uint256"
            },
            {
              "internalType": "address",
              "name": "wallet",
              "type": "address"
            },
            {
              "internalType": "string",
              "name": "audiogateway",
              "type": "string"
            },
            {
              "internalType": "string",
              "name": "coverartgateway",
              "type": "string"
            },
            {
              "internalType": "string",
              "name": "title",
              "type": "string"
            },
            {
              "internalType": "string",
              "name": "mainAuthor",
              "type": "string"
            },
            {
              "internalType": "string[]",
              "name": "tags",
              "type": "string[]"
            },
            {
              "internalType": "string[]",
              "name": "genres",
              "type": "string[]"
            },
            {
              "internalType": "string",
              "name": "authors",
              "type": "string"
            }
          ],
          "internalType": "struct Uptune.Audio[]",
          "name": "",
          "type": "tuple[]"
        }
      ],
      "stateMutability": "view",
      "type": "function"
    },
    {
      "inputs": [
        {
          "internalType": "uint256",
          "name": "_audioCount",
          "type": "uint256"
        }
      ],
      "name": "getOneAudio",
      "outputs": [
        {
          "components": [
            {
              "internalType": "uint256",
              "name": "id",
              "type": "uint256"
            },
            {
              "internalType": "uint256",
              "name": "amount",
              "type": "uint256"
            },
            {
              "internalType": "uint256",
              "name": "timestamp",
              "type": "uint256"
            },
            {
              "internalType": "address",
              "name": "wallet",
              "type": "address"
            },
            {
              "internalType": "string",
              "name": "audiogateway",
              "type": "string"
            },
            {
              "internalType": "string",
              "name": "coverartgateway",
              "type": "string"
            },
            {
              "internalType": "string",
              "name": "title",
              "type": "string"
            },
            {
              "internalType": "string",
              "name": "mainAuthor",
              "type": "string"
            },
            {
              "internalType": "string[]",
              "name": "tags",
              "type": "string[]"
            },
            {
              "internalType": "string[]",
              "name": "genres",
              "type": "string[]"
            },
            {
              "internalType": "string",
              "name": "authors",
              "type": "string"
            }
          ],
          "internalType": "struct Uptune.Audio",
          "name": "",
          "type": "tuple"
        }
      ],
      "stateMutability": "view",
      "type": "function"
    },
    {
      "inputs": [
        {
          "internalType": "uint256",
          "name": "_audioCount",
          "type": "uint256"
        },
        {
          "internalType": "uint256",
          "name": "_amount",
          "type": "uint256"
        }
      ],
      "name": "sendTip",
      "outputs": [],
      "stateMutability": "nonpayable",
      "type": "function"
    },
    {
      "inputs": [
        {
          "internalType": "string",
          "name": "_audiogateway",
          "type": "string"
        },
        {
          "internalType": "string",
          "name": "_coverartgateway",
          "type": "string"
        },
        {
          "internalType": "string",
          "name": "_mainAuthor",
          "type": "string"
        },
        {
          "internalType": "string",
          "name": "_title",
          "type": "string"
        },
        {
          "internalType": "string[]",
          "name": "_tags",
          "type": "string[]"
        },
        {
          "internalType": "string[]",
          "name": "_genres",
          "type": "string[]"
        },
        {
          "internalType": "string",
          "name": "_authors",
          "type": "string"
        }
      ],
      "name": "uploadAudio",
      "outputs": [],
      "stateMutability": "nonpayable",
      "type": "function"
    }
  ],
  "bytecode": "0x60806040526000805534801561001457600080fd5b50612116806100246000396000f3fe608060405234801561001057600080fd5b50600436106100625760003560e01c8063038421171461006757806338cb3b491461009757806356b808de146100b55780635ca3484b146100d35780636845c1c2146100ef578063cba211fa1461010b575b600080fd5b610081600480360381019061007c91906116a1565b610143565b60405161008e9190611b9e565b60405180910390f35b61009f610671565b6040516100ac9190611bc0565b60405180910390f35b6100bd610677565b6040516100ca9190611b7c565b60405180910390f35b6100ed60048036038101906100e891906116ca565b610c8f565b005b6101096004803603810190610104919061155b565b610cc0565b005b610125600480360381019061012091906116a1565b610f41565b60405161013a99989796959493929190611cb7565b60405180910390f35b61014b611257565b60016000838152602001908152602001600020604051806101600160405290816000820154815260200160018201548152602001600282015481526020016003820160009054906101000a900473ffffffffffffffffffffffffffffffffffffffff1673ffffffffffffffffffffffffffffffffffffffff1673ffffffffffffffffffffffffffffffffffffffff1681526020016004820180546101ee90611f7f565b80601f016020809104026020016040519081016040528092919081815260200182805461021a90611f7f565b80156102675780601f1061023c57610100808354040283529160200191610267565b820191906000526020600020905b81548152906001019060200180831161024a57829003601f168201915b5050505050815260200160058201805461028090611f7f565b80601f01602080910402602001604051908101604052809291908181526020018280546102ac90611f7f565b80156102f95780601f106102ce576101008083540402835291602001916102f9565b820191906000526020600020905b8154815290600101906020018083116102dc57829003601f168201915b5050505050815260200160068201805461031290611f7f565b80601f016020809104026020016040519081016040528092919081815260200182805461033e90611f7f565b801561038b5780601f106103605761010080835404028352916020019161038b565b820191906000526020600020905b81548152906001019060200180831161036e57829003601f168201915b505050505081526020016007820180546103a490611f7f565b80601f01602080910402602001604051908101604052809291908181526020018280546103d090611f7f565b801561041d5780601f106103f25761010080835404028352916020019161041d565b820191906000526020600020905b81548152906001019060200180831161040057829003601f168201915b5050505050815260200160088201805480602002602001604051908101604052809291908181526020016000905b828210156104f757838290600052602060002001805461046a90611f7f565b80601f016020809104026020016040519081016040528092919081815260200182805461049690611f7f565b80156104e35780601f106104b8576101008083540402835291602001916104e3565b820191906000526020600020905b8154815290600101906020018083116104c657829003601f168201915b50505050508152602001906001019061044b565b50505050815260200160098201805480602002602001604051908101604052809291908181526020016000905b828210156105d057838290600052602060002001805461054390611f7f565b80601f016020809104026020016040519081016040528092919081815260200182805461056f90611f7f565b80156105bc5780601f10610591576101008083540402835291602001916105bc565b820191906000526020600020905b81548152906001019060200180831161059f57829003601f168201915b505050505081526020019060010190610524565b505050508152602001600a820180546105e890611f7f565b80601f016020809104026020016040519081016040528092919081815260200182805461061490611f7f565b80156106615780601f1061063657610100808354040283529160200191610661565b820191906000526020600020905b81548152906001019060200180831161064457829003601f168201915b5050505050815250509050919050565b60005481565b60606000805467ffffffffffffffff8111156106bc577f4e487b7100000000000000000000000000000000000000000000000000000000600052604160045260246000fd5b6040519080825280602002602001820160405280156106f557816020015b6106e2611257565b8152602001906001900390816106da5790505b50905060005b600054811015610c8757600160006001836107169190611e99565b8152602001908152602001600020604051806101600160405290816000820154815260200160018201548152602001600282015481526020016003820160009054906101000a900473ffffffffffffffffffffffffffffffffffffffff1673ffffffffffffffffffffffffffffffffffffffff1673ffffffffffffffffffffffffffffffffffffffff1681526020016004820180546107b490611f7f565b80601f01602080910402602001604051908101604052809291908181526020018280546107e090611f7f565b801561082d5780601f106108025761010080835404028352916020019161082d565b820191906000526020600020905b81548152906001019060200180831161081057829003601f168201915b5050505050815260200160058201805461084690611f7f565b80601f016020809104026020016040519081016040528092919081815260200182805461087290611f7f565b80156108bf5780601f10610894576101008083540402835291602001916108bf565b820191906000526020600020905b8154815290600101906020018083116108a257829003601f168201915b505050505081526020016006820180546108d890611f7f565b80601f016020809104026020016040519081016040528092919081815260200182805461090490611f7f565b80156109515780601f1061092657610100808354040283529160200191610951565b820191906000526020600020905b81548152906001019060200180831161093457829003601f168201915b5050505050815260200160078201805461096a90611f7f565b80601f016020809104026020016040519081016040528092919081815260200182805461099690611f7f565b80156109e35780601f106109b8576101008083540402835291602001916109e3565b820191906000526020600020905b8154815290600101906020018083116109c657829003601f168201915b5050505050815260200160088201805480602002602001604051908101604052809291908181526020016000905b82821015610abd578382906000526020600020018054610a3090611f7f565b80601f0160208091040260200160405190810160405280929190818152602001828054610a5c90611f7f565b8015610aa95780601f10610a7e57610100808354040283529160200191610aa9565b820191906000526020600020905b815481529060010190602001808311610a8c57829003601f168201915b505050505081526020019060010190610a11565b50505050815260200160098201805480602002602001604051908101604052809291908181526020016000905b82821015610b96578382906000526020600020018054610b0990611f7f565b80601f0160208091040260200160405190810160405280929190818152602001828054610b3590611f7f565b8015610b825780601f10610b5757610100808354040283529160200191610b82565b820191906000526020600020905b815481529060010190602001808311610b6557829003601f168201915b505050505081526020019060010190610aea565b505050508152602001600a82018054610bae90611f7f565b80601f0160208091040260200160405190810160405280929190818152602001828054610bda90611f7f565b8015610c275780601f10610bfc57610100808354040283529160200191610c27565b820191906000526020600020905b815481529060010190602001808311610c0a57829003601f168201915b505050505081525050828281518110610c69577f4e487b7100000000000000000000000000000000000000000000000000000000600052603260045260246000fd5b60200260200101819052508080610c7f90611fe2565b9150506106fb565b508091505090565b80600160008481526020019081526020016000206001016000828254610cb59190611e99565b925050819055505050565b6000875111610cce57600080fd5b6000865111610cdc57600080fd5b6000845111610cea57600080fd5b600073ffffffffffffffffffffffffffffffffffffffff163373ffffffffffffffffffffffffffffffffffffffff161415610d2457600080fd5b600080815480929190610d3690611fe2565b91905055506040518061016001604052806000548152602001600081526020014281526020013373ffffffffffffffffffffffffffffffffffffffff16815260200188815260200187815260200186815260200185815260200184815260200183815260200182815250600160008054815260200190815260200160002060008201518160000155602082015181600101556040820151816002015560608201518160030160006101000a81548173ffffffffffffffffffffffffffffffffffffffff021916908373ffffffffffffffffffffffffffffffffffffffff1602179055506080820151816004019080519060200190610e359291906112c7565b5060a0820151816005019080519060200190610e529291906112c7565b5060c0820151816006019080519060200190610e6f9291906112c7565b5060e0820151816007019080519060200190610e8c9291906112c7565b50610100820151816008019080519060200190610eaa92919061134d565b50610120820151816009019080519060200190610ec892919061134d565b5061014082015181600a019080519060200190610ee69291906112c7565b509050507fa1fc5cdd23c6b76a608f4da38b2f26d481221787014b35c06cf86618b2e8d044600054600042338b8b8b8b8b8b8b604051610f309b9a99989796959493929190611bdb565b60405180910390a150505050505050565b60016020528060005260406000206000915090508060000154908060010154908060020154908060030160009054906101000a900473ffffffffffffffffffffffffffffffffffffffff1690806004018054610f9c90611f7f565b80601f0160208091040260200160405190810160405280929190818152602001828054610fc890611f7f565b80156110155780601f10610fea57610100808354040283529160200191611015565b820191906000526020600020905b815481529060010190602001808311610ff857829003601f168201915b50505050509080600501805461102a90611f7f565b80601f016020809104026020016040519081016040528092919081815260200182805461105690611f7f565b80156110a35780601f10611078576101008083540402835291602001916110a3565b820191906000526020600020905b81548152906001019060200180831161108657829003601f168201915b5050505050908060060180546110b890611f7f565b80601f01602080910402602001604051908101604052809291908181526020018280546110e490611f7f565b80156111315780601f1061110657610100808354040283529160200191611131565b820191906000526020600020905b81548152906001019060200180831161111457829003601f168201915b50505050509080600701805461114690611f7f565b80601f016020809104026020016040519081016040528092919081815260200182805461117290611f7f565b80156111bf5780601f10611194576101008083540402835291602001916111bf565b820191906000526020600020905b8154815290600101906020018083116111a257829003601f168201915b50505050509080600a0180546111d490611f7f565b80601f016020809104026020016040519081016040528092919081815260200182805461120090611f7f565b801561124d5780601f106112225761010080835404028352916020019161124d565b820191906000526020600020905b81548152906001019060200180831161123057829003601f168201915b5050505050905089565b604051806101600160405280600081526020016000815260200160008152602001600073ffffffffffffffffffffffffffffffffffffffff168152602001606081526020016060815260200160608152602001606081526020016060815260200160608152602001606081525090565b8280546112d390611f7f565b90600052602060002090601f0160209004810192826112f5576000855561133c565b82601f1061130e57805160ff191683800117855561133c565b8280016001018555821561133c579182015b8281111561133b578251825591602001919060010190611320565b5b50905061134991906113ad565b5090565b82805482825590600052602060002090810192821561139c579160200282015b8281111561139b57825182908051906020019061138b9291906112c7565b509160200191906001019061136d565b5b5090506113a991906113ca565b5090565b5b808211156113c65760008160009055506001016113ae565b5090565b5b808211156113ea57600081816113e191906113ee565b506001016113cb565b5090565b5080546113fa90611f7f565b6000825580601f1061140c575061142b565b601f01602090049060005260206000209081019061142a91906113ad565b5b50565b600061144161143c84611d8c565b611d67565b9050808382526020820190508285602086028201111561146057600080fd5b60005b858110156114aa57813567ffffffffffffffff81111561148257600080fd5b80860161148f898261151c565b85526020850194506020840193505050600181019050611463565b5050509392505050565b60006114c76114c284611db8565b611d67565b9050828152602081018484840111156114df57600080fd5b6114ea848285611f3d565b509392505050565b600082601f83011261150357600080fd5b813561151384826020860161142e565b91505092915050565b600082601f83011261152d57600080fd5b813561153d8482602086016114b4565b91505092915050565b600081359050611555816120c9565b92915050565b600080600080600080600060e0888a03121561157657600080fd5b600088013567ffffffffffffffff81111561159057600080fd5b61159c8a828b0161151c565b975050602088013567ffffffffffffffff8111156115b957600080fd5b6115c58a828b0161151c565b965050604088013567ffffffffffffffff8111156115e257600080fd5b6115ee8a828b0161151c565b955050606088013567ffffffffffffffff81111561160b57600080fd5b6116178a828b0161151c565b945050608088013567ffffffffffffffff81111561163457600080fd5b6116408a828b016114f2565b93505060a088013567ffffffffffffffff81111561165d57600080fd5b6116698a828b016114f2565b92505060c088013567ffffffffffffffff81111561168657600080fd5b6116928a828b0161151c565b91505092959891949750929550565b6000602082840312156116b357600080fd5b60006116c184828501611546565b91505092915050565b600080604083850312156116dd57600080fd5b60006116eb85828601611546565b92505060206116fc85828601611546565b9150509250929050565b600061171283836118ba565b905092915050565b6000611726838361192c565b905092915050565b61173781611eef565b82525050565b61174681611eef565b82525050565b600061175782611e09565b6117618185611e44565b93508360208202850161177385611de9565b8060005b858110156117af57848403895281516117908582611706565b945061179b83611e2a565b925060208a01995050600181019050611777565b50829750879550505050505092915050565b60006117cc82611e09565b6117d68185611e55565b9350836020820285016117e885611de9565b8060005b8581101561182457848403895281516118058582611706565b945061181083611e2a565b925060208a019950506001810190506117ec565b50829750879550505050505092915050565b600061184182611e14565b61184b8185611e66565b93508360208202850161185d85611df9565b8060005b85811015611899578484038952815161187a858261171a565b945061188583611e37565b925060208a01995050600181019050611861565b50829750879550505050505092915050565b6118b481611f2b565b82525050565b60006118c582611e1f565b6118cf8185611e77565b93506118df818560208601611f4c565b6118e8816120b8565b840191505092915050565b60006118fe82611e1f565b6119088185611e88565b9350611918818560208601611f4c565b611921816120b8565b840191505092915050565b6000610160830160008301516119456000860182611b5e565b5060208301516119586020860182611b5e565b50604083015161196b6040860182611b5e565b50606083015161197e606086018261172e565b506080830151848203608086015261199682826118ba565b91505060a083015184820360a08601526119b082826118ba565b91505060c083015184820360c08601526119ca82826118ba565b91505060e083015184820360e08601526119e482826118ba565b915050610100830151848203610100860152611a00828261174c565b915050610120830151848203610120860152611a1c828261174c565b915050610140830151848203610140860152611a3882826118ba565b9150508091505092915050565b600061016083016000830151611a5e6000860182611b5e565b506020830151611a716020860182611b5e565b506040830151611a846040860182611b5e565b506060830151611a97606086018261172e565b5060808301518482036080860152611aaf82826118ba565b91505060a083015184820360a0860152611ac982826118ba565b91505060c083015184820360c0860152611ae382826118ba565b91505060e083015184820360e0860152611afd82826118ba565b915050610100830151848203610100860152611b19828261174c565b915050610120830151848203610120860152611b35828261174c565b915050610140830151848203610140860152611b5182826118ba565b9150508091505092915050565b611b6781611f21565b82525050565b611b7681611f21565b82525050565b60006020820190508181036000830152611b968184611836565b905092915050565b60006020820190508181036000830152611bb88184611a45565b905092915050565b6000602082019050611bd56000830184611b6d565b92915050565b600061016082019050611bf1600083018e611b6d565b611bfe602083018d6118ab565b611c0b604083018c611b6d565b611c18606083018b61173d565b8181036080830152611c2a818a6118f3565b905081810360a0830152611c3e81896118f3565b905081810360c0830152611c5281886118f3565b905081810360e0830152611c6681876118f3565b9050818103610100830152611c7b81866117c1565b9050818103610120830152611c9081856117c1565b9050818103610140830152611ca581846118f3565b90509c9b505050505050505050505050565b600061012082019050611ccd600083018c611b6d565b611cda602083018b611b6d565b611ce7604083018a611b6d565b611cf4606083018961173d565b8181036080830152611d0681886118f3565b905081810360a0830152611d1a81876118f3565b905081810360c0830152611d2e81866118f3565b905081810360e0830152611d4281856118f3565b9050818103610100830152611d5781846118f3565b90509a9950505050505050505050565b6000611d71611d82565b9050611d7d8282611fb1565b919050565b6000604051905090565b600067ffffffffffffffff821115611da757611da6612089565b5b602082029050602081019050919050565b600067ffffffffffffffff821115611dd357611dd2612089565b5b611ddc826120b8565b9050602081019050919050565b6000819050602082019050919050565b6000819050602082019050919050565b600081519050919050565b600081519050919050565b600081519050919050565b6000602082019050919050565b6000602082019050919050565b600082825260208201905092915050565b600082825260208201905092915050565b600082825260208201905092915050565b600082825260208201905092915050565b600082825260208201905092915050565b6000611ea482611f21565b9150611eaf83611f21565b9250827fffffffffffffffffffffffffffffffffffffffffffffffffffffffffffffffff03821115611ee457611ee361202b565b5b828201905092915050565b6000611efa82611f01565b9050919050565b600073ffffffffffffffffffffffffffffffffffffffff82169050919050565b6000819050919050565b6000611f3682611f21565b9050919050565b82818337600083830152505050565b60005b83811015611f6a578082015181840152602081019050611f4f565b83811115611f79576000848401525b50505050565b60006002820490506001821680611f9757607f821691505b60208210811415611fab57611faa61205a565b5b50919050565b611fba826120b8565b810181811067ffffffffffffffff82111715611fd957611fd8612089565b5b80604052505050565b6000611fed82611f21565b91507fffffffffffffffffffffffffffffffffffffffffffffffffffffffffffffffff8214156120205761201f61202b565b5b600182019050919050565b7f4e487b7100000000000000000000000000000000000000000000000000000000600052601160045260246000fd5b7f4e487b7100000000000000000000000000000000000000000000000000000000600052602260045260246000fd5b7f4e487b7100000000000000000000000000000000000000000000000000000000600052604160045260246000fd5b6000601f19601f8301169050919050565b6120d281611f21565b81146120dd57600080fd5b5056fea26469706673582212204c8cfdcf00e508871f940df12747af1534a44548630410dc315bdbd24683309b64736f6c63430008040033",
  "linkReferences": {},
  "deployedLinkReferences": {}
}