{
  "_format": "hh-sol-artifact-1",
  "contractName": "Uptune",
  "sourceName": "contracts/Uptune.sol",
  "abi": [
    {
      "anonymous": false,
      "inputs": [
        {
          "indexed": false,
          "internalType": "uint256",
          "name": "id",
          "type": "uint256"
        },
        {
          "indexed": false,
          "internalType": "string",
          "name": "uuid",
          "type": "string"
        },
        {
          "indexed": false,
          "internalType": "uint256",
          "name": "amount",
          "type": "uint256"
        },
        {
          "indexed": false,
          "internalType": "uint256",
          "name": "timestamp",
          "type": "uint256"
        },
        {
          "indexed": false,
          "internalType": "address",
          "name": "wallet",
          "type": "address"
        },
        {
          "indexed": false,
          "internalType": "string",
          "name": "audiogateway",
          "type": "string"
        },
        {
          "indexed": false,
          "internalType": "string",
          "name": "coverartgateway",
          "type": "string"
        },
        {
          "indexed": false,
          "internalType": "string",
          "name": "title",
          "type": "string"
        },
        {
          "indexed": false,
          "internalType": "string",
          "name": "mainAuthor",
          "type": "string"
        },
        {
          "indexed": false,
          "internalType": "string[]",
          "name": "tags",
          "type": "string[]"
        },
        {
          "indexed": false,
          "internalType": "string[]",
          "name": "genres",
          "type": "string[]"
        },
        {
          "indexed": false,
          "internalType": "string",
          "name": "authors",
          "type": "string"
        }
      ],
      "name": "AudioUploaded",
      "type": "event"
    },
    {
      "inputs": [
        {
          "internalType": "address",
          "name": "_add",
          "type": "address"
        }
      ],
      "name": "artistExists",
      "outputs": [
        {
          "internalType": "bool",
          "name": "",
          "type": "bool"
        }
      ],
      "stateMutability": "view",
      "type": "function"
    },
    {
      "inputs": [
        {
          "internalType": "address",
          "name": "",
          "type": "address"
        }
      ],
      "name": "artists",
      "outputs": [
        {
          "internalType": "address",
          "name": "id",
          "type": "address"
        },
        {
          "internalType": "string",
          "name": "artistID",
          "type": "string"
        },
        {
          "internalType": "string",
          "name": "artist",
          "type": "string"
        },
        {
          "internalType": "string",
          "name": "profilegateway",
          "type": "string"
        }
      ],
      "stateMutability": "view",
      "type": "function"
    },
    {
      "inputs": [],
      "name": "audioCount",
      "outputs": [
        {
          "internalType": "uint256",
          "name": "",
          "type": "uint256"
        }
      ],
      "stateMutability": "view",
      "type": "function"
    },
    {
      "inputs": [
        {
          "internalType": "uint256",
          "name": "",
          "type": "uint256"
        }
      ],
      "name": "audios",
      "outputs": [
        {
          "internalType": "uint256",
          "name": "id",
          "type": "uint256"
        },
        {
          "internalType": "string",
          "name": "uuid",
          "type": "string"
        },
        {
          "internalType": "uint256",
          "name": "amount",
          "type": "uint256"
        },
        {
          "internalType": "uint256",
          "name": "timestamp",
          "type": "uint256"
        },
        {
          "internalType": "address",
          "name": "wallet",
          "type": "address"
        },
        {
          "internalType": "string",
          "name": "audiogateway",
          "type": "string"
        },
        {
          "internalType": "string",
          "name": "coverartgateway",
          "type": "string"
        },
        {
          "internalType": "string",
          "name": "title",
          "type": "string"
        },
        {
          "internalType": "string",
          "name": "mainAuthor",
          "type": "string"
        },
        {
          "internalType": "string",
          "name": "authors",
          "type": "string"
        }
      ],
      "stateMutability": "view",
      "type": "function"
    },
    {
      "inputs": [
        {
          "internalType": "uint256",
          "name": "",
          "type": "uint256"
        }
      ],
      "name": "comments",
      "outputs": [
        {
          "internalType": "uint256",
          "name": "id",
          "type": "uint256"
        }
      ],
      "stateMutability": "view",
      "type": "function"
    },
    {
      "inputs": [
        {
          "internalType": "string",
          "name": "_artistID",
          "type": "string"
        },
        {
          "internalType": "string",
          "name": "_artist",
          "type": "string"
        },
        {
          "internalType": "string",
          "name": "_artistgateway",
          "type": "string"
        }
      ],
      "name": "createArtist",
      "outputs": [],
      "stateMutability": "nonpayable",
      "type": "function"
    },
    {
      "inputs": [],
      "name": "getAllAudio",
      "outputs": [
        {
          "components": [
            {
              "internalType": "uint256",
              "name": "id",
              "type": "uint256"
            },
            {
              "internalType": "string",
              "name": "uuid",
              "type": "string"
            },
            {
              "internalType": "uint256",
              "name": "amount",
              "type": "uint256"
            },
            {
              "internalType": "uint256",
              "name": "timestamp",
              "type": "uint256"
            },
            {
              "internalType": "address",
              "name": "wallet",
              "type": "address"
            },
            {
              "internalType": "string",
              "name": "audiogateway",
              "type": "string"
            },
            {
              "internalType": "string",
              "name": "coverartgateway",
              "type": "string"
            },
            {
              "internalType": "string",
              "name": "title",
              "type": "string"
            },
            {
              "internalType": "string",
              "name": "mainAuthor",
              "type": "string"
            },
            {
              "internalType": "string[]",
              "name": "tags",
              "type": "string[]"
            },
            {
              "internalType": "string[]",
              "name": "genres",
              "type": "string[]"
            },
            {
              "internalType": "string",
              "name": "authors",
              "type": "string"
            }
          ],
          "internalType": "struct Uptune.Audio[]",
          "name": "",
          "type": "tuple[]"
        }
      ],
      "stateMutability": "view",
      "type": "function"
    },
    {
      "inputs": [
        {
          "internalType": "uint256",
          "name": "_id",
          "type": "uint256"
        }
      ],
      "name": "getAllComments",
      "outputs": [
        {
          "components": [
            {
              "internalType": "uint256",
              "name": "id",
              "type": "uint256"
            },
            {
              "internalType": "string[]",
              "name": "comment",
              "type": "string[]"
            },
            {
              "internalType": "uint256[]",
              "name": "amount",
              "type": "uint256[]"
            },
            {
              "internalType": "uint256[]",
              "name": "timestamp",
              "type": "uint256[]"
            }
          ],
          "internalType": "struct Uptune.Comment",
          "name": "",
          "type": "tuple"
        }
      ],
      "stateMutability": "view",
      "type": "function"
    },
    {
      "inputs": [
        {
          "internalType": "address",
          "name": "_add",
          "type": "address"
        }
      ],
      "name": "getArtist",
      "outputs": [
        {
          "components": [
            {
              "internalType": "address",
              "name": "id",
              "type": "address"
            },
            {
              "internalType": "string[]",
              "name": "songs",
              "type": "string[]"
            },
            {
              "internalType": "string",
              "name": "artistID",
              "type": "string"
            },
            {
              "internalType": "string",
              "name": "artist",
              "type": "string"
            },
            {
              "internalType": "string",
              "name": "profilegateway",
              "type": "string"
            }
          ],
          "internalType": "struct Uptune.Artist",
          "name": "",
          "type": "tuple"
        }
      ],
      "stateMutability": "view",
      "type": "function"
    },
    {
      "inputs": [
        {
          "internalType": "string[]",
          "name": "_songs",
          "type": "string[]"
        }
      ],
      "name": "getMultipleAudio",
      "outputs": [
        {
          "components": [
            {
              "internalType": "uint256",
              "name": "id",
              "type": "uint256"
            },
            {
              "internalType": "string",
              "name": "uuid",
              "type": "string"
            },
            {
              "internalType": "uint256",
              "name": "amount",
              "type": "uint256"
            },
            {
              "internalType": "uint256",
              "name": "timestamp",
              "type": "uint256"
            },
            {
              "internalType": "address",
              "name": "wallet",
              "type": "address"
            },
            {
              "internalType": "string",
              "name": "audiogateway",
              "type": "string"
            },
            {
              "internalType": "string",
              "name": "coverartgateway",
              "type": "string"
            },
            {
              "internalType": "string",
              "name": "title",
              "type": "string"
            },
            {
              "internalType": "string",
              "name": "mainAuthor",
              "type": "string"
            },
            {
              "internalType": "string[]",
              "name": "tags",
              "type": "string[]"
            },
            {
              "internalType": "string[]",
              "name": "genres",
              "type": "string[]"
            },
            {
              "internalType": "string",
              "name": "authors",
              "type": "string"
            }
          ],
          "internalType": "struct Uptune.Audio[]",
          "name": "",
          "type": "tuple[]"
        }
      ],
      "stateMutability": "view",
      "type": "function"
    },
    {
      "inputs": [
        {
          "internalType": "string",
          "name": "_uuid",
          "type": "string"
        }
      ],
      "name": "getOneAudio",
      "outputs": [
        {
          "components": [
            {
              "internalType": "uint256",
              "name": "id",
              "type": "uint256"
            },
            {
              "internalType": "string",
              "name": "uuid",
              "type": "string"
            },
            {
              "internalType": "uint256",
              "name": "amount",
              "type": "uint256"
            },
            {
              "internalType": "uint256",
              "name": "timestamp",
              "type": "uint256"
            },
            {
              "internalType": "address",
              "name": "wallet",
              "type": "address"
            },
            {
              "internalType": "string",
              "name": "audiogateway",
              "type": "string"
            },
            {
              "internalType": "string",
              "name": "coverartgateway",
              "type": "string"
            },
            {
              "internalType": "string",
              "name": "title",
              "type": "string"
            },
            {
              "internalType": "string",
              "name": "mainAuthor",
              "type": "string"
            },
            {
              "internalType": "string[]",
              "name": "tags",
              "type": "string[]"
            },
            {
              "internalType": "string[]",
              "name": "genres",
              "type": "string[]"
            },
            {
              "internalType": "string",
              "name": "authors",
              "type": "string"
            }
          ],
          "internalType": "struct Uptune.Audio",
          "name": "",
          "type": "tuple"
        }
      ],
      "stateMutability": "view",
      "type": "function"
    },
    {
      "inputs": [
        {
          "internalType": "uint256",
          "name": "_id",
          "type": "uint256"
        },
        {
          "internalType": "uint256",
          "name": "_amount",
          "type": "uint256"
        },
        {
          "internalType": "string",
          "name": "_message",
          "type": "string"
        }
      ],
      "name": "sendTip",
      "outputs": [],
      "stateMutability": "nonpayable",
      "type": "function"
    },
    {
      "inputs": [
        {
          "internalType": "string",
          "name": "_uuid",
          "type": "string"
        },
        {
          "internalType": "string",
          "name": "_audiogateway",
          "type": "string"
        },
        {
          "internalType": "string",
          "name": "_coverartgateway",
          "type": "string"
        },
        {
          "internalType": "string",
          "name": "_mainAuthor",
          "type": "string"
        },
        {
          "internalType": "string",
          "name": "_title",
          "type": "string"
        },
        {
          "internalType": "string[]",
          "name": "_tags",
          "type": "string[]"
        },
        {
          "internalType": "string[]",
          "name": "_genres",
          "type": "string[]"
        },
        {
          "internalType": "string",
          "name": "_authors",
          "type": "string"
        }
      ],
      "name": "uploadAudio",
      "outputs": [],
      "stateMutability": "nonpayable",
      "type": "function"
    },
    {
      "inputs": [
        {
          "internalType": "string",
          "name": "",
          "type": "string"
        }
      ],
      "name": "uuidToId",
      "outputs": [
        {
          "internalType": "uint256",
          "name": "",
          "type": "uint256"
        }
      ],
      "stateMutability": "view",
      "type": "function"
    }
  ],
  "bytecode": "0x60806040526000805534801561001457600080fd5b50613bf5806100246000396000f3fe608060405234801561001057600080fd5b50600436106100ea5760003560e01c80638d1783411161008c578063b949c80411610066578063b949c8041461029a578063c65f47b5146102ca578063cba211fa146102e6578063f0339d881461031f576100ea565b80638d1783411461020a5780638ebb4c151461023a5780639117b16b1461026a576100ea565b806338cb3b49116100c857806338cb3b491461016e5780633bee24951461018c57806356b808de146101bc5780636562d2cf146101da576100ea565b806303926df9146100ef578063069dab8f1461011f57806310afc0cf14610152575b600080fd5b61010960048036038101906101049190612e08565b61033b565b60405161011691906135ea565b60405180910390f35b61013960048036038101906101349190612b54565b6104fb565b604051610149949392919061350f565b60405180910390f35b61016c60048036038101906101679190612bff565b6106e3565b005b61017661086e565b604051610183919061360c565b60405180910390f35b6101a660048036038101906101a19190612b7d565b610874565b6040516101b39190613569565b60405180910390f35b6101c4610f71565b6040516101d19190613569565b60405180910390f35b6101f460048036038101906101ef9190612bbe565b61161b565b604051610201919061360c565b60405180910390f35b610224600480360381019061021f9190612bbe565b611649565b60405161023191906135c8565b60405180910390f35b610254600480360381019061024f9190612e08565b611c27565b604051610261919061360c565b60405180910390f35b610284600480360381019061027f9190612b54565b611c45565b604051610291919061358b565b60405180910390f35b6102b460048036038101906102af9190612b54565b611ca0565b6040516102c191906135a6565b60405180910390f35b6102e460048036038101906102df9190612c96565b611fde565b005b61030060048036038101906102fb9190612e08565b612327565b6040516103169a99989796959493929190613719565b60405180910390f35b61033960048036038101906103349190612e31565b6126cb565b005b6103436127c7565b600260008381526020019081526020016000206040518060800160405290816000820154815260200160018201805480602002602001604051908101604052809291908181526020016000905b8282101561043c5783829060005260206000200180546103af90613a47565b80601f01602080910402602001604051908101604052809291908181526020018280546103db90613a47565b80156104285780601f106103fd57610100808354040283529160200191610428565b820191906000526020600020905b81548152906001019060200180831161040b57829003601f168201915b505050505081526020019060010190610390565b5050505081526020016002820180548060200260200160405190810160405280929190818152602001828054801561049357602002820191906000526020600020905b81548152602001906001019080831161047f575b50505050508152602001600382018054806020026020016040519081016040528092919081815260200182805480156104eb57602002820191906000526020600020905b8154815260200190600101908083116104d7575b5050505050815250509050919050565b60036020528060005260406000206000915090508060000160009054906101000a900473ffffffffffffffffffffffffffffffffffffffff169080600201805461054490613a47565b80601f016020809104026020016040519081016040528092919081815260200182805461057090613a47565b80156105bd5780601f10610592576101008083540402835291602001916105bd565b820191906000526020600020905b8154815290600101906020018083116105a057829003601f168201915b5050505050908060030180546105d290613a47565b80601f01602080910402602001604051908101604052809291908181526020018280546105fe90613a47565b801561064b5780601f106106205761010080835404028352916020019161064b565b820191906000526020600020905b81548152906001019060200180831161062e57829003601f168201915b50505050509080600401805461066090613a47565b80601f016020809104026020016040519081016040528092919081815260200182805461068c90613a47565b80156106d95780601f106106ae576101008083540402835291602001916106d9565b820191906000526020600020905b8154815290600101906020018083116106bc57829003601f168201915b5050505050905084565b33600360003373ffffffffffffffffffffffffffffffffffffffff1673ffffffffffffffffffffffffffffffffffffffff16815260200190815260200160002060000160006101000a81548173ffffffffffffffffffffffffffffffffffffffff021916908373ffffffffffffffffffffffffffffffffffffffff16021790555082600360003373ffffffffffffffffffffffffffffffffffffffff1673ffffffffffffffffffffffffffffffffffffffff16815260200190815260200160002060020190805190602001906107ba9291906127ef565b5081600360003373ffffffffffffffffffffffffffffffffffffffff1673ffffffffffffffffffffffffffffffffffffffff16815260200190815260200160002060030190805190602001906108119291906127ef565b5080600360003373ffffffffffffffffffffffffffffffffffffffff1673ffffffffffffffffffffffffffffffffffffffff16815260200190815260200160002060040190805190602001906108689291906127ef565b50505050565b60005481565b60606000825167ffffffffffffffff8111156108b9577f4e487b7100000000000000000000000000000000000000000000000000000000600052604160045260246000fd5b6040519080825280602002602001820160405280156108f257816020015b6108df612875565b8152602001906001900390816108d75790505b50905060005b8351811015610f6757600160006004868481518110610940577f4e487b7100000000000000000000000000000000000000000000000000000000600052603260045260246000fd5b602002602001015160405161095591906134f8565b9081526020016040518091039020548152602001908152602001600020604051806101800160405290816000820154815260200160018201805461099890613a47565b80601f01602080910402602001604051908101604052809291908181526020018280546109c490613a47565b8015610a115780601f106109e657610100808354040283529160200191610a11565b820191906000526020600020905b8154815290600101906020018083116109f457829003601f168201915b5050505050815260200160028201548152602001600382015481526020016004820160009054906101000a900473ffffffffffffffffffffffffffffffffffffffff1673ffffffffffffffffffffffffffffffffffffffff1673ffffffffffffffffffffffffffffffffffffffff168152602001600582018054610a9490613a47565b80601f0160208091040260200160405190810160405280929190818152602001828054610ac090613a47565b8015610b0d5780601f10610ae257610100808354040283529160200191610b0d565b820191906000526020600020905b815481529060010190602001808311610af057829003601f168201915b50505050508152602001600682018054610b2690613a47565b80601f0160208091040260200160405190810160405280929190818152602001828054610b5290613a47565b8015610b9f5780601f10610b7457610100808354040283529160200191610b9f565b820191906000526020600020905b815481529060010190602001808311610b8257829003601f168201915b50505050508152602001600782018054610bb890613a47565b80601f0160208091040260200160405190810160405280929190818152602001828054610be490613a47565b8015610c315780601f10610c0657610100808354040283529160200191610c31565b820191906000526020600020905b815481529060010190602001808311610c1457829003601f168201915b50505050508152602001600882018054610c4a90613a47565b80601f0160208091040260200160405190810160405280929190818152602001828054610c7690613a47565b8015610cc35780601f10610c9857610100808354040283529160200191610cc3565b820191906000526020600020905b815481529060010190602001808311610ca657829003601f168201915b5050505050815260200160098201805480602002602001604051908101604052809291908181526020016000905b82821015610d9d578382906000526020600020018054610d1090613a47565b80601f0160208091040260200160405190810160405280929190818152602001828054610d3c90613a47565b8015610d895780601f10610d5e57610100808354040283529160200191610d89565b820191906000526020600020905b815481529060010190602001808311610d6c57829003601f168201915b505050505081526020019060010190610cf1565b505050508152602001600a8201805480602002602001604051908101604052809291908181526020016000905b82821015610e76578382906000526020600020018054610de990613a47565b80601f0160208091040260200160405190810160405280929190818152602001828054610e1590613a47565b8015610e625780601f10610e3757610100808354040283529160200191610e62565b820191906000526020600020905b815481529060010190602001808311610e4557829003601f168201915b505050505081526020019060010190610dca565b505050508152602001600b82018054610e8e90613a47565b80601f0160208091040260200160405190810160405280929190818152602001828054610eba90613a47565b8015610f075780601f10610edc57610100808354040283529160200191610f07565b820191906000526020600020905b815481529060010190602001808311610eea57829003601f168201915b505050505081525050828281518110610f49577f4e487b7100000000000000000000000000000000000000000000000000000000600052603260045260246000fd5b60200260200101819052508080610f5f90613aaa565b9150506108f8565b5080915050919050565b60606000805467ffffffffffffffff811115610fb6577f4e487b7100000000000000000000000000000000000000000000000000000000600052604160045260246000fd5b604051908082528060200260200182016040528015610fef57816020015b610fdc612875565b815260200190600190039081610fd45790505b50905060005b60005481101561161357600160006001836110109190613955565b8152602001908152602001600020604051806101800160405290816000820154815260200160018201805461104490613a47565b80601f016020809104026020016040519081016040528092919081815260200182805461107090613a47565b80156110bd5780601f10611092576101008083540402835291602001916110bd565b820191906000526020600020905b8154815290600101906020018083116110a057829003601f168201915b5050505050815260200160028201548152602001600382015481526020016004820160009054906101000a900473ffffffffffffffffffffffffffffffffffffffff1673ffffffffffffffffffffffffffffffffffffffff1673ffffffffffffffffffffffffffffffffffffffff16815260200160058201805461114090613a47565b80601f016020809104026020016040519081016040528092919081815260200182805461116c90613a47565b80156111b95780601f1061118e576101008083540402835291602001916111b9565b820191906000526020600020905b81548152906001019060200180831161119c57829003601f168201915b505050505081526020016006820180546111d290613a47565b80601f01602080910402602001604051908101604052809291908181526020018280546111fe90613a47565b801561124b5780601f106112205761010080835404028352916020019161124b565b820191906000526020600020905b81548152906001019060200180831161122e57829003601f168201915b5050505050815260200160078201805461126490613a47565b80601f016020809104026020016040519081016040528092919081815260200182805461129090613a47565b80156112dd5780601f106112b2576101008083540402835291602001916112dd565b820191906000526020600020905b8154815290600101906020018083116112c057829003601f168201915b505050505081526020016008820180546112f690613a47565b80601f016020809104026020016040519081016040528092919081815260200182805461132290613a47565b801561136f5780601f106113445761010080835404028352916020019161136f565b820191906000526020600020905b81548152906001019060200180831161135257829003601f168201915b5050505050815260200160098201805480602002602001604051908101604052809291908181526020016000905b828210156114495783829060005260206000200180546113bc90613a47565b80601f01602080910402602001604051908101604052809291908181526020018280546113e890613a47565b80156114355780601f1061140a57610100808354040283529160200191611435565b820191906000526020600020905b81548152906001019060200180831161141857829003601f168201915b50505050508152602001906001019061139d565b505050508152602001600a8201805480602002602001604051908101604052809291908181526020016000905b8282101561152257838290600052602060002001805461149590613a47565b80601f01602080910402602001604051908101604052809291908181526020018280546114c190613a47565b801561150e5780601f106114e35761010080835404028352916020019161150e565b820191906000526020600020905b8154815290600101906020018083116114f157829003601f168201915b505050505081526020019060010190611476565b505050508152602001600b8201805461153a90613a47565b80601f016020809104026020016040519081016040528092919081815260200182805461156690613a47565b80156115b35780601f10611588576101008083540402835291602001916115b3565b820191906000526020600020905b81548152906001019060200180831161159657829003601f168201915b5050505050815250508282815181106115f5577f4e487b7100000000000000000000000000000000000000000000000000000000600052603260045260246000fd5b6020026020010181905250808061160b90613aaa565b915050610ff5565b508091505090565b6004818051602081018201805184825260208301602085012081835280955050505050506000915090505481565b611651612875565b6001600060048460405161166591906134f8565b908152602001604051809103902054815260200190815260200160002060405180610180016040529081600082015481526020016001820180546116a890613a47565b80601f01602080910402602001604051908101604052809291908181526020018280546116d490613a47565b80156117215780601f106116f657610100808354040283529160200191611721565b820191906000526020600020905b81548152906001019060200180831161170457829003601f168201915b5050505050815260200160028201548152602001600382015481526020016004820160009054906101000a900473ffffffffffffffffffffffffffffffffffffffff1673ffffffffffffffffffffffffffffffffffffffff1673ffffffffffffffffffffffffffffffffffffffff1681526020016005820180546117a490613a47565b80601f01602080910402602001604051908101604052809291908181526020018280546117d090613a47565b801561181d5780601f106117f25761010080835404028352916020019161181d565b820191906000526020600020905b81548152906001019060200180831161180057829003601f168201915b5050505050815260200160068201805461183690613a47565b80601f016020809104026020016040519081016040528092919081815260200182805461186290613a47565b80156118af5780601f10611884576101008083540402835291602001916118af565b820191906000526020600020905b81548152906001019060200180831161189257829003601f168201915b505050505081526020016007820180546118c890613a47565b80601f01602080910402602001604051908101604052809291908181526020018280546118f490613a47565b80156119415780601f1061191657610100808354040283529160200191611941565b820191906000526020600020905b81548152906001019060200180831161192457829003601f168201915b5050505050815260200160088201805461195a90613a47565b80601f016020809104026020016040519081016040528092919081815260200182805461198690613a47565b80156119d35780601f106119a8576101008083540402835291602001916119d3565b820191906000526020600020905b8154815290600101906020018083116119b657829003601f168201915b5050505050815260200160098201805480602002602001604051908101604052809291908181526020016000905b82821015611aad578382906000526020600020018054611a2090613a47565b80601f0160208091040260200160405190810160405280929190818152602001828054611a4c90613a47565b8015611a995780601f10611a6e57610100808354040283529160200191611a99565b820191906000526020600020905b815481529060010190602001808311611a7c57829003601f168201915b505050505081526020019060010190611a01565b505050508152602001600a8201805480602002602001604051908101604052809291908181526020016000905b82821015611b86578382906000526020600020018054611af990613a47565b80601f0160208091040260200160405190810160405280929190818152602001828054611b2590613a47565b8015611b725780601f10611b4757610100808354040283529160200191611b72565b820191906000526020600020905b815481529060010190602001808311611b5557829003601f168201915b505050505081526020019060010190611ada565b505050508152602001600b82018054611b9e90613a47565b80601f0160208091040260200160405190810160405280929190818152602001828054611bca90613a47565b8015611c175780601f10611bec57610100808354040283529160200191611c17565b820191906000526020600020905b815481529060010190602001808311611bfa57829003601f168201915b5050505050815250509050919050565b60026020528060005260406000206000915090508060000154905081565b600080600360008473ffffffffffffffffffffffffffffffffffffffff1673ffffffffffffffffffffffffffffffffffffffff1681526020019081526020016000206002018054611c9590613a47565b905014159050919050565b611ca86128ec565b600360008373ffffffffffffffffffffffffffffffffffffffff1673ffffffffffffffffffffffffffffffffffffffff1681526020019081526020016000206040518060a00160405290816000820160009054906101000a900473ffffffffffffffffffffffffffffffffffffffff1673ffffffffffffffffffffffffffffffffffffffff1673ffffffffffffffffffffffffffffffffffffffff16815260200160018201805480602002602001604051908101604052809291908181526020016000905b82821015611e19578382906000526020600020018054611d8c90613a47565b80601f0160208091040260200160405190810160405280929190818152602001828054611db890613a47565b8015611e055780601f10611dda57610100808354040283529160200191611e05565b820191906000526020600020905b815481529060010190602001808311611de857829003601f168201915b505050505081526020019060010190611d6d565b505050508152602001600282018054611e3190613a47565b80601f0160208091040260200160405190810160405280929190818152602001828054611e5d90613a47565b8015611eaa5780601f10611e7f57610100808354040283529160200191611eaa565b820191906000526020600020905b815481529060010190602001808311611e8d57829003601f168201915b50505050508152602001600382018054611ec390613a47565b80601f0160208091040260200160405190810160405280929190818152602001828054611eef90613a47565b8015611f3c5780601f10611f1157610100808354040283529160200191611f3c565b820191906000526020600020905b815481529060010190602001808311611f1f57829003601f168201915b50505050508152602001600482018054611f5590613a47565b80601f0160208091040260200160405190810160405280929190818152602001828054611f8190613a47565b8015611fce5780601f10611fa357610100808354040283529160200191611fce565b820191906000526020600020905b815481529060010190602001808311611fb157829003601f168201915b5050505050815250509050919050565b6000875111611fec57600080fd5b6000865111611ffa57600080fd5b600084511161200857600080fd5b600073ffffffffffffffffffffffffffffffffffffffff163373ffffffffffffffffffffffffffffffffffffffff16141561204257600080fd5b60008081548092919061205490613aaa565b91905055506040518061018001604052806000548152602001898152602001600081526020014281526020013373ffffffffffffffffffffffffffffffffffffffff1681526020018881526020018781526020018581526020018681526020018481526020018381526020018281525060016000805481526020019081526020016000206000820151816000015560208201518160010190805190602001906120fe9291906127ef565b50604082015181600201556060820151816003015560808201518160040160006101000a81548173ffffffffffffffffffffffffffffffffffffffff021916908373ffffffffffffffffffffffffffffffffffffffff16021790555060a08201518160050190805190602001906121769291906127ef565b5060c08201518160060190805190602001906121939291906127ef565b5060e08201518160070190805190602001906121b09291906127ef565b506101008201518160080190805190602001906121ce9291906127ef565b506101208201518160090190805190602001906121ec929190612931565b5061014082015181600a01908051906020019061220a929190612931565b5061016082015181600b0190805190602001906122289291906127ef565b5090505060005460048960405161223f91906134f8565b908152602001604051809103902081905550600360003373ffffffffffffffffffffffffffffffffffffffff1673ffffffffffffffffffffffffffffffffffffffff168152602001908152602001600020600101889080600181540180825580915050600190039060005260206000200160009091909190915090805190602001906122cc9291906127ef565b507f7b4bf1738f1695fc7ea3a253a4757256ba17f19e818586d89056b180a1af347560005489600042338c8c8b8d8c8c8c6040516123159c9b9a99989796959493929190613627565b60405180910390a15050505050505050565b600160205280600052604060002060009150905080600001549080600101805461235090613a47565b80601f016020809104026020016040519081016040528092919081815260200182805461237c90613a47565b80156123c95780601f1061239e576101008083540402835291602001916123c9565b820191906000526020600020905b8154815290600101906020018083116123ac57829003601f168201915b5050505050908060020154908060030154908060040160009054906101000a900473ffffffffffffffffffffffffffffffffffffffff169080600501805461241090613a47565b80601f016020809104026020016040519081016040528092919081815260200182805461243c90613a47565b80156124895780601f1061245e57610100808354040283529160200191612489565b820191906000526020600020905b81548152906001019060200180831161246c57829003601f168201915b50505050509080600601805461249e90613a47565b80601f01602080910402602001604051908101604052809291908181526020018280546124ca90613a47565b80156125175780601f106124ec57610100808354040283529160200191612517565b820191906000526020600020905b8154815290600101906020018083116124fa57829003601f168201915b50505050509080600701805461252c90613a47565b80601f016020809104026020016040519081016040528092919081815260200182805461255890613a47565b80156125a55780601f1061257a576101008083540402835291602001916125a5565b820191906000526020600020905b81548152906001019060200180831161258857829003601f168201915b5050505050908060080180546125ba90613a47565b80601f01602080910402602001604051908101604052809291908181526020018280546125e690613a47565b80156126335780601f1061260857610100808354040283529160200191612633565b820191906000526020600020905b81548152906001019060200180831161261657829003601f168201915b50505050509080600b01805461264890613a47565b80601f016020809104026020016040519081016040528092919081815260200182805461267490613a47565b80156126c15780601f10612696576101008083540402835291602001916126c1565b820191906000526020600020905b8154815290600101906020018083116126a457829003601f168201915b505050505090508a565b816001600085815260200190815260200160002060020160008282546126f19190613955565b9250508190555060026000848152602001908152602001600020600101819080600181540180825580915050600190039060005260206000200160009091909190915090805190602001906127479291906127ef565b506002600084815260200190815260200160002060020182908060018154018082558091505060019003906000526020600020016000909190919091505560026000848152602001908152602001600020600301429080600181540180825580915050600190039060005260206000200160009091909190915055505050565b6040518060800160405280600081526020016060815260200160608152602001606081525090565b8280546127fb90613a47565b90600052602060002090601f01602090048101928261281d5760008555612864565b82601f1061283657805160ff1916838001178555612864565b82800160010185558215612864579182015b82811115612863578251825591602001919060010190612848565b5b5090506128719190612991565b5090565b60405180610180016040528060008152602001606081526020016000815260200160008152602001600073ffffffffffffffffffffffffffffffffffffffff168152602001606081526020016060815260200160608152602001606081526020016060815260200160608152602001606081525090565b6040518060a00160405280600073ffffffffffffffffffffffffffffffffffffffff168152602001606081526020016060815260200160608152602001606081525090565b828054828255906000526020600020908101928215612980579160200282015b8281111561297f57825182908051906020019061296f9291906127ef565b5091602001919060010190612951565b5b50905061298d91906129ae565b5090565b5b808211156129aa576000816000905550600101612992565b5090565b5b808211156129ce57600081816129c591906129d2565b506001016129af565b5090565b5080546129de90613a47565b6000825580601f106129f05750612a0f565b601f016020900490600052602060002090810190612a0e9190612991565b5b50565b6000612a25612a2084613804565b6137df565b90508083825260208201905082856020860282011115612a4457600080fd5b60005b85811015612a8e57813567ffffffffffffffff811115612a6657600080fd5b808601612a738982612b15565b85526020850194506020840193505050600181019050612a47565b5050509392505050565b6000612aab612aa684613830565b6137df565b905082815260208101848484011115612ac357600080fd5b612ace848285613a05565b509392505050565b600081359050612ae581613b91565b92915050565b600082601f830112612afc57600080fd5b8135612b0c848260208601612a12565b91505092915050565b600082601f830112612b2657600080fd5b8135612b36848260208601612a98565b91505092915050565b600081359050612b4e81613ba8565b92915050565b600060208284031215612b6657600080fd5b6000612b7484828501612ad6565b91505092915050565b600060208284031215612b8f57600080fd5b600082013567ffffffffffffffff811115612ba957600080fd5b612bb584828501612aeb565b91505092915050565b600060208284031215612bd057600080fd5b600082013567ffffffffffffffff811115612bea57600080fd5b612bf684828501612b15565b91505092915050565b600080600060608486031215612c1457600080fd5b600084013567ffffffffffffffff811115612c2e57600080fd5b612c3a86828701612b15565b935050602084013567ffffffffffffffff811115612c5757600080fd5b612c6386828701612b15565b925050604084013567ffffffffffffffff811115612c8057600080fd5b612c8c86828701612b15565b9150509250925092565b600080600080600080600080610100898b031215612cb357600080fd5b600089013567ffffffffffffffff811115612ccd57600080fd5b612cd98b828c01612b15565b985050602089013567ffffffffffffffff811115612cf657600080fd5b612d028b828c01612b15565b975050604089013567ffffffffffffffff811115612d1f57600080fd5b612d2b8b828c01612b15565b965050606089013567ffffffffffffffff811115612d4857600080fd5b612d548b828c01612b15565b955050608089013567ffffffffffffffff811115612d7157600080fd5b612d7d8b828c01612b15565b94505060a089013567ffffffffffffffff811115612d9a57600080fd5b612da68b828c01612aeb565b93505060c089013567ffffffffffffffff811115612dc357600080fd5b612dcf8b828c01612aeb565b92505060e089013567ffffffffffffffff811115612dec57600080fd5b612df88b828c01612b15565b9150509295985092959890939650565b600060208284031215612e1a57600080fd5b6000612e2884828501612b3f565b91505092915050565b600080600060608486031215612e4657600080fd5b6000612e5486828701612b3f565b9350506020612e6586828701612b3f565b925050604084013567ffffffffffffffff811115612e8257600080fd5b612e8e86828701612b15565b9150509250925092565b6000612ea483836130d1565b905092915050565b6000612eb883836131ff565b905092915050565b6000612ecc83836134da565b60208301905092915050565b612ee1816139ab565b82525050565b612ef0816139ab565b82525050565b6000612f0182613891565b612f0b81856138e4565b935083602082028501612f1d85613861565b8060005b85811015612f595784840389528151612f3a8582612e98565b9450612f45836138bd565b925060208a01995050600181019050612f21565b50829750879550505050505092915050565b6000612f7682613891565b612f8081856138f5565b935083602082028501612f9285613861565b8060005b85811015612fce5784840389528151612faf8582612e98565b9450612fba836138bd565b925060208a01995050600181019050612f96565b50829750879550505050505092915050565b6000612feb8261389c565b612ff58185613906565b93508360208202850161300785613871565b8060005b8581101561304357848403895281516130248582612eac565b945061302f836138ca565b925060208a0199505060018101905061300b565b50829750879550505050505092915050565b6000613060826138a7565b61306a8185613917565b935061307583613881565b8060005b838110156130a657815161308d8882612ec0565b9750613098836138d7565b925050600181019050613079565b5085935050505092915050565b6130bc816139bd565b82525050565b6130cb816139f3565b82525050565b60006130dc826138b2565b6130e68185613928565b93506130f6818560208601613a14565b6130ff81613b80565b840191505092915050565b6000613115826138b2565b61311f8185613939565b935061312f818560208601613a14565b61313881613b80565b840191505092915050565b600061314e826138b2565b613158818561394a565b9350613168818560208601613a14565b80840191505092915050565b600060a08301600083015161318c6000860182612ed8565b50602083015184820360208601526131a48282612ef6565b915050604083015184820360408601526131be82826130d1565b915050606083015184820360608601526131d882826130d1565b915050608083015184820360808601526131f282826130d1565b9150508091505092915050565b60006101808301600083015161321860008601826134da565b506020830151848203602086015261323082826130d1565b915050604083015161324560408601826134da565b50606083015161325860608601826134da565b50608083015161326b6080860182612ed8565b5060a083015184820360a086015261328382826130d1565b91505060c083015184820360c086015261329d82826130d1565b91505060e083015184820360e08601526132b782826130d1565b9150506101008301518482036101008601526132d382826130d1565b9150506101208301518482036101208601526132ef8282612ef6565b91505061014083015184820361014086015261330b8282612ef6565b91505061016083015184820361016086015261332782826130d1565b9150508091505092915050565b60006101808301600083015161334d60008601826134da565b506020830151848203602086015261336582826130d1565b915050604083015161337a60408601826134da565b50606083015161338d60608601826134da565b5060808301516133a06080860182612ed8565b5060a083015184820360a08601526133b882826130d1565b91505060c083015184820360c08601526133d282826130d1565b91505060e083015184820360e08601526133ec82826130d1565b91505061010083015184820361010086015261340882826130d1565b9150506101208301518482036101208601526134248282612ef6565b9150506101408301518482036101408601526134408282612ef6565b91505061016083015184820361016086015261345c82826130d1565b9150508091505092915050565b600060808301600083015161348160008601826134da565b50602083015184820360208601526134998282612ef6565b915050604083015184820360408601526134b38282613055565b915050606083015184820360608601526134cd8282613055565b9150508091505092915050565b6134e3816139e9565b82525050565b6134f2816139e9565b82525050565b60006135048284613143565b915081905092915050565b60006080820190506135246000830187612ee7565b8181036020830152613536818661310a565b9050818103604083015261354a818561310a565b9050818103606083015261355e818461310a565b905095945050505050565b600060208201905081810360008301526135838184612fe0565b905092915050565b60006020820190506135a060008301846130b3565b92915050565b600060208201905081810360008301526135c08184613174565b905092915050565b600060208201905081810360008301526135e28184613334565b905092915050565b600060208201905081810360008301526136048184613469565b905092915050565b600060208201905061362160008301846134e9565b92915050565b60006101808201905061363d600083018f6134e9565b818103602083015261364f818e61310a565b905061365e604083018d6130c2565b61366b606083018c6134e9565b613678608083018b612ee7565b81810360a083015261368a818a61310a565b905081810360c083015261369e818961310a565b905081810360e08301526136b2818861310a565b90508181036101008301526136c7818761310a565b90508181036101208301526136dc8186612f6b565b90508181036101408301526136f18185612f6b565b9050818103610160830152613706818461310a565b90509d9c50505050505050505050505050565b60006101408201905061372f600083018d6134e9565b8181036020830152613741818c61310a565b9050613750604083018b6134e9565b61375d606083018a6134e9565b61376a6080830189612ee7565b81810360a083015261377c818861310a565b905081810360c0830152613790818761310a565b905081810360e08301526137a4818661310a565b90508181036101008301526137b9818561310a565b90508181036101208301526137ce818461310a565b90509b9a5050505050505050505050565b60006137e96137fa565b90506137f58282613a79565b919050565b6000604051905090565b600067ffffffffffffffff82111561381f5761381e613b51565b5b602082029050602081019050919050565b600067ffffffffffffffff82111561384b5761384a613b51565b5b61385482613b80565b9050602081019050919050565b6000819050602082019050919050565b6000819050602082019050919050565b6000819050602082019050919050565b600081519050919050565b600081519050919050565b600081519050919050565b600081519050919050565b6000602082019050919050565b6000602082019050919050565b6000602082019050919050565b600082825260208201905092915050565b600082825260208201905092915050565b600082825260208201905092915050565b600082825260208201905092915050565b600082825260208201905092915050565b600082825260208201905092915050565b600081905092915050565b6000613960826139e9565b915061396b836139e9565b9250827fffffffffffffffffffffffffffffffffffffffffffffffffffffffffffffffff038211156139a05761399f613af3565b5b828201905092915050565b60006139b6826139c9565b9050919050565b60008115159050919050565b600073ffffffffffffffffffffffffffffffffffffffff82169050919050565b6000819050919050565b60006139fe826139e9565b9050919050565b82818337600083830152505050565b60005b83811015613a32578082015181840152602081019050613a17565b83811115613a41576000848401525b50505050565b60006002820490506001821680613a5f57607f821691505b60208210811415613a7357613a72613b22565b5b50919050565b613a8282613b80565b810181811067ffffffffffffffff82111715613aa157613aa0613b51565b5b80604052505050565b6000613ab5826139e9565b91507fffffffffffffffffffffffffffffffffffffffffffffffffffffffffffffffff821415613ae857613ae7613af3565b5b600182019050919050565b7f4e487b7100000000000000000000000000000000000000000000000000000000600052601160045260246000fd5b7f4e487b7100000000000000000000000000000000000000000000000000000000600052602260045260246000fd5b7f4e487b7100000000000000000000000000000000000000000000000000000000600052604160045260246000fd5b6000601f19601f8301169050919050565b613b9a816139ab565b8114613ba557600080fd5b50565b613bb1816139e9565b8114613bbc57600080fd5b5056fea26469706673582212209d415eb5d0fc9c946947ba59cb603f9d2ee9ecdd98b1e1c05c967f214e31ca0564736f6c63430008040033",
  "linkReferences": {},
  "deployedLinkReferences": {}
}