{
  "_format": "hh-sol-artifact-1",
  "contractName": "Uptune",
  "sourceName": "contracts/Uptune.sol",
  "abi": [
    {
      "anonymous": false,
      "inputs": [
        {
          "indexed": false,
          "internalType": "uint256",
          "name": "id",
          "type": "uint256"
        },
        {
          "indexed": false,
          "internalType": "string",
          "name": "audiohash",
          "type": "string"
        },
        {
          "indexed": false,
          "internalType": "string",
          "name": "coverarthash",
          "type": "string"
        },
        {
          "indexed": false,
          "internalType": "string",
          "name": "title",
          "type": "string"
        },
        {
          "indexed": false,
          "internalType": "string",
          "name": "mainAuthor",
          "type": "string"
        },
        {
          "indexed": false,
          "internalType": "string[]",
          "name": "tags",
          "type": "string[]"
        },
        {
          "indexed": false,
          "internalType": "string[]",
          "name": "genres",
          "type": "string[]"
        },
        {
          "indexed": false,
          "internalType": "string",
          "name": "authors",
          "type": "string"
        }
      ],
      "name": "AudioUploaded",
      "type": "event"
    },
    {
      "inputs": [],
      "name": "audioCount",
      "outputs": [
        {
          "internalType": "uint256",
          "name": "",
          "type": "uint256"
        }
      ],
      "stateMutability": "view",
      "type": "function"
    },
    {
      "inputs": [
        {
          "internalType": "uint256",
          "name": "",
          "type": "uint256"
        }
      ],
      "name": "audios",
      "outputs": [
        {
          "internalType": "uint256",
          "name": "id",
          "type": "uint256"
        },
        {
          "internalType": "string",
          "name": "audiohash",
          "type": "string"
        },
        {
          "internalType": "string",
          "name": "coverarthash",
          "type": "string"
        },
        {
          "internalType": "string",
          "name": "title",
          "type": "string"
        },
        {
          "internalType": "string",
          "name": "mainAuthor",
          "type": "string"
        },
        {
          "internalType": "string",
          "name": "authors",
          "type": "string"
        }
      ],
      "stateMutability": "view",
      "type": "function"
    },
    {
      "inputs": [],
      "name": "name",
      "outputs": [
        {
          "internalType": "string",
          "name": "",
          "type": "string"
        }
      ],
      "stateMutability": "view",
      "type": "function"
    },
    {
      "inputs": [
        {
          "internalType": "string",
          "name": "_audiohash",
          "type": "string"
        },
        {
          "internalType": "string",
          "name": "_coverarthash",
          "type": "string"
        },
        {
          "internalType": "string",
          "name": "_mainAuthor",
          "type": "string"
        },
        {
          "internalType": "string",
          "name": "_title",
          "type": "string"
        },
        {
          "internalType": "string[]",
          "name": "_tags",
          "type": "string[]"
        },
        {
          "internalType": "string[]",
          "name": "_genres",
          "type": "string[]"
        },
        {
          "internalType": "string",
          "name": "_authors",
          "type": "string"
        }
      ],
      "name": "uploadAudio",
      "outputs": [],
      "stateMutability": "nonpayable",
      "type": "function"
    }
  ],
  "bytecode": "0x6080604052600080556040518060400160405280600681526020017f557074756e65000000000000000000000000000000000000000000000000000081525060019080519060200190620000559291906200006a565b503480156200006357600080fd5b506200017f565b82805462000078906200011a565b90600052602060002090601f0160209004810192826200009c5760008555620000e8565b82601f10620000b757805160ff1916838001178555620000e8565b82800160010185558215620000e8579182015b82811115620000e7578251825591602001919060010190620000ca565b5b509050620000f79190620000fb565b5090565b5b8082111562000116576000816000905550600101620000fc565b5090565b600060028204905060018216806200013357607f821691505b602082108114156200014a576200014962000150565b5b50919050565b7f4e487b7100000000000000000000000000000000000000000000000000000000600052602260045260246000fd5b610f91806200018f6000396000f3fe608060405234801561001057600080fd5b506004361061004c5760003560e01c806306fdde031461005157806338cb3b491461006f5780636845c1c21461008d578063cba211fa146100a9575b600080fd5b6100596100de565b6040516100669190610b56565b60405180910390f35b61007761016c565b6040516100849190610b78565b60405180910390f35b6100a760048036038101906100a291906108dd565b610172565b005b6100c360048036038101906100be9190610a23565b610365565b6040516100d596959493929190610c42565b60405180910390f35b600180546100eb90610dfa565b80601f016020809104026020016040519081016040528092919081815260200182805461011790610dfa565b80156101645780601f1061013957610100808354040283529160200191610164565b820191906000526020600020905b81548152906001019060200180831161014757829003601f168201915b505050505081565b60005481565b600087511161018057600080fd5b600086511161018e57600080fd5b600084511161019c57600080fd5b600073ffffffffffffffffffffffffffffffffffffffff163373ffffffffffffffffffffffffffffffffffffffff1614156101d657600080fd5b6000808154809291906101e890610e5d565b91905055506040518061010001604052806000548152602001888152602001878152602001868152602001858152602001848152602001838152602001828152506002600080548152602001908152602001600020600082015181600001556020820151816001019080519060200190610263929190610649565b506040820151816002019080519060200190610280929190610649565b50606082015181600301908051906020019061029d929190610649565b5060808201518160040190805190602001906102ba929190610649565b5060a08201518160050190805190602001906102d79291906106cf565b5060c08201518160060190805190602001906102f49291906106cf565b5060e0820151816007019080519060200190610311929190610649565b509050507f5acb4aff8fd66db448136d9d336830c751a130352ab3525cc0a346ecd3e8959e60005488888888888888604051610354989796959493929190610b93565b60405180910390a150505050505050565b600260205280600052604060002060009150905080600001549080600101805461038e90610dfa565b80601f01602080910402602001604051908101604052809291908181526020018280546103ba90610dfa565b80156104075780601f106103dc57610100808354040283529160200191610407565b820191906000526020600020905b8154815290600101906020018083116103ea57829003601f168201915b50505050509080600201805461041c90610dfa565b80601f016020809104026020016040519081016040528092919081815260200182805461044890610dfa565b80156104955780601f1061046a57610100808354040283529160200191610495565b820191906000526020600020905b81548152906001019060200180831161047857829003601f168201915b5050505050908060030180546104aa90610dfa565b80601f01602080910402602001604051908101604052809291908181526020018280546104d690610dfa565b80156105235780601f106104f857610100808354040283529160200191610523565b820191906000526020600020905b81548152906001019060200180831161050657829003601f168201915b50505050509080600401805461053890610dfa565b80601f016020809104026020016040519081016040528092919081815260200182805461056490610dfa565b80156105b15780601f10610586576101008083540402835291602001916105b1565b820191906000526020600020905b81548152906001019060200180831161059457829003601f168201915b5050505050908060070180546105c690610dfa565b80601f01602080910402602001604051908101604052809291908181526020018280546105f290610dfa565b801561063f5780601f106106145761010080835404028352916020019161063f565b820191906000526020600020905b81548152906001019060200180831161062257829003601f168201915b5050505050905086565b82805461065590610dfa565b90600052602060002090601f01602090048101928261067757600085556106be565b82601f1061069057805160ff19168380011785556106be565b828001600101855582156106be579182015b828111156106bd5782518255916020019190600101906106a2565b5b5090506106cb919061072f565b5090565b82805482825590600052602060002090810192821561071e579160200282015b8281111561071d57825182908051906020019061070d929190610649565b50916020019190600101906106ef565b5b50905061072b919061074c565b5090565b5b80821115610748576000816000905550600101610730565b5090565b5b8082111561076c57600081816107639190610770565b5060010161074d565b5090565b50805461077c90610dfa565b6000825580601f1061078e57506107ad565b601f0160209004906000526020600020908101906107ac919061072f565b5b50565b60006107c36107be84610ceb565b610cc6565b905080838252602082019050828560208602820111156107e257600080fd5b60005b8581101561082c57813567ffffffffffffffff81111561080457600080fd5b808601610811898261089e565b855260208501945060208401935050506001810190506107e5565b5050509392505050565b600061084961084484610d17565b610cc6565b90508281526020810184848401111561086157600080fd5b61086c848285610db8565b509392505050565b600082601f83011261088557600080fd5b81356108958482602086016107b0565b91505092915050565b600082601f8301126108af57600080fd5b81356108bf848260208601610836565b91505092915050565b6000813590506108d781610f44565b92915050565b600080600080600080600060e0888a0312156108f857600080fd5b600088013567ffffffffffffffff81111561091257600080fd5b61091e8a828b0161089e565b975050602088013567ffffffffffffffff81111561093b57600080fd5b6109478a828b0161089e565b965050604088013567ffffffffffffffff81111561096457600080fd5b6109708a828b0161089e565b955050606088013567ffffffffffffffff81111561098d57600080fd5b6109998a828b0161089e565b945050608088013567ffffffffffffffff8111156109b657600080fd5b6109c28a828b01610874565b93505060a088013567ffffffffffffffff8111156109df57600080fd5b6109eb8a828b01610874565b92505060c088013567ffffffffffffffff811115610a0857600080fd5b610a148a828b0161089e565b91505092959891949750929550565b600060208284031215610a3557600080fd5b6000610a43848285016108c8565b91505092915050565b6000610a588383610ad5565b905092915050565b6000610a6b82610d58565b610a758185610d7b565b935083602082028501610a8785610d48565b8060005b85811015610ac35784840389528151610aa48582610a4c565b9450610aaf83610d6e565b925060208a01995050600181019050610a8b565b50829750879550505050505092915050565b6000610ae082610d63565b610aea8185610d8c565b9350610afa818560208601610dc7565b610b0381610f33565b840191505092915050565b6000610b1982610d63565b610b238185610d9d565b9350610b33818560208601610dc7565b610b3c81610f33565b840191505092915050565b610b5081610dae565b82525050565b60006020820190508181036000830152610b708184610b0e565b905092915050565b6000602082019050610b8d6000830184610b47565b92915050565b600061010082019050610ba9600083018b610b47565b8181036020830152610bbb818a610b0e565b90508181036040830152610bcf8189610b0e565b90508181036060830152610be38188610b0e565b90508181036080830152610bf78187610b0e565b905081810360a0830152610c0b8186610a60565b905081810360c0830152610c1f8185610a60565b905081810360e0830152610c338184610b0e565b90509998505050505050505050565b600060c082019050610c576000830189610b47565b8181036020830152610c698188610b0e565b90508181036040830152610c7d8187610b0e565b90508181036060830152610c918186610b0e565b90508181036080830152610ca58185610b0e565b905081810360a0830152610cb98184610b0e565b9050979650505050505050565b6000610cd0610ce1565b9050610cdc8282610e2c565b919050565b6000604051905090565b600067ffffffffffffffff821115610d0657610d05610f04565b5b602082029050602081019050919050565b600067ffffffffffffffff821115610d3257610d31610f04565b5b610d3b82610f33565b9050602081019050919050565b6000819050602082019050919050565b600081519050919050565b600081519050919050565b6000602082019050919050565b600082825260208201905092915050565b600082825260208201905092915050565b600082825260208201905092915050565b6000819050919050565b82818337600083830152505050565b60005b83811015610de5578082015181840152602081019050610dca565b83811115610df4576000848401525b50505050565b60006002820490506001821680610e1257607f821691505b60208210811415610e2657610e25610ed5565b5b50919050565b610e3582610f33565b810181811067ffffffffffffffff82111715610e5457610e53610f04565b5b80604052505050565b6000610e6882610dae565b91507fffffffffffffffffffffffffffffffffffffffffffffffffffffffffffffffff821415610e9b57610e9a610ea6565b5b600182019050919050565b7f4e487b7100000000000000000000000000000000000000000000000000000000600052601160045260246000fd5b7f4e487b7100000000000000000000000000000000000000000000000000000000600052602260045260246000fd5b7f4e487b7100000000000000000000000000000000000000000000000000000000600052604160045260246000fd5b6000601f19601f8301169050919050565b610f4d81610dae565b8114610f5857600080fd5b5056fea26469706673582212207dea0f60d17602147c26857e86a1945c0c634ca8a45ef53e8cdfe83cc484840e64736f6c63430008040033",
  "linkReferences": {},
  "deployedLinkReferences": {}
}