{
  "_format": "hh-sol-artifact-1",
  "contractName": "Uptune",
  "sourceName": "contracts/Uptune.sol",
  "abi": [
    {
      "anonymous": false,
      "inputs": [
        {
          "indexed": false,
          "internalType": "uint256",
          "name": "id",
          "type": "uint256"
        },
        {
          "indexed": false,
          "internalType": "string",
          "name": "uuid",
          "type": "string"
        },
        {
          "indexed": false,
          "internalType": "uint256",
          "name": "amount",
          "type": "uint256"
        },
        {
          "indexed": false,
          "internalType": "uint256",
          "name": "timestamp",
          "type": "uint256"
        },
        {
          "indexed": false,
          "internalType": "address",
          "name": "wallet",
          "type": "address"
        },
        {
          "indexed": false,
          "internalType": "string",
          "name": "audiogateway",
          "type": "string"
        },
        {
          "indexed": false,
          "internalType": "string",
          "name": "coverartgateway",
          "type": "string"
        },
        {
          "indexed": false,
          "internalType": "string",
          "name": "title",
          "type": "string"
        },
        {
          "indexed": false,
          "internalType": "string",
          "name": "mainAuthor",
          "type": "string"
        },
        {
          "indexed": false,
          "internalType": "string[]",
          "name": "tags",
          "type": "string[]"
        },
        {
          "indexed": false,
          "internalType": "string[]",
          "name": "genres",
          "type": "string[]"
        },
        {
          "indexed": false,
          "internalType": "string",
          "name": "authors",
          "type": "string"
        }
      ],
      "name": "AudioUploaded",
      "type": "event"
    },
    {
      "inputs": [
        {
          "internalType": "address",
          "name": "",
          "type": "address"
        },
        {
          "internalType": "uint256",
          "name": "",
          "type": "uint256"
        }
      ],
      "name": "artistSongs",
      "outputs": [
        {
          "internalType": "string",
          "name": "",
          "type": "string"
        }
      ],
      "stateMutability": "view",
      "type": "function"
    },
    {
      "inputs": [],
      "name": "audioCount",
      "outputs": [
        {
          "internalType": "uint256",
          "name": "",
          "type": "uint256"
        }
      ],
      "stateMutability": "view",
      "type": "function"
    },
    {
      "inputs": [
        {
          "internalType": "uint256",
          "name": "",
          "type": "uint256"
        }
      ],
      "name": "audios",
      "outputs": [
        {
          "internalType": "uint256",
          "name": "id",
          "type": "uint256"
        },
        {
          "internalType": "string",
          "name": "uuid",
          "type": "string"
        },
        {
          "internalType": "uint256",
          "name": "amount",
          "type": "uint256"
        },
        {
          "internalType": "uint256",
          "name": "timestamp",
          "type": "uint256"
        },
        {
          "internalType": "address",
          "name": "wallet",
          "type": "address"
        },
        {
          "internalType": "string",
          "name": "audiogateway",
          "type": "string"
        },
        {
          "internalType": "string",
          "name": "coverartgateway",
          "type": "string"
        },
        {
          "internalType": "string",
          "name": "title",
          "type": "string"
        },
        {
          "internalType": "string",
          "name": "mainAuthor",
          "type": "string"
        },
        {
          "internalType": "string",
          "name": "authors",
          "type": "string"
        }
      ],
      "stateMutability": "view",
      "type": "function"
    },
    {
      "inputs": [
        {
          "internalType": "uint256",
          "name": "",
          "type": "uint256"
        }
      ],
      "name": "comments",
      "outputs": [
        {
          "internalType": "uint256",
          "name": "id",
          "type": "uint256"
        }
      ],
      "stateMutability": "view",
      "type": "function"
    },
    {
      "inputs": [],
      "name": "getAllAudio",
      "outputs": [
        {
          "components": [
            {
              "internalType": "uint256",
              "name": "id",
              "type": "uint256"
            },
            {
              "internalType": "string",
              "name": "uuid",
              "type": "string"
            },
            {
              "internalType": "uint256",
              "name": "amount",
              "type": "uint256"
            },
            {
              "internalType": "uint256",
              "name": "timestamp",
              "type": "uint256"
            },
            {
              "internalType": "address",
              "name": "wallet",
              "type": "address"
            },
            {
              "internalType": "string",
              "name": "audiogateway",
              "type": "string"
            },
            {
              "internalType": "string",
              "name": "coverartgateway",
              "type": "string"
            },
            {
              "internalType": "string",
              "name": "title",
              "type": "string"
            },
            {
              "internalType": "string",
              "name": "mainAuthor",
              "type": "string"
            },
            {
              "internalType": "string[]",
              "name": "tags",
              "type": "string[]"
            },
            {
              "internalType": "string[]",
              "name": "genres",
              "type": "string[]"
            },
            {
              "internalType": "string",
              "name": "authors",
              "type": "string"
            }
          ],
          "internalType": "struct Uptune.Audio[]",
          "name": "",
          "type": "tuple[]"
        }
      ],
      "stateMutability": "view",
      "type": "function"
    },
    {
      "inputs": [
        {
          "internalType": "uint256",
          "name": "_id",
          "type": "uint256"
        }
      ],
      "name": "getAllComments",
      "outputs": [
        {
          "components": [
            {
              "internalType": "uint256",
              "name": "id",
              "type": "uint256"
            },
            {
              "internalType": "string[]",
              "name": "comment",
              "type": "string[]"
            },
            {
              "internalType": "uint256[]",
              "name": "amount",
              "type": "uint256[]"
            },
            {
              "internalType": "uint256[]",
              "name": "timestamp",
              "type": "uint256[]"
            }
          ],
          "internalType": "struct Uptune.Comment",
          "name": "",
          "type": "tuple"
        }
      ],
      "stateMutability": "view",
      "type": "function"
    },
    {
      "inputs": [
        {
          "internalType": "address",
          "name": "_add",
          "type": "address"
        }
      ],
      "name": "getArtistSongs",
      "outputs": [
        {
          "internalType": "string[]",
          "name": "",
          "type": "string[]"
        }
      ],
      "stateMutability": "view",
      "type": "function"
    },
    {
      "inputs": [
        {
          "internalType": "string",
          "name": "_uuid",
          "type": "string"
        }
      ],
      "name": "getOneAudio",
      "outputs": [
        {
          "components": [
            {
              "internalType": "uint256",
              "name": "id",
              "type": "uint256"
            },
            {
              "internalType": "string",
              "name": "uuid",
              "type": "string"
            },
            {
              "internalType": "uint256",
              "name": "amount",
              "type": "uint256"
            },
            {
              "internalType": "uint256",
              "name": "timestamp",
              "type": "uint256"
            },
            {
              "internalType": "address",
              "name": "wallet",
              "type": "address"
            },
            {
              "internalType": "string",
              "name": "audiogateway",
              "type": "string"
            },
            {
              "internalType": "string",
              "name": "coverartgateway",
              "type": "string"
            },
            {
              "internalType": "string",
              "name": "title",
              "type": "string"
            },
            {
              "internalType": "string",
              "name": "mainAuthor",
              "type": "string"
            },
            {
              "internalType": "string[]",
              "name": "tags",
              "type": "string[]"
            },
            {
              "internalType": "string[]",
              "name": "genres",
              "type": "string[]"
            },
            {
              "internalType": "string",
              "name": "authors",
              "type": "string"
            }
          ],
          "internalType": "struct Uptune.Audio",
          "name": "",
          "type": "tuple"
        }
      ],
      "stateMutability": "view",
      "type": "function"
    },
    {
      "inputs": [
        {
          "internalType": "uint256",
          "name": "_id",
          "type": "uint256"
        },
        {
          "internalType": "uint256",
          "name": "_amount",
          "type": "uint256"
        },
        {
          "internalType": "string",
          "name": "_message",
          "type": "string"
        }
      ],
      "name": "sendTip",
      "outputs": [],
      "stateMutability": "nonpayable",
      "type": "function"
    },
    {
      "inputs": [
        {
          "internalType": "string",
          "name": "_uuid",
          "type": "string"
        },
        {
          "internalType": "string",
          "name": "_audiogateway",
          "type": "string"
        },
        {
          "internalType": "string",
          "name": "_coverartgateway",
          "type": "string"
        },
        {
          "internalType": "string",
          "name": "_mainAuthor",
          "type": "string"
        },
        {
          "internalType": "string",
          "name": "_title",
          "type": "string"
        },
        {
          "internalType": "string[]",
          "name": "_tags",
          "type": "string[]"
        },
        {
          "internalType": "string[]",
          "name": "_genres",
          "type": "string[]"
        },
        {
          "internalType": "string",
          "name": "_authors",
          "type": "string"
        }
      ],
      "name": "uploadAudio",
      "outputs": [],
      "stateMutability": "nonpayable",
      "type": "function"
    },
    {
      "inputs": [
        {
          "internalType": "string",
          "name": "",
          "type": "string"
        }
      ],
      "name": "uuidToId",
      "outputs": [
        {
          "internalType": "uint256",
          "name": "",
          "type": "uint256"
        }
      ],
      "stateMutability": "view",
      "type": "function"
    }
  ],
  "bytecode": "0x60806040526000805534801561001457600080fd5b50612d20806100246000396000f3fe608060405234801561001057600080fd5b50600436106100a95760003560e01c80638ebb4c15116100715780638ebb4c151461017a578063a09f0aed146101aa578063c65f47b5146101da578063cba211fa146101f6578063d8a545631461022f578063f0339d881461025f576100a9565b806303926df9146100ae57806338cb3b49146100de57806356b808de146100fc5780636562d2cf1461011a5780638d1783411461014a575b600080fd5b6100c860048036038101906100c3919061202c565b61027b565b6040516100d59190612721565b60405180910390f35b6100e661043b565b6040516100f39190612743565b60405180910390f35b610104610441565b60405161011191906126bb565b60405180910390f35b610134600480360381019061012f9190611e79565b610aeb565b6040516101419190612743565b60405180910390f35b610164600480360381019061015f9190611e79565b610b19565b60405161017191906126ff565b60405180910390f35b610194600480360381019061018f919061202c565b6110f7565b6040516101a19190612743565b60405180910390f35b6101c460048036038101906101bf9190611e3d565b611115565b6040516101d191906126dd565b60405180910390f35b6101f460048036038101906101ef9190611eba565b6111ce565b005b610210600480360381019061020b919061202c565b611514565b6040516102269a99989796959493929190612850565b60405180910390f35b61024960048036038101906102449190611e14565b6118b8565b6040516102569190612699565b60405180910390f35b61027960048036038101906102749190612055565b6119d0565b005b610283611acc565b600260008381526020019081526020016000206040518060800160405290816000820154815260200160018201805480602002602001604051908101604052809291908181526020016000905b8282101561037c5783829060005260206000200180546102ef90612b72565b80601f016020809104026020016040519081016040528092919081815260200182805461031b90612b72565b80156103685780601f1061033d57610100808354040283529160200191610368565b820191906000526020600020905b81548152906001019060200180831161034b57829003601f168201915b5050505050815260200190600101906102d0565b505050508152602001600282018054806020026020016040519081016040528092919081815260200182805480156103d357602002820191906000526020600020905b8154815260200190600101908083116103bf575b505050505081526020016003820180548060200260200160405190810160405280929190818152602001828054801561042b57602002820191906000526020600020905b815481526020019060010190808311610417575b5050505050815250509050919050565b60005481565b60606000805467ffffffffffffffff811115610486577f4e487b7100000000000000000000000000000000000000000000000000000000600052604160045260246000fd5b6040519080825280602002602001820160405280156104bf57816020015b6104ac611af4565b8152602001906001900390816104a45790505b50905060005b600054811015610ae357600160006001836104e09190612a8c565b8152602001908152602001600020604051806101800160405290816000820154815260200160018201805461051490612b72565b80601f016020809104026020016040519081016040528092919081815260200182805461054090612b72565b801561058d5780601f106105625761010080835404028352916020019161058d565b820191906000526020600020905b81548152906001019060200180831161057057829003601f168201915b5050505050815260200160028201548152602001600382015481526020016004820160009054906101000a900473ffffffffffffffffffffffffffffffffffffffff1673ffffffffffffffffffffffffffffffffffffffff1673ffffffffffffffffffffffffffffffffffffffff16815260200160058201805461061090612b72565b80601f016020809104026020016040519081016040528092919081815260200182805461063c90612b72565b80156106895780601f1061065e57610100808354040283529160200191610689565b820191906000526020600020905b81548152906001019060200180831161066c57829003601f168201915b505050505081526020016006820180546106a290612b72565b80601f01602080910402602001604051908101604052809291908181526020018280546106ce90612b72565b801561071b5780601f106106f05761010080835404028352916020019161071b565b820191906000526020600020905b8154815290600101906020018083116106fe57829003601f168201915b5050505050815260200160078201805461073490612b72565b80601f016020809104026020016040519081016040528092919081815260200182805461076090612b72565b80156107ad5780601f10610782576101008083540402835291602001916107ad565b820191906000526020600020905b81548152906001019060200180831161079057829003601f168201915b505050505081526020016008820180546107c690612b72565b80601f01602080910402602001604051908101604052809291908181526020018280546107f290612b72565b801561083f5780601f106108145761010080835404028352916020019161083f565b820191906000526020600020905b81548152906001019060200180831161082257829003601f168201915b5050505050815260200160098201805480602002602001604051908101604052809291908181526020016000905b8282101561091957838290600052602060002001805461088c90612b72565b80601f01602080910402602001604051908101604052809291908181526020018280546108b890612b72565b80156109055780601f106108da57610100808354040283529160200191610905565b820191906000526020600020905b8154815290600101906020018083116108e857829003601f168201915b50505050508152602001906001019061086d565b505050508152602001600a8201805480602002602001604051908101604052809291908181526020016000905b828210156109f257838290600052602060002001805461096590612b72565b80601f016020809104026020016040519081016040528092919081815260200182805461099190612b72565b80156109de5780601f106109b3576101008083540402835291602001916109de565b820191906000526020600020905b8154815290600101906020018083116109c157829003601f168201915b505050505081526020019060010190610946565b505050508152602001600b82018054610a0a90612b72565b80601f0160208091040260200160405190810160405280929190818152602001828054610a3690612b72565b8015610a835780601f10610a5857610100808354040283529160200191610a83565b820191906000526020600020905b815481529060010190602001808311610a6657829003601f168201915b505050505081525050828281518110610ac5577f4e487b7100000000000000000000000000000000000000000000000000000000600052603260045260246000fd5b60200260200101819052508080610adb90612bd5565b9150506104c5565b508091505090565b6003818051602081018201805184825260208301602085012081835280955050505050506000915090505481565b610b21611af4565b60016000600384604051610b359190612682565b90815260200160405180910390205481526020019081526020016000206040518061018001604052908160008201548152602001600182018054610b7890612b72565b80601f0160208091040260200160405190810160405280929190818152602001828054610ba490612b72565b8015610bf15780601f10610bc657610100808354040283529160200191610bf1565b820191906000526020600020905b815481529060010190602001808311610bd457829003601f168201915b5050505050815260200160028201548152602001600382015481526020016004820160009054906101000a900473ffffffffffffffffffffffffffffffffffffffff1673ffffffffffffffffffffffffffffffffffffffff1673ffffffffffffffffffffffffffffffffffffffff168152602001600582018054610c7490612b72565b80601f0160208091040260200160405190810160405280929190818152602001828054610ca090612b72565b8015610ced5780601f10610cc257610100808354040283529160200191610ced565b820191906000526020600020905b815481529060010190602001808311610cd057829003601f168201915b50505050508152602001600682018054610d0690612b72565b80601f0160208091040260200160405190810160405280929190818152602001828054610d3290612b72565b8015610d7f5780601f10610d5457610100808354040283529160200191610d7f565b820191906000526020600020905b815481529060010190602001808311610d6257829003601f168201915b50505050508152602001600782018054610d9890612b72565b80601f0160208091040260200160405190810160405280929190818152602001828054610dc490612b72565b8015610e115780601f10610de657610100808354040283529160200191610e11565b820191906000526020600020905b815481529060010190602001808311610df457829003601f168201915b50505050508152602001600882018054610e2a90612b72565b80601f0160208091040260200160405190810160405280929190818152602001828054610e5690612b72565b8015610ea35780601f10610e7857610100808354040283529160200191610ea3565b820191906000526020600020905b815481529060010190602001808311610e8657829003601f168201915b5050505050815260200160098201805480602002602001604051908101604052809291908181526020016000905b82821015610f7d578382906000526020600020018054610ef090612b72565b80601f0160208091040260200160405190810160405280929190818152602001828054610f1c90612b72565b8015610f695780601f10610f3e57610100808354040283529160200191610f69565b820191906000526020600020905b815481529060010190602001808311610f4c57829003601f168201915b505050505081526020019060010190610ed1565b505050508152602001600a8201805480602002602001604051908101604052809291908181526020016000905b82821015611056578382906000526020600020018054610fc990612b72565b80601f0160208091040260200160405190810160405280929190818152602001828054610ff590612b72565b80156110425780601f1061101757610100808354040283529160200191611042565b820191906000526020600020905b81548152906001019060200180831161102557829003601f168201915b505050505081526020019060010190610faa565b505050508152602001600b8201805461106e90612b72565b80601f016020809104026020016040519081016040528092919081815260200182805461109a90612b72565b80156110e75780601f106110bc576101008083540402835291602001916110e7565b820191906000526020600020905b8154815290600101906020018083116110ca57829003601f168201915b5050505050815250509050919050565b60026020528060005260406000206000915090508060000154905081565b6004602052816000526040600020818154811061113157600080fd5b9060005260206000200160009150915050805461114d90612b72565b80601f016020809104026020016040519081016040528092919081815260200182805461117990612b72565b80156111c65780601f1061119b576101008083540402835291602001916111c6565b820191906000526020600020905b8154815290600101906020018083116111a957829003601f168201915b505050505081565b60008751116111dc57600080fd5b60008651116111ea57600080fd5b60008451116111f857600080fd5b600073ffffffffffffffffffffffffffffffffffffffff163373ffffffffffffffffffffffffffffffffffffffff16141561123257600080fd5b60008081548092919061124490612bd5565b91905055506040518061018001604052806000548152602001898152602001600081526020014281526020013373ffffffffffffffffffffffffffffffffffffffff1681526020018881526020018781526020018581526020018681526020018481526020018381526020018281525060016000805481526020019081526020016000206000820151816000015560208201518160010190805190602001906112ee929190611b6b565b50604082015181600201556060820151816003015560808201518160040160006101000a81548173ffffffffffffffffffffffffffffffffffffffff021916908373ffffffffffffffffffffffffffffffffffffffff16021790555060a0820151816005019080519060200190611366929190611b6b565b5060c0820151816006019080519060200190611383929190611b6b565b5060e08201518160070190805190602001906113a0929190611b6b565b506101008201518160080190805190602001906113be929190611b6b565b506101208201518160090190805190602001906113dc929190611bf1565b5061014082015181600a0190805190602001906113fa929190611bf1565b5061016082015181600b019080519060200190611418929190611b6b565b5090505060005460038960405161142f9190612682565b908152602001604051809103902081905550600460003373ffffffffffffffffffffffffffffffffffffffff1673ffffffffffffffffffffffffffffffffffffffff168152602001908152602001600020889080600181540180825580915050600190039060005260206000200160009091909190915090805190602001906114b9929190611b6b565b507f7b4bf1738f1695fc7ea3a253a4757256ba17f19e818586d89056b180a1af347560005489600042338c8c8b8d8c8c8c6040516115029c9b9a9998979695949392919061275e565b60405180910390a15050505050505050565b600160205280600052604060002060009150905080600001549080600101805461153d90612b72565b80601f016020809104026020016040519081016040528092919081815260200182805461156990612b72565b80156115b65780601f1061158b576101008083540402835291602001916115b6565b820191906000526020600020905b81548152906001019060200180831161159957829003601f168201915b5050505050908060020154908060030154908060040160009054906101000a900473ffffffffffffffffffffffffffffffffffffffff16908060050180546115fd90612b72565b80601f016020809104026020016040519081016040528092919081815260200182805461162990612b72565b80156116765780601f1061164b57610100808354040283529160200191611676565b820191906000526020600020905b81548152906001019060200180831161165957829003601f168201915b50505050509080600601805461168b90612b72565b80601f01602080910402602001604051908101604052809291908181526020018280546116b790612b72565b80156117045780601f106116d957610100808354040283529160200191611704565b820191906000526020600020905b8154815290600101906020018083116116e757829003601f168201915b50505050509080600701805461171990612b72565b80601f016020809104026020016040519081016040528092919081815260200182805461174590612b72565b80156117925780601f1061176757610100808354040283529160200191611792565b820191906000526020600020905b81548152906001019060200180831161177557829003601f168201915b5050505050908060080180546117a790612b72565b80601f01602080910402602001604051908101604052809291908181526020018280546117d390612b72565b80156118205780601f106117f557610100808354040283529160200191611820565b820191906000526020600020905b81548152906001019060200180831161180357829003601f168201915b50505050509080600b01805461183590612b72565b80601f016020809104026020016040519081016040528092919081815260200182805461186190612b72565b80156118ae5780601f10611883576101008083540402835291602001916118ae565b820191906000526020600020905b81548152906001019060200180831161189157829003601f168201915b505050505090508a565b6060600460008373ffffffffffffffffffffffffffffffffffffffff1673ffffffffffffffffffffffffffffffffffffffff168152602001908152602001600020805480602002602001604051908101604052809291908181526020016000905b828210156119c557838290600052602060002001805461193890612b72565b80601f016020809104026020016040519081016040528092919081815260200182805461196490612b72565b80156119b15780601f10611986576101008083540402835291602001916119b1565b820191906000526020600020905b81548152906001019060200180831161199457829003601f168201915b505050505081526020019060010190611919565b505050509050919050565b816001600085815260200190815260200160002060020160008282546119f69190612a8c565b925050819055506002600084815260200190815260200160002060010181908060018154018082558091505060019003906000526020600020016000909190919091509080519060200190611a4c929190611b6b565b506002600084815260200190815260200160002060020182908060018154018082558091505060019003906000526020600020016000909190919091505560026000848152602001908152602001600020600301429080600181540180825580915050600190039060005260206000200160009091909190915055505050565b6040518060800160405280600081526020016060815260200160608152602001606081525090565b60405180610180016040528060008152602001606081526020016000815260200160008152602001600073ffffffffffffffffffffffffffffffffffffffff168152602001606081526020016060815260200160608152602001606081526020016060815260200160608152602001606081525090565b828054611b7790612b72565b90600052602060002090601f016020900481019282611b995760008555611be0565b82601f10611bb257805160ff1916838001178555611be0565b82800160010185558215611be0579182015b82811115611bdf578251825591602001919060010190611bc4565b5b509050611bed9190611c51565b5090565b828054828255906000526020600020908101928215611c40579160200282015b82811115611c3f578251829080519060200190611c2f929190611b6b565b5091602001919060010190611c11565b5b509050611c4d9190611c6e565b5090565b5b80821115611c6a576000816000905550600101611c52565b5090565b5b80821115611c8e5760008181611c859190611c92565b50600101611c6f565b5090565b508054611c9e90612b72565b6000825580601f10611cb05750611ccf565b601f016020900490600052602060002090810190611cce9190611c51565b5b50565b6000611ce5611ce08461293b565b612916565b90508083825260208201905082856020860282011115611d0457600080fd5b60005b85811015611d4e57813567ffffffffffffffff811115611d2657600080fd5b808601611d338982611dd5565b85526020850194506020840193505050600181019050611d07565b5050509392505050565b6000611d6b611d6684612967565b612916565b905082815260208101848484011115611d8357600080fd5b611d8e848285612b30565b509392505050565b600081359050611da581612cbc565b92915050565b600082601f830112611dbc57600080fd5b8135611dcc848260208601611cd2565b91505092915050565b600082601f830112611de657600080fd5b8135611df6848260208601611d58565b91505092915050565b600081359050611e0e81612cd3565b92915050565b600060208284031215611e2657600080fd5b6000611e3484828501611d96565b91505092915050565b60008060408385031215611e5057600080fd5b6000611e5e85828601611d96565b9250506020611e6f85828601611dff565b9150509250929050565b600060208284031215611e8b57600080fd5b600082013567ffffffffffffffff811115611ea557600080fd5b611eb184828501611dd5565b91505092915050565b600080600080600080600080610100898b031215611ed757600080fd5b600089013567ffffffffffffffff811115611ef157600080fd5b611efd8b828c01611dd5565b985050602089013567ffffffffffffffff811115611f1a57600080fd5b611f268b828c01611dd5565b975050604089013567ffffffffffffffff811115611f4357600080fd5b611f4f8b828c01611dd5565b965050606089013567ffffffffffffffff811115611f6c57600080fd5b611f788b828c01611dd5565b955050608089013567ffffffffffffffff811115611f9557600080fd5b611fa18b828c01611dd5565b94505060a089013567ffffffffffffffff811115611fbe57600080fd5b611fca8b828c01611dab565b93505060c089013567ffffffffffffffff811115611fe757600080fd5b611ff38b828c01611dab565b92505060e089013567ffffffffffffffff81111561201057600080fd5b61201c8b828c01611dd5565b9150509295985092959890939650565b60006020828403121561203e57600080fd5b600061204c84828501611dff565b91505092915050565b60008060006060848603121561206a57600080fd5b600061207886828701611dff565b935050602061208986828701611dff565b925050604084013567ffffffffffffffff8111156120a657600080fd5b6120b286828701611dd5565b9150509250925092565b60006120c883836122e6565b905092915050565b60006120dc8383612389565b905092915050565b60006120f08383612664565b60208301905092915050565b61210581612ae2565b82525050565b61211481612ae2565b82525050565b6000612125826129c8565b61212f8185612a1b565b93508360208202850161214185612998565b8060005b8581101561217d578484038952815161215e85826120bc565b9450612169836129f4565b925060208a01995050600181019050612145565b50829750879550505050505092915050565b600061219a826129c8565b6121a48185612a2c565b9350836020820285016121b685612998565b8060005b858110156121f257848403895281516121d385826120bc565b94506121de836129f4565b925060208a019950506001810190506121ba565b50829750879550505050505092915050565b600061220f826129d3565b6122198185612a3d565b93508360208202850161222b856129a8565b8060005b85811015612267578484038952815161224885826120d0565b945061225383612a01565b925060208a0199505060018101905061222f565b50829750879550505050505092915050565b6000612284826129de565b61228e8185612a4e565b9350612299836129b8565b8060005b838110156122ca5781516122b188826120e4565b97506122bc83612a0e565b92505060018101905061229d565b5085935050505092915050565b6122e081612b1e565b82525050565b60006122f1826129e9565b6122fb8185612a5f565b935061230b818560208601612b3f565b61231481612cab565b840191505092915050565b600061232a826129e9565b6123348185612a70565b9350612344818560208601612b3f565b61234d81612cab565b840191505092915050565b6000612363826129e9565b61236d8185612a81565b935061237d818560208601612b3f565b80840191505092915050565b6000610180830160008301516123a26000860182612664565b50602083015184820360208601526123ba82826122e6565b91505060408301516123cf6040860182612664565b5060608301516123e26060860182612664565b5060808301516123f560808601826120fc565b5060a083015184820360a086015261240d82826122e6565b91505060c083015184820360c086015261242782826122e6565b91505060e083015184820360e086015261244182826122e6565b91505061010083015184820361010086015261245d82826122e6565b915050610120830151848203610120860152612479828261211a565b915050610140830151848203610140860152612495828261211a565b9150506101608301518482036101608601526124b182826122e6565b9150508091505092915050565b6000610180830160008301516124d76000860182612664565b50602083015184820360208601526124ef82826122e6565b91505060408301516125046040860182612664565b5060608301516125176060860182612664565b50608083015161252a60808601826120fc565b5060a083015184820360a086015261254282826122e6565b91505060c083015184820360c086015261255c82826122e6565b91505060e083015184820360e086015261257682826122e6565b91505061010083015184820361010086015261259282826122e6565b9150506101208301518482036101208601526125ae828261211a565b9150506101408301518482036101408601526125ca828261211a565b9150506101608301518482036101608601526125e682826122e6565b9150508091505092915050565b600060808301600083015161260b6000860182612664565b5060208301518482036020860152612623828261211a565b9150506040830151848203604086015261263d8282612279565b915050606083015184820360608601526126578282612279565b9150508091505092915050565b61266d81612b14565b82525050565b61267c81612b14565b82525050565b600061268e8284612358565b915081905092915050565b600060208201905081810360008301526126b3818461218f565b905092915050565b600060208201905081810360008301526126d58184612204565b905092915050565b600060208201905081810360008301526126f7818461231f565b905092915050565b6000602082019050818103600083015261271981846124be565b905092915050565b6000602082019050818103600083015261273b81846125f3565b905092915050565b60006020820190506127586000830184612673565b92915050565b600061018082019050612774600083018f612673565b8181036020830152612786818e61231f565b9050612795604083018d6122d7565b6127a2606083018c612673565b6127af608083018b61210b565b81810360a08301526127c1818a61231f565b905081810360c08301526127d5818961231f565b905081810360e08301526127e9818861231f565b90508181036101008301526127fe818761231f565b9050818103610120830152612813818661218f565b9050818103610140830152612828818561218f565b905081810361016083015261283d818461231f565b90509d9c50505050505050505050505050565b600061014082019050612866600083018d612673565b8181036020830152612878818c61231f565b9050612887604083018b612673565b612894606083018a612673565b6128a1608083018961210b565b81810360a08301526128b3818861231f565b905081810360c08301526128c7818761231f565b905081810360e08301526128db818661231f565b90508181036101008301526128f0818561231f565b9050818103610120830152612905818461231f565b90509b9a5050505050505050505050565b6000612920612931565b905061292c8282612ba4565b919050565b6000604051905090565b600067ffffffffffffffff82111561295657612955612c7c565b5b602082029050602081019050919050565b600067ffffffffffffffff82111561298257612981612c7c565b5b61298b82612cab565b9050602081019050919050565b6000819050602082019050919050565b6000819050602082019050919050565b6000819050602082019050919050565b600081519050919050565b600081519050919050565b600081519050919050565b600081519050919050565b6000602082019050919050565b6000602082019050919050565b6000602082019050919050565b600082825260208201905092915050565b600082825260208201905092915050565b600082825260208201905092915050565b600082825260208201905092915050565b600082825260208201905092915050565b600082825260208201905092915050565b600081905092915050565b6000612a9782612b14565b9150612aa283612b14565b9250827fffffffffffffffffffffffffffffffffffffffffffffffffffffffffffffffff03821115612ad757612ad6612c1e565b5b828201905092915050565b6000612aed82612af4565b9050919050565b600073ffffffffffffffffffffffffffffffffffffffff82169050919050565b6000819050919050565b6000612b2982612b14565b9050919050565b82818337600083830152505050565b60005b83811015612b5d578082015181840152602081019050612b42565b83811115612b6c576000848401525b50505050565b60006002820490506001821680612b8a57607f821691505b60208210811415612b9e57612b9d612c4d565b5b50919050565b612bad82612cab565b810181811067ffffffffffffffff82111715612bcc57612bcb612c7c565b5b80604052505050565b6000612be082612b14565b91507fffffffffffffffffffffffffffffffffffffffffffffffffffffffffffffffff821415612c1357612c12612c1e565b5b600182019050919050565b7f4e487b7100000000000000000000000000000000000000000000000000000000600052601160045260246000fd5b7f4e487b7100000000000000000000000000000000000000000000000000000000600052602260045260246000fd5b7f4e487b7100000000000000000000000000000000000000000000000000000000600052604160045260246000fd5b6000601f19601f8301169050919050565b612cc581612ae2565b8114612cd057600080fd5b50565b612cdc81612b14565b8114612ce757600080fd5b5056fea26469706673582212200378e64020be6d66113e085a4fc12c5315daf20e0f3c39891642224543234ef164736f6c63430008040033",
  "linkReferences": {},
  "deployedLinkReferences": {}
}