{
  "_format": "hh-sol-artifact-1",
  "contractName": "Uptune",
  "sourceName": "contracts/Uptune.sol",
  "abi": [
    {
      "anonymous": false,
      "inputs": [
        {
          "indexed": false,
          "internalType": "uint256",
          "name": "id",
          "type": "uint256"
        },
        {
          "indexed": false,
          "internalType": "uint256",
          "name": "amount",
          "type": "uint256"
        },
        {
          "indexed": false,
          "internalType": "uint256",
          "name": "timestamp",
          "type": "uint256"
        },
        {
          "indexed": false,
          "internalType": "address",
          "name": "wallet",
          "type": "address"
        },
        {
          "indexed": false,
          "internalType": "string",
          "name": "audiogateway",
          "type": "string"
        },
        {
          "indexed": false,
          "internalType": "string",
          "name": "coverartgateway",
          "type": "string"
        },
        {
          "indexed": false,
          "internalType": "string",
          "name": "title",
          "type": "string"
        },
        {
          "indexed": false,
          "internalType": "string",
          "name": "mainAuthor",
          "type": "string"
        },
        {
          "indexed": false,
          "internalType": "string[]",
          "name": "tags",
          "type": "string[]"
        },
        {
          "indexed": false,
          "internalType": "string[]",
          "name": "genres",
          "type": "string[]"
        },
        {
          "indexed": false,
          "internalType": "string",
          "name": "authors",
          "type": "string"
        }
      ],
      "name": "AudioUploaded",
      "type": "event"
    },
    {
      "inputs": [],
      "name": "audioCount",
      "outputs": [
        {
          "internalType": "uint256",
          "name": "",
          "type": "uint256"
        }
      ],
      "stateMutability": "view",
      "type": "function"
    },
    {
      "inputs": [
        {
          "internalType": "uint256",
          "name": "",
          "type": "uint256"
        }
      ],
      "name": "audios",
      "outputs": [
        {
          "internalType": "uint256",
          "name": "id",
          "type": "uint256"
        },
        {
          "internalType": "uint256",
          "name": "amount",
          "type": "uint256"
        },
        {
          "internalType": "uint256",
          "name": "timestamp",
          "type": "uint256"
        },
        {
          "internalType": "address",
          "name": "wallet",
          "type": "address"
        },
        {
          "internalType": "string",
          "name": "audiogateway",
          "type": "string"
        },
        {
          "internalType": "string",
          "name": "coverartgateway",
          "type": "string"
        },
        {
          "internalType": "string",
          "name": "title",
          "type": "string"
        },
        {
          "internalType": "string",
          "name": "mainAuthor",
          "type": "string"
        },
        {
          "internalType": "string",
          "name": "authors",
          "type": "string"
        }
      ],
      "stateMutability": "view",
      "type": "function"
    },
    {
      "inputs": [
        {
          "internalType": "uint256",
          "name": "",
          "type": "uint256"
        }
      ],
      "name": "comments",
      "outputs": [
        {
          "internalType": "uint256",
          "name": "id",
          "type": "uint256"
        }
      ],
      "stateMutability": "view",
      "type": "function"
    },
    {
      "inputs": [],
      "name": "getAllAudio",
      "outputs": [
        {
          "components": [
            {
              "internalType": "uint256",
              "name": "id",
              "type": "uint256"
            },
            {
              "internalType": "uint256",
              "name": "amount",
              "type": "uint256"
            },
            {
              "internalType": "uint256",
              "name": "timestamp",
              "type": "uint256"
            },
            {
              "internalType": "address",
              "name": "wallet",
              "type": "address"
            },
            {
              "internalType": "string",
              "name": "audiogateway",
              "type": "string"
            },
            {
              "internalType": "string",
              "name": "coverartgateway",
              "type": "string"
            },
            {
              "internalType": "string",
              "name": "title",
              "type": "string"
            },
            {
              "internalType": "string",
              "name": "mainAuthor",
              "type": "string"
            },
            {
              "internalType": "string[]",
              "name": "tags",
              "type": "string[]"
            },
            {
              "internalType": "string[]",
              "name": "genres",
              "type": "string[]"
            },
            {
              "internalType": "string",
              "name": "authors",
              "type": "string"
            }
          ],
          "internalType": "struct Uptune.Audio[]",
          "name": "",
          "type": "tuple[]"
        }
      ],
      "stateMutability": "view",
      "type": "function"
    },
    {
      "inputs": [
        {
          "internalType": "uint256",
          "name": "_id",
          "type": "uint256"
        }
      ],
      "name": "getAllComments",
      "outputs": [
        {
          "components": [
            {
              "internalType": "uint256",
              "name": "id",
              "type": "uint256"
            },
            {
              "internalType": "string[]",
              "name": "comment",
              "type": "string[]"
            },
            {
              "internalType": "uint256[]",
              "name": "amount",
              "type": "uint256[]"
            },
            {
              "internalType": "uint256[]",
              "name": "timestamp",
              "type": "uint256[]"
            }
          ],
          "internalType": "struct Uptune.Comment",
          "name": "",
          "type": "tuple"
        }
      ],
      "stateMutability": "view",
      "type": "function"
    },
    {
      "inputs": [
        {
          "internalType": "uint256",
          "name": "_audioCount",
          "type": "uint256"
        }
      ],
      "name": "getOneAudio",
      "outputs": [
        {
          "components": [
            {
              "internalType": "uint256",
              "name": "id",
              "type": "uint256"
            },
            {
              "internalType": "uint256",
              "name": "amount",
              "type": "uint256"
            },
            {
              "internalType": "uint256",
              "name": "timestamp",
              "type": "uint256"
            },
            {
              "internalType": "address",
              "name": "wallet",
              "type": "address"
            },
            {
              "internalType": "string",
              "name": "audiogateway",
              "type": "string"
            },
            {
              "internalType": "string",
              "name": "coverartgateway",
              "type": "string"
            },
            {
              "internalType": "string",
              "name": "title",
              "type": "string"
            },
            {
              "internalType": "string",
              "name": "mainAuthor",
              "type": "string"
            },
            {
              "internalType": "string[]",
              "name": "tags",
              "type": "string[]"
            },
            {
              "internalType": "string[]",
              "name": "genres",
              "type": "string[]"
            },
            {
              "internalType": "string",
              "name": "authors",
              "type": "string"
            }
          ],
          "internalType": "struct Uptune.Audio",
          "name": "",
          "type": "tuple"
        }
      ],
      "stateMutability": "view",
      "type": "function"
    },
    {
      "inputs": [
        {
          "internalType": "uint256",
          "name": "_id",
          "type": "uint256"
        },
        {
          "internalType": "uint256",
          "name": "_amount",
          "type": "uint256"
        },
        {
          "internalType": "string",
          "name": "_message",
          "type": "string"
        },
        {
          "internalType": "uint256",
          "name": "_timestamp",
          "type": "uint256"
        }
      ],
      "name": "sendTip",
      "outputs": [],
      "stateMutability": "nonpayable",
      "type": "function"
    },
    {
      "inputs": [
        {
          "internalType": "string",
          "name": "_audiogateway",
          "type": "string"
        },
        {
          "internalType": "string",
          "name": "_coverartgateway",
          "type": "string"
        },
        {
          "internalType": "string",
          "name": "_mainAuthor",
          "type": "string"
        },
        {
          "internalType": "string",
          "name": "_title",
          "type": "string"
        },
        {
          "internalType": "string[]",
          "name": "_tags",
          "type": "string[]"
        },
        {
          "internalType": "string[]",
          "name": "_genres",
          "type": "string[]"
        },
        {
          "internalType": "string",
          "name": "_authors",
          "type": "string"
        }
      ],
      "name": "uploadAudio",
      "outputs": [],
      "stateMutability": "nonpayable",
      "type": "function"
    }
  ],
  "bytecode": "0x60806040526000805534801561001457600080fd5b506125ef806100246000396000f3fe608060405234801561001057600080fd5b50600436106100885760003560e01c80636845c1c21161005b5780636845c1c2146101295780638ebb4c15146101455780639e56ee3214610175578063cba211fa1461019157610088565b8063038421171461008d57806303926df9146100bd57806338cb3b49146100ed57806356b808de1461010b575b600080fd5b6100a760048036038101906100a291906119f9565b6101c9565b6040516100b4919061201c565b60405180910390f35b6100d760048036038101906100d291906119f9565b6106f7565b6040516100e4919061203e565b60405180910390f35b6100f56108b7565b6040516101029190612060565b60405180910390f35b6101136108bd565b6040516101209190611ffa565b60405180910390f35b610143600480360381019061013e91906118b3565b610ed5565b005b61015f600480360381019061015a91906119f9565b611156565b60405161016c9190612060565b60405180910390f35b61018f600480360381019061018a9190611a22565b611174565b005b6101ab60048036038101906101a691906119f9565b611271565b6040516101c099989796959493929190612157565b60405180910390f35b6101d1611587565b60016000838152602001908152602001600020604051806101600160405290816000820154815260200160018201548152602001600282015481526020016003820160009054906101000a900473ffffffffffffffffffffffffffffffffffffffff1673ffffffffffffffffffffffffffffffffffffffff1673ffffffffffffffffffffffffffffffffffffffff16815260200160048201805461027490612458565b80601f01602080910402602001604051908101604052809291908181526020018280546102a090612458565b80156102ed5780601f106102c2576101008083540402835291602001916102ed565b820191906000526020600020905b8154815290600101906020018083116102d057829003601f168201915b5050505050815260200160058201805461030690612458565b80601f016020809104026020016040519081016040528092919081815260200182805461033290612458565b801561037f5780601f106103545761010080835404028352916020019161037f565b820191906000526020600020905b81548152906001019060200180831161036257829003601f168201915b5050505050815260200160068201805461039890612458565b80601f01602080910402602001604051908101604052809291908181526020018280546103c490612458565b80156104115780601f106103e657610100808354040283529160200191610411565b820191906000526020600020905b8154815290600101906020018083116103f457829003601f168201915b5050505050815260200160078201805461042a90612458565b80601f016020809104026020016040519081016040528092919081815260200182805461045690612458565b80156104a35780601f10610478576101008083540402835291602001916104a3565b820191906000526020600020905b81548152906001019060200180831161048657829003601f168201915b5050505050815260200160088201805480602002602001604051908101604052809291908181526020016000905b8282101561057d5783829060005260206000200180546104f090612458565b80601f016020809104026020016040519081016040528092919081815260200182805461051c90612458565b80156105695780601f1061053e57610100808354040283529160200191610569565b820191906000526020600020905b81548152906001019060200180831161054c57829003601f168201915b5050505050815260200190600101906104d1565b50505050815260200160098201805480602002602001604051908101604052809291908181526020016000905b828210156106565783829060005260206000200180546105c990612458565b80601f01602080910402602001604051908101604052809291908181526020018280546105f590612458565b80156106425780601f1061061757610100808354040283529160200191610642565b820191906000526020600020905b81548152906001019060200180831161062557829003601f168201915b5050505050815260200190600101906105aa565b505050508152602001600a8201805461066e90612458565b80601f016020809104026020016040519081016040528092919081815260200182805461069a90612458565b80156106e75780601f106106bc576101008083540402835291602001916106e7565b820191906000526020600020905b8154815290600101906020018083116106ca57829003601f168201915b5050505050815250509050919050565b6106ff6115f7565b600260008381526020019081526020016000206040518060800160405290816000820154815260200160018201805480602002602001604051908101604052809291908181526020016000905b828210156107f857838290600052602060002001805461076b90612458565b80601f016020809104026020016040519081016040528092919081815260200182805461079790612458565b80156107e45780601f106107b9576101008083540402835291602001916107e4565b820191906000526020600020905b8154815290600101906020018083116107c757829003601f168201915b50505050508152602001906001019061074c565b5050505081526020016002820180548060200260200160405190810160405280929190818152602001828054801561084f57602002820191906000526020600020905b81548152602001906001019080831161083b575b50505050508152602001600382018054806020026020016040519081016040528092919081815260200182805480156108a757602002820191906000526020600020905b815481526020019060010190808311610893575b5050505050815250509050919050565b60005481565b60606000805467ffffffffffffffff811115610902577f4e487b7100000000000000000000000000000000000000000000000000000000600052604160045260246000fd5b60405190808252806020026020018201604052801561093b57816020015b610928611587565b8152602001906001900390816109205790505b50905060005b600054811015610ecd576001600060018361095c9190612372565b8152602001908152602001600020604051806101600160405290816000820154815260200160018201548152602001600282015481526020016003820160009054906101000a900473ffffffffffffffffffffffffffffffffffffffff1673ffffffffffffffffffffffffffffffffffffffff1673ffffffffffffffffffffffffffffffffffffffff1681526020016004820180546109fa90612458565b80601f0160208091040260200160405190810160405280929190818152602001828054610a2690612458565b8015610a735780601f10610a4857610100808354040283529160200191610a73565b820191906000526020600020905b815481529060010190602001808311610a5657829003601f168201915b50505050508152602001600582018054610a8c90612458565b80601f0160208091040260200160405190810160405280929190818152602001828054610ab890612458565b8015610b055780601f10610ada57610100808354040283529160200191610b05565b820191906000526020600020905b815481529060010190602001808311610ae857829003601f168201915b50505050508152602001600682018054610b1e90612458565b80601f0160208091040260200160405190810160405280929190818152602001828054610b4a90612458565b8015610b975780601f10610b6c57610100808354040283529160200191610b97565b820191906000526020600020905b815481529060010190602001808311610b7a57829003601f168201915b50505050508152602001600782018054610bb090612458565b80601f0160208091040260200160405190810160405280929190818152602001828054610bdc90612458565b8015610c295780601f10610bfe57610100808354040283529160200191610c29565b820191906000526020600020905b815481529060010190602001808311610c0c57829003601f168201915b5050505050815260200160088201805480602002602001604051908101604052809291908181526020016000905b82821015610d03578382906000526020600020018054610c7690612458565b80601f0160208091040260200160405190810160405280929190818152602001828054610ca290612458565b8015610cef5780601f10610cc457610100808354040283529160200191610cef565b820191906000526020600020905b815481529060010190602001808311610cd257829003601f168201915b505050505081526020019060010190610c57565b50505050815260200160098201805480602002602001604051908101604052809291908181526020016000905b82821015610ddc578382906000526020600020018054610d4f90612458565b80601f0160208091040260200160405190810160405280929190818152602001828054610d7b90612458565b8015610dc85780601f10610d9d57610100808354040283529160200191610dc8565b820191906000526020600020905b815481529060010190602001808311610dab57829003601f168201915b505050505081526020019060010190610d30565b505050508152602001600a82018054610df490612458565b80601f0160208091040260200160405190810160405280929190818152602001828054610e2090612458565b8015610e6d5780601f10610e4257610100808354040283529160200191610e6d565b820191906000526020600020905b815481529060010190602001808311610e5057829003601f168201915b505050505081525050828281518110610eaf577f4e487b7100000000000000000000000000000000000000000000000000000000600052603260045260246000fd5b60200260200101819052508080610ec5906124bb565b915050610941565b508091505090565b6000875111610ee357600080fd5b6000865111610ef157600080fd5b6000845111610eff57600080fd5b600073ffffffffffffffffffffffffffffffffffffffff163373ffffffffffffffffffffffffffffffffffffffff161415610f3957600080fd5b600080815480929190610f4b906124bb565b91905055506040518061016001604052806000548152602001600081526020014281526020013373ffffffffffffffffffffffffffffffffffffffff16815260200188815260200187815260200186815260200185815260200184815260200183815260200182815250600160008054815260200190815260200160002060008201518160000155602082015181600101556040820151816002015560608201518160030160006101000a81548173ffffffffffffffffffffffffffffffffffffffff021916908373ffffffffffffffffffffffffffffffffffffffff160217905550608082015181600401908051906020019061104a92919061161f565b5060a082015181600501908051906020019061106792919061161f565b5060c082015181600601908051906020019061108492919061161f565b5060e08201518160070190805190602001906110a192919061161f565b506101008201518160080190805190602001906110bf9291906116a5565b506101208201518160090190805190602001906110dd9291906116a5565b5061014082015181600a0190805190602001906110fb92919061161f565b509050507fa1fc5cdd23c6b76a608f4da38b2f26d481221787014b35c06cf86618b2e8d044600054600042338b8b8b8b8b8b8b6040516111459b9a9998979695949392919061207b565b60405180910390a150505050505050565b60026020528060005260406000206000915090508060000154905081565b8260016000868152602001908152602001600020600101600082825461119a9190612372565b9250508190555060026000858152602001908152602001600020600101829080600181540180825580915050600190039060005260206000200160009091909190915090805190602001906111f092919061161f565b50600260008581526020019081526020016000206002018390806001815401808255809150506001900390600052602060002001600090919091909150556002600085815260200190815260200160002060030181908060018154018082558091505060019003906000526020600020016000909190919091505550505050565b60016020528060005260406000206000915090508060000154908060010154908060020154908060030160009054906101000a900473ffffffffffffffffffffffffffffffffffffffff16908060040180546112cc90612458565b80601f01602080910402602001604051908101604052809291908181526020018280546112f890612458565b80156113455780601f1061131a57610100808354040283529160200191611345565b820191906000526020600020905b81548152906001019060200180831161132857829003601f168201915b50505050509080600501805461135a90612458565b80601f016020809104026020016040519081016040528092919081815260200182805461138690612458565b80156113d35780601f106113a8576101008083540402835291602001916113d3565b820191906000526020600020905b8154815290600101906020018083116113b657829003601f168201915b5050505050908060060180546113e890612458565b80601f016020809104026020016040519081016040528092919081815260200182805461141490612458565b80156114615780601f1061143657610100808354040283529160200191611461565b820191906000526020600020905b81548152906001019060200180831161144457829003601f168201915b50505050509080600701805461147690612458565b80601f01602080910402602001604051908101604052809291908181526020018280546114a290612458565b80156114ef5780601f106114c4576101008083540402835291602001916114ef565b820191906000526020600020905b8154815290600101906020018083116114d257829003601f168201915b50505050509080600a01805461150490612458565b80601f016020809104026020016040519081016040528092919081815260200182805461153090612458565b801561157d5780601f106115525761010080835404028352916020019161157d565b820191906000526020600020905b81548152906001019060200180831161156057829003601f168201915b5050505050905089565b604051806101600160405280600081526020016000815260200160008152602001600073ffffffffffffffffffffffffffffffffffffffff168152602001606081526020016060815260200160608152602001606081526020016060815260200160608152602001606081525090565b6040518060800160405280600081526020016060815260200160608152602001606081525090565b82805461162b90612458565b90600052602060002090601f01602090048101928261164d5760008555611694565b82601f1061166657805160ff1916838001178555611694565b82800160010185558215611694579182015b82811115611693578251825591602001919060010190611678565b5b5090506116a19190611705565b5090565b8280548282559060005260206000209081019282156116f4579160200282015b828111156116f35782518290805190602001906116e392919061161f565b50916020019190600101906116c5565b5b5090506117019190611722565b5090565b5b8082111561171e576000816000905550600101611706565b5090565b5b8082111561174257600081816117399190611746565b50600101611723565b5090565b50805461175290612458565b6000825580601f106117645750611783565b601f0160209004906000526020600020908101906117829190611705565b5b50565b60006117996117948461222c565b612207565b905080838252602082019050828560208602820111156117b857600080fd5b60005b8581101561180257813567ffffffffffffffff8111156117da57600080fd5b8086016117e78982611874565b855260208501945060208401935050506001810190506117bb565b5050509392505050565b600061181f61181a84612258565b612207565b90508281526020810184848401111561183757600080fd5b611842848285612416565b509392505050565b600082601f83011261185b57600080fd5b813561186b848260208601611786565b91505092915050565b600082601f83011261188557600080fd5b813561189584826020860161180c565b91505092915050565b6000813590506118ad816125a2565b92915050565b600080600080600080600060e0888a0312156118ce57600080fd5b600088013567ffffffffffffffff8111156118e857600080fd5b6118f48a828b01611874565b975050602088013567ffffffffffffffff81111561191157600080fd5b61191d8a828b01611874565b965050604088013567ffffffffffffffff81111561193a57600080fd5b6119468a828b01611874565b955050606088013567ffffffffffffffff81111561196357600080fd5b61196f8a828b01611874565b945050608088013567ffffffffffffffff81111561198c57600080fd5b6119988a828b0161184a565b93505060a088013567ffffffffffffffff8111156119b557600080fd5b6119c18a828b0161184a565b92505060c088013567ffffffffffffffff8111156119de57600080fd5b6119ea8a828b01611874565b91505092959891949750929550565b600060208284031215611a0b57600080fd5b6000611a198482850161189e565b91505092915050565b60008060008060808587031215611a3857600080fd5b6000611a468782880161189e565b9450506020611a578782880161189e565b935050604085013567ffffffffffffffff811115611a7457600080fd5b611a8087828801611874565b9250506060611a918782880161189e565b91505092959194509250565b6000611aa98383611cc7565b905092915050565b6000611abd8383611d39565b905092915050565b6000611ad18383611fdc565b60208301905092915050565b611ae6816123c8565b82525050565b611af5816123c8565b82525050565b6000611b06826122b9565b611b10818561230c565b935083602082028501611b2285612289565b8060005b85811015611b5e5784840389528151611b3f8582611a9d565b9450611b4a836122e5565b925060208a01995050600181019050611b26565b50829750879550505050505092915050565b6000611b7b826122b9565b611b85818561231d565b935083602082028501611b9785612289565b8060005b85811015611bd35784840389528151611bb48582611a9d565b9450611bbf836122e5565b925060208a01995050600181019050611b9b565b50829750879550505050505092915050565b6000611bf0826122c4565b611bfa818561232e565b935083602082028501611c0c85612299565b8060005b85811015611c485784840389528151611c298582611ab1565b9450611c34836122f2565b925060208a01995050600181019050611c10565b50829750879550505050505092915050565b6000611c65826122cf565b611c6f818561233f565b9350611c7a836122a9565b8060005b83811015611cab578151611c928882611ac5565b9750611c9d836122ff565b925050600181019050611c7e565b5085935050505092915050565b611cc181612404565b82525050565b6000611cd2826122da565b611cdc8185612350565b9350611cec818560208601612425565b611cf581612591565b840191505092915050565b6000611d0b826122da565b611d158185612361565b9350611d25818560208601612425565b611d2e81612591565b840191505092915050565b600061016083016000830151611d526000860182611fdc565b506020830151611d656020860182611fdc565b506040830151611d786040860182611fdc565b506060830151611d8b6060860182611add565b5060808301518482036080860152611da38282611cc7565b91505060a083015184820360a0860152611dbd8282611cc7565b91505060c083015184820360c0860152611dd78282611cc7565b91505060e083015184820360e0860152611df18282611cc7565b915050610100830151848203610100860152611e0d8282611afb565b915050610120830151848203610120860152611e298282611afb565b915050610140830151848203610140860152611e458282611cc7565b9150508091505092915050565b600061016083016000830151611e6b6000860182611fdc565b506020830151611e7e6020860182611fdc565b506040830151611e916040860182611fdc565b506060830151611ea46060860182611add565b5060808301518482036080860152611ebc8282611cc7565b91505060a083015184820360a0860152611ed68282611cc7565b91505060c083015184820360c0860152611ef08282611cc7565b91505060e083015184820360e0860152611f0a8282611cc7565b915050610100830151848203610100860152611f268282611afb565b915050610120830151848203610120860152611f428282611afb565b915050610140830151848203610140860152611f5e8282611cc7565b9150508091505092915050565b6000608083016000830151611f836000860182611fdc565b5060208301518482036020860152611f9b8282611afb565b91505060408301518482036040860152611fb58282611c5a565b91505060608301518482036060860152611fcf8282611c5a565b9150508091505092915050565b611fe5816123fa565b82525050565b611ff4816123fa565b82525050565b600060208201905081810360008301526120148184611be5565b905092915050565b600060208201905081810360008301526120368184611e52565b905092915050565b600060208201905081810360008301526120588184611f6b565b905092915050565b60006020820190506120756000830184611feb565b92915050565b600061016082019050612091600083018e611feb565b61209e602083018d611cb8565b6120ab604083018c611feb565b6120b8606083018b611aec565b81810360808301526120ca818a611d00565b905081810360a08301526120de8189611d00565b905081810360c08301526120f28188611d00565b905081810360e08301526121068187611d00565b905081810361010083015261211b8186611b70565b90508181036101208301526121308185611b70565b90508181036101408301526121458184611d00565b90509c9b505050505050505050505050565b60006101208201905061216d600083018c611feb565b61217a602083018b611feb565b612187604083018a611feb565b6121946060830189611aec565b81810360808301526121a68188611d00565b905081810360a08301526121ba8187611d00565b905081810360c08301526121ce8186611d00565b905081810360e08301526121e28185611d00565b90508181036101008301526121f78184611d00565b90509a9950505050505050505050565b6000612211612222565b905061221d828261248a565b919050565b6000604051905090565b600067ffffffffffffffff82111561224757612246612562565b5b602082029050602081019050919050565b600067ffffffffffffffff82111561227357612272612562565b5b61227c82612591565b9050602081019050919050565b6000819050602082019050919050565b6000819050602082019050919050565b6000819050602082019050919050565b600081519050919050565b600081519050919050565b600081519050919050565b600081519050919050565b6000602082019050919050565b6000602082019050919050565b6000602082019050919050565b600082825260208201905092915050565b600082825260208201905092915050565b600082825260208201905092915050565b600082825260208201905092915050565b600082825260208201905092915050565b600082825260208201905092915050565b600061237d826123fa565b9150612388836123fa565b9250827fffffffffffffffffffffffffffffffffffffffffffffffffffffffffffffffff038211156123bd576123bc612504565b5b828201905092915050565b60006123d3826123da565b9050919050565b600073ffffffffffffffffffffffffffffffffffffffff82169050919050565b6000819050919050565b600061240f826123fa565b9050919050565b82818337600083830152505050565b60005b83811015612443578082015181840152602081019050612428565b83811115612452576000848401525b50505050565b6000600282049050600182168061247057607f821691505b6020821081141561248457612483612533565b5b50919050565b61249382612591565b810181811067ffffffffffffffff821117156124b2576124b1612562565b5b80604052505050565b60006124c6826123fa565b91507fffffffffffffffffffffffffffffffffffffffffffffffffffffffffffffffff8214156124f9576124f8612504565b5b600182019050919050565b7f4e487b7100000000000000000000000000000000000000000000000000000000600052601160045260246000fd5b7f4e487b7100000000000000000000000000000000000000000000000000000000600052602260045260246000fd5b7f4e487b7100000000000000000000000000000000000000000000000000000000600052604160045260246000fd5b6000601f19601f8301169050919050565b6125ab816123fa565b81146125b657600080fd5b5056fea264697066735822122024a5a6ea411231ce25df5d2c54b9d82a1b02dd99026c0ec7471a1aa6eaf0500b64736f6c63430008040033",
  "linkReferences": {},
  "deployedLinkReferences": {}
}