{
  "_format": "hh-sol-artifact-1",
  "contractName": "Uptune",
  "sourceName": "contracts/Uptune.sol",
  "abi": [
    {
      "anonymous": false,
      "inputs": [
        {
          "indexed": false,
          "internalType": "uint256",
          "name": "id",
          "type": "uint256"
        },
        {
          "indexed": false,
          "internalType": "string",
          "name": "uuid",
          "type": "string"
        },
        {
          "indexed": false,
          "internalType": "uint256",
          "name": "amount",
          "type": "uint256"
        },
        {
          "indexed": false,
          "internalType": "uint256",
          "name": "timestamp",
          "type": "uint256"
        },
        {
          "indexed": false,
          "internalType": "address",
          "name": "wallet",
          "type": "address"
        },
        {
          "indexed": false,
          "internalType": "string",
          "name": "audiogateway",
          "type": "string"
        },
        {
          "indexed": false,
          "internalType": "string",
          "name": "coverartgateway",
          "type": "string"
        },
        {
          "indexed": false,
          "internalType": "string",
          "name": "title",
          "type": "string"
        },
        {
          "indexed": false,
          "internalType": "string",
          "name": "mainAuthor",
          "type": "string"
        },
        {
          "indexed": false,
          "internalType": "string[]",
          "name": "tags",
          "type": "string[]"
        },
        {
          "indexed": false,
          "internalType": "string[]",
          "name": "genres",
          "type": "string[]"
        },
        {
          "indexed": false,
          "internalType": "string",
          "name": "authors",
          "type": "string"
        }
      ],
      "name": "AudioUploaded",
      "type": "event"
    },
    {
      "inputs": [
        {
          "internalType": "address",
          "name": "_add",
          "type": "address"
        }
      ],
      "name": "artistExists",
      "outputs": [
        {
          "internalType": "bool",
          "name": "",
          "type": "bool"
        }
      ],
      "stateMutability": "view",
      "type": "function"
    },
    {
      "inputs": [
        {
          "internalType": "address",
          "name": "",
          "type": "address"
        }
      ],
      "name": "artists",
      "outputs": [
        {
          "internalType": "address",
          "name": "id",
          "type": "address"
        },
        {
          "internalType": "string",
          "name": "artistID",
          "type": "string"
        },
        {
          "internalType": "string",
          "name": "artist",
          "type": "string"
        },
        {
          "internalType": "string",
          "name": "profilegateway",
          "type": "string"
        }
      ],
      "stateMutability": "view",
      "type": "function"
    },
    {
      "inputs": [],
      "name": "audioCount",
      "outputs": [
        {
          "internalType": "uint256",
          "name": "",
          "type": "uint256"
        }
      ],
      "stateMutability": "view",
      "type": "function"
    },
    {
      "inputs": [
        {
          "internalType": "uint256",
          "name": "",
          "type": "uint256"
        }
      ],
      "name": "audios",
      "outputs": [
        {
          "internalType": "uint256",
          "name": "id",
          "type": "uint256"
        },
        {
          "internalType": "string",
          "name": "uuid",
          "type": "string"
        },
        {
          "internalType": "uint256",
          "name": "amount",
          "type": "uint256"
        },
        {
          "internalType": "uint256",
          "name": "timestamp",
          "type": "uint256"
        },
        {
          "internalType": "address",
          "name": "wallet",
          "type": "address"
        },
        {
          "internalType": "string",
          "name": "audiogateway",
          "type": "string"
        },
        {
          "internalType": "string",
          "name": "coverartgateway",
          "type": "string"
        },
        {
          "internalType": "string",
          "name": "title",
          "type": "string"
        },
        {
          "internalType": "string",
          "name": "mainAuthor",
          "type": "string"
        },
        {
          "internalType": "string",
          "name": "authors",
          "type": "string"
        }
      ],
      "stateMutability": "view",
      "type": "function"
    },
    {
      "inputs": [
        {
          "internalType": "uint256",
          "name": "",
          "type": "uint256"
        }
      ],
      "name": "comments",
      "outputs": [
        {
          "internalType": "uint256",
          "name": "id",
          "type": "uint256"
        }
      ],
      "stateMutability": "view",
      "type": "function"
    },
    {
      "inputs": [
        {
          "internalType": "string",
          "name": "_artistID",
          "type": "string"
        },
        {
          "internalType": "string",
          "name": "_artist",
          "type": "string"
        },
        {
          "internalType": "string",
          "name": "_artistgateway",
          "type": "string"
        }
      ],
      "name": "createArtist",
      "outputs": [],
      "stateMutability": "nonpayable",
      "type": "function"
    },
    {
      "inputs": [],
      "name": "getAllAudio",
      "outputs": [
        {
          "components": [
            {
              "internalType": "uint256",
              "name": "id",
              "type": "uint256"
            },
            {
              "internalType": "string",
              "name": "uuid",
              "type": "string"
            },
            {
              "internalType": "uint256",
              "name": "amount",
              "type": "uint256"
            },
            {
              "internalType": "uint256",
              "name": "timestamp",
              "type": "uint256"
            },
            {
              "internalType": "address",
              "name": "wallet",
              "type": "address"
            },
            {
              "internalType": "string",
              "name": "audiogateway",
              "type": "string"
            },
            {
              "internalType": "string",
              "name": "coverartgateway",
              "type": "string"
            },
            {
              "internalType": "string",
              "name": "title",
              "type": "string"
            },
            {
              "internalType": "string",
              "name": "mainAuthor",
              "type": "string"
            },
            {
              "internalType": "string[]",
              "name": "tags",
              "type": "string[]"
            },
            {
              "internalType": "string[]",
              "name": "genres",
              "type": "string[]"
            },
            {
              "internalType": "string",
              "name": "authors",
              "type": "string"
            }
          ],
          "internalType": "struct Uptune.Audio[]",
          "name": "",
          "type": "tuple[]"
        }
      ],
      "stateMutability": "view",
      "type": "function"
    },
    {
      "inputs": [
        {
          "internalType": "uint256",
          "name": "_id",
          "type": "uint256"
        }
      ],
      "name": "getAllComments",
      "outputs": [
        {
          "components": [
            {
              "internalType": "uint256",
              "name": "id",
              "type": "uint256"
            },
            {
              "internalType": "string[]",
              "name": "comment",
              "type": "string[]"
            },
            {
              "internalType": "uint256[]",
              "name": "amount",
              "type": "uint256[]"
            },
            {
              "internalType": "uint256[]",
              "name": "timestamp",
              "type": "uint256[]"
            }
          ],
          "internalType": "struct Uptune.Comment",
          "name": "",
          "type": "tuple"
        }
      ],
      "stateMutability": "view",
      "type": "function"
    },
    {
      "inputs": [
        {
          "internalType": "address",
          "name": "_add",
          "type": "address"
        }
      ],
      "name": "getArtist",
      "outputs": [
        {
          "components": [
            {
              "internalType": "address",
              "name": "id",
              "type": "address"
            },
            {
              "internalType": "string[]",
              "name": "songs",
              "type": "string[]"
            },
            {
              "internalType": "string",
              "name": "artistID",
              "type": "string"
            },
            {
              "internalType": "string",
              "name": "artist",
              "type": "string"
            },
            {
              "internalType": "string",
              "name": "profilegateway",
              "type": "string"
            }
          ],
          "internalType": "struct Uptune.Artist",
          "name": "",
          "type": "tuple"
        }
      ],
      "stateMutability": "view",
      "type": "function"
    },
    {
      "inputs": [
        {
          "internalType": "string",
          "name": "_uuid",
          "type": "string"
        }
      ],
      "name": "getOneAudio",
      "outputs": [
        {
          "components": [
            {
              "internalType": "uint256",
              "name": "id",
              "type": "uint256"
            },
            {
              "internalType": "string",
              "name": "uuid",
              "type": "string"
            },
            {
              "internalType": "uint256",
              "name": "amount",
              "type": "uint256"
            },
            {
              "internalType": "uint256",
              "name": "timestamp",
              "type": "uint256"
            },
            {
              "internalType": "address",
              "name": "wallet",
              "type": "address"
            },
            {
              "internalType": "string",
              "name": "audiogateway",
              "type": "string"
            },
            {
              "internalType": "string",
              "name": "coverartgateway",
              "type": "string"
            },
            {
              "internalType": "string",
              "name": "title",
              "type": "string"
            },
            {
              "internalType": "string",
              "name": "mainAuthor",
              "type": "string"
            },
            {
              "internalType": "string[]",
              "name": "tags",
              "type": "string[]"
            },
            {
              "internalType": "string[]",
              "name": "genres",
              "type": "string[]"
            },
            {
              "internalType": "string",
              "name": "authors",
              "type": "string"
            }
          ],
          "internalType": "struct Uptune.Audio",
          "name": "",
          "type": "tuple"
        }
      ],
      "stateMutability": "view",
      "type": "function"
    },
    {
      "inputs": [
        {
          "internalType": "uint256",
          "name": "_id",
          "type": "uint256"
        },
        {
          "internalType": "uint256",
          "name": "_amount",
          "type": "uint256"
        },
        {
          "internalType": "string",
          "name": "_message",
          "type": "string"
        }
      ],
      "name": "sendTip",
      "outputs": [],
      "stateMutability": "nonpayable",
      "type": "function"
    },
    {
      "inputs": [
        {
          "internalType": "string",
          "name": "_uuid",
          "type": "string"
        },
        {
          "internalType": "string",
          "name": "_audiogateway",
          "type": "string"
        },
        {
          "internalType": "string",
          "name": "_coverartgateway",
          "type": "string"
        },
        {
          "internalType": "string",
          "name": "_mainAuthor",
          "type": "string"
        },
        {
          "internalType": "string",
          "name": "_title",
          "type": "string"
        },
        {
          "internalType": "string[]",
          "name": "_tags",
          "type": "string[]"
        },
        {
          "internalType": "string[]",
          "name": "_genres",
          "type": "string[]"
        },
        {
          "internalType": "string",
          "name": "_authors",
          "type": "string"
        }
      ],
      "name": "uploadAudio",
      "outputs": [],
      "stateMutability": "nonpayable",
      "type": "function"
    },
    {
      "inputs": [
        {
          "internalType": "string",
          "name": "",
          "type": "string"
        }
      ],
      "name": "uuidToId",
      "outputs": [
        {
          "internalType": "uint256",
          "name": "",
          "type": "uint256"
        }
      ],
      "stateMutability": "view",
      "type": "function"
    }
  ],
  "bytecode": "0x60806040526000805534801561001457600080fd5b5061346c806100246000396000f3fe608060405234801561001057600080fd5b50600436106100cf5760003560e01c80638d1783411161008c578063b949c80411610066578063b949c8041461024f578063c65f47b51461027f578063cba211fa1461029b578063f0339d88146102d4576100cf565b80638d178341146101bf5780638ebb4c15146101ef5780639117b16b1461021f576100cf565b806303926df9146100d4578063069dab8f1461010457806310afc0cf1461013757806338cb3b491461015357806356b808de146101715780636562d2cf1461018f575b600080fd5b6100ee60048036038101906100e9919061267f565b6102f0565b6040516100fb9190612e61565b60405180910390f35b61011e6004803603810190610119919061240c565b6104b0565b60405161012e9493929190612d86565b60405180910390f35b610151600480360381019061014c9190612476565b610698565b005b61015b610823565b6040516101689190612e83565b60405180910390f35b610179610829565b6040516101869190612de0565b60405180910390f35b6101a960048036038101906101a49190612435565b610ed3565b6040516101b69190612e83565b60405180910390f35b6101d960048036038101906101d49190612435565b610f01565b6040516101e69190612e3f565b60405180910390f35b6102096004803603810190610204919061267f565b6114df565b6040516102169190612e83565b60405180910390f35b6102396004803603810190610234919061240c565b6114fd565b6040516102469190612e02565b60405180910390f35b6102696004803603810190610264919061240c565b611558565b6040516102769190612e1d565b60405180910390f35b6102996004803603810190610294919061250d565b611896565b005b6102b560048036038101906102b0919061267f565b611bdf565b6040516102cb9a99989796959493929190612f90565b60405180910390f35b6102ee60048036038101906102e991906126a8565b611f83565b005b6102f861207f565b600260008381526020019081526020016000206040518060800160405290816000820154815260200160018201805480602002602001604051908101604052809291908181526020016000905b828210156103f1578382906000526020600020018054610364906132be565b80601f0160208091040260200160405190810160405280929190818152602001828054610390906132be565b80156103dd5780601f106103b2576101008083540402835291602001916103dd565b820191906000526020600020905b8154815290600101906020018083116103c057829003601f168201915b505050505081526020019060010190610345565b5050505081526020016002820180548060200260200160405190810160405280929190818152602001828054801561044857602002820191906000526020600020905b815481526020019060010190808311610434575b50505050508152602001600382018054806020026020016040519081016040528092919081815260200182805480156104a057602002820191906000526020600020905b81548152602001906001019080831161048c575b5050505050815250509050919050565b60036020528060005260406000206000915090508060000160009054906101000a900473ffffffffffffffffffffffffffffffffffffffff16908060020180546104f9906132be565b80601f0160208091040260200160405190810160405280929190818152602001828054610525906132be565b80156105725780601f1061054757610100808354040283529160200191610572565b820191906000526020600020905b81548152906001019060200180831161055557829003601f168201915b505050505090806003018054610587906132be565b80601f01602080910402602001604051908101604052809291908181526020018280546105b3906132be565b80156106005780601f106105d557610100808354040283529160200191610600565b820191906000526020600020905b8154815290600101906020018083116105e357829003601f168201915b505050505090806004018054610615906132be565b80601f0160208091040260200160405190810160405280929190818152602001828054610641906132be565b801561068e5780601f106106635761010080835404028352916020019161068e565b820191906000526020600020905b81548152906001019060200180831161067157829003601f168201915b5050505050905084565b33600360003373ffffffffffffffffffffffffffffffffffffffff1673ffffffffffffffffffffffffffffffffffffffff16815260200190815260200160002060000160006101000a81548173ffffffffffffffffffffffffffffffffffffffff021916908373ffffffffffffffffffffffffffffffffffffffff16021790555082600360003373ffffffffffffffffffffffffffffffffffffffff1673ffffffffffffffffffffffffffffffffffffffff168152602001908152602001600020600201908051906020019061076f9291906120a7565b5081600360003373ffffffffffffffffffffffffffffffffffffffff1673ffffffffffffffffffffffffffffffffffffffff16815260200190815260200160002060030190805190602001906107c69291906120a7565b5080600360003373ffffffffffffffffffffffffffffffffffffffff1673ffffffffffffffffffffffffffffffffffffffff168152602001908152602001600020600401908051906020019061081d9291906120a7565b50505050565b60005481565b60606000805467ffffffffffffffff81111561086e577f4e487b7100000000000000000000000000000000000000000000000000000000600052604160045260246000fd5b6040519080825280602002602001820160405280156108a757816020015b61089461212d565b81526020019060019003908161088c5790505b50905060005b600054811015610ecb57600160006001836108c891906131cc565b815260200190815260200160002060405180610180016040529081600082015481526020016001820180546108fc906132be565b80601f0160208091040260200160405190810160405280929190818152602001828054610928906132be565b80156109755780601f1061094a57610100808354040283529160200191610975565b820191906000526020600020905b81548152906001019060200180831161095857829003601f168201915b5050505050815260200160028201548152602001600382015481526020016004820160009054906101000a900473ffffffffffffffffffffffffffffffffffffffff1673ffffffffffffffffffffffffffffffffffffffff1673ffffffffffffffffffffffffffffffffffffffff1681526020016005820180546109f8906132be565b80601f0160208091040260200160405190810160405280929190818152602001828054610a24906132be565b8015610a715780601f10610a4657610100808354040283529160200191610a71565b820191906000526020600020905b815481529060010190602001808311610a5457829003601f168201915b50505050508152602001600682018054610a8a906132be565b80601f0160208091040260200160405190810160405280929190818152602001828054610ab6906132be565b8015610b035780601f10610ad857610100808354040283529160200191610b03565b820191906000526020600020905b815481529060010190602001808311610ae657829003601f168201915b50505050508152602001600782018054610b1c906132be565b80601f0160208091040260200160405190810160405280929190818152602001828054610b48906132be565b8015610b955780601f10610b6a57610100808354040283529160200191610b95565b820191906000526020600020905b815481529060010190602001808311610b7857829003601f168201915b50505050508152602001600882018054610bae906132be565b80601f0160208091040260200160405190810160405280929190818152602001828054610bda906132be565b8015610c275780601f10610bfc57610100808354040283529160200191610c27565b820191906000526020600020905b815481529060010190602001808311610c0a57829003601f168201915b5050505050815260200160098201805480602002602001604051908101604052809291908181526020016000905b82821015610d01578382906000526020600020018054610c74906132be565b80601f0160208091040260200160405190810160405280929190818152602001828054610ca0906132be565b8015610ced5780601f10610cc257610100808354040283529160200191610ced565b820191906000526020600020905b815481529060010190602001808311610cd057829003601f168201915b505050505081526020019060010190610c55565b505050508152602001600a8201805480602002602001604051908101604052809291908181526020016000905b82821015610dda578382906000526020600020018054610d4d906132be565b80601f0160208091040260200160405190810160405280929190818152602001828054610d79906132be565b8015610dc65780601f10610d9b57610100808354040283529160200191610dc6565b820191906000526020600020905b815481529060010190602001808311610da957829003601f168201915b505050505081526020019060010190610d2e565b505050508152602001600b82018054610df2906132be565b80601f0160208091040260200160405190810160405280929190818152602001828054610e1e906132be565b8015610e6b5780601f10610e4057610100808354040283529160200191610e6b565b820191906000526020600020905b815481529060010190602001808311610e4e57829003601f168201915b505050505081525050828281518110610ead577f4e487b7100000000000000000000000000000000000000000000000000000000600052603260045260246000fd5b60200260200101819052508080610ec390613321565b9150506108ad565b508091505090565b6004818051602081018201805184825260208301602085012081835280955050505050506000915090505481565b610f0961212d565b60016000600484604051610f1d9190612d6f565b90815260200160405180910390205481526020019081526020016000206040518061018001604052908160008201548152602001600182018054610f60906132be565b80601f0160208091040260200160405190810160405280929190818152602001828054610f8c906132be565b8015610fd95780601f10610fae57610100808354040283529160200191610fd9565b820191906000526020600020905b815481529060010190602001808311610fbc57829003601f168201915b5050505050815260200160028201548152602001600382015481526020016004820160009054906101000a900473ffffffffffffffffffffffffffffffffffffffff1673ffffffffffffffffffffffffffffffffffffffff1673ffffffffffffffffffffffffffffffffffffffff16815260200160058201805461105c906132be565b80601f0160208091040260200160405190810160405280929190818152602001828054611088906132be565b80156110d55780601f106110aa576101008083540402835291602001916110d5565b820191906000526020600020905b8154815290600101906020018083116110b857829003601f168201915b505050505081526020016006820180546110ee906132be565b80601f016020809104026020016040519081016040528092919081815260200182805461111a906132be565b80156111675780601f1061113c57610100808354040283529160200191611167565b820191906000526020600020905b81548152906001019060200180831161114a57829003601f168201915b50505050508152602001600782018054611180906132be565b80601f01602080910402602001604051908101604052809291908181526020018280546111ac906132be565b80156111f95780601f106111ce576101008083540402835291602001916111f9565b820191906000526020600020905b8154815290600101906020018083116111dc57829003601f168201915b50505050508152602001600882018054611212906132be565b80601f016020809104026020016040519081016040528092919081815260200182805461123e906132be565b801561128b5780601f106112605761010080835404028352916020019161128b565b820191906000526020600020905b81548152906001019060200180831161126e57829003601f168201915b5050505050815260200160098201805480602002602001604051908101604052809291908181526020016000905b828210156113655783829060005260206000200180546112d8906132be565b80601f0160208091040260200160405190810160405280929190818152602001828054611304906132be565b80156113515780601f1061132657610100808354040283529160200191611351565b820191906000526020600020905b81548152906001019060200180831161133457829003601f168201915b5050505050815260200190600101906112b9565b505050508152602001600a8201805480602002602001604051908101604052809291908181526020016000905b8282101561143e5783829060005260206000200180546113b1906132be565b80601f01602080910402602001604051908101604052809291908181526020018280546113dd906132be565b801561142a5780601f106113ff5761010080835404028352916020019161142a565b820191906000526020600020905b81548152906001019060200180831161140d57829003601f168201915b505050505081526020019060010190611392565b505050508152602001600b82018054611456906132be565b80601f0160208091040260200160405190810160405280929190818152602001828054611482906132be565b80156114cf5780601f106114a4576101008083540402835291602001916114cf565b820191906000526020600020905b8154815290600101906020018083116114b257829003601f168201915b5050505050815250509050919050565b60026020528060005260406000206000915090508060000154905081565b600080600360008473ffffffffffffffffffffffffffffffffffffffff1673ffffffffffffffffffffffffffffffffffffffff168152602001908152602001600020600201805461154d906132be565b905014159050919050565b6115606121a4565b600360008373ffffffffffffffffffffffffffffffffffffffff1673ffffffffffffffffffffffffffffffffffffffff1681526020019081526020016000206040518060a00160405290816000820160009054906101000a900473ffffffffffffffffffffffffffffffffffffffff1673ffffffffffffffffffffffffffffffffffffffff1673ffffffffffffffffffffffffffffffffffffffff16815260200160018201805480602002602001604051908101604052809291908181526020016000905b828210156116d1578382906000526020600020018054611644906132be565b80601f0160208091040260200160405190810160405280929190818152602001828054611670906132be565b80156116bd5780601f10611692576101008083540402835291602001916116bd565b820191906000526020600020905b8154815290600101906020018083116116a057829003601f168201915b505050505081526020019060010190611625565b5050505081526020016002820180546116e9906132be565b80601f0160208091040260200160405190810160405280929190818152602001828054611715906132be565b80156117625780601f1061173757610100808354040283529160200191611762565b820191906000526020600020905b81548152906001019060200180831161174557829003601f168201915b5050505050815260200160038201805461177b906132be565b80601f01602080910402602001604051908101604052809291908181526020018280546117a7906132be565b80156117f45780601f106117c9576101008083540402835291602001916117f4565b820191906000526020600020905b8154815290600101906020018083116117d757829003601f168201915b5050505050815260200160048201805461180d906132be565b80601f0160208091040260200160405190810160405280929190818152602001828054611839906132be565b80156118865780601f1061185b57610100808354040283529160200191611886565b820191906000526020600020905b81548152906001019060200180831161186957829003601f168201915b5050505050815250509050919050565b60008751116118a457600080fd5b60008651116118b257600080fd5b60008451116118c057600080fd5b600073ffffffffffffffffffffffffffffffffffffffff163373ffffffffffffffffffffffffffffffffffffffff1614156118fa57600080fd5b60008081548092919061190c90613321565b91905055506040518061018001604052806000548152602001898152602001600081526020014281526020013373ffffffffffffffffffffffffffffffffffffffff1681526020018881526020018781526020018581526020018681526020018481526020018381526020018281525060016000805481526020019081526020016000206000820151816000015560208201518160010190805190602001906119b69291906120a7565b50604082015181600201556060820151816003015560808201518160040160006101000a81548173ffffffffffffffffffffffffffffffffffffffff021916908373ffffffffffffffffffffffffffffffffffffffff16021790555060a0820151816005019080519060200190611a2e9291906120a7565b5060c0820151816006019080519060200190611a4b9291906120a7565b5060e0820151816007019080519060200190611a689291906120a7565b50610100820151816008019080519060200190611a869291906120a7565b50610120820151816009019080519060200190611aa49291906121e9565b5061014082015181600a019080519060200190611ac29291906121e9565b5061016082015181600b019080519060200190611ae09291906120a7565b50905050600054600489604051611af79190612d6f565b908152602001604051809103902081905550600360003373ffffffffffffffffffffffffffffffffffffffff1673ffffffffffffffffffffffffffffffffffffffff16815260200190815260200160002060010188908060018154018082558091505060019003906000526020600020016000909190919091509080519060200190611b849291906120a7565b507f7b4bf1738f1695fc7ea3a253a4757256ba17f19e818586d89056b180a1af347560005489600042338c8c8b8d8c8c8c604051611bcd9c9b9a99989796959493929190612e9e565b60405180910390a15050505050505050565b6001602052806000526040600020600091509050806000015490806001018054611c08906132be565b80601f0160208091040260200160405190810160405280929190818152602001828054611c34906132be565b8015611c815780601f10611c5657610100808354040283529160200191611c81565b820191906000526020600020905b815481529060010190602001808311611c6457829003601f168201915b5050505050908060020154908060030154908060040160009054906101000a900473ffffffffffffffffffffffffffffffffffffffff1690806005018054611cc8906132be565b80601f0160208091040260200160405190810160405280929190818152602001828054611cf4906132be565b8015611d415780601f10611d1657610100808354040283529160200191611d41565b820191906000526020600020905b815481529060010190602001808311611d2457829003601f168201915b505050505090806006018054611d56906132be565b80601f0160208091040260200160405190810160405280929190818152602001828054611d82906132be565b8015611dcf5780601f10611da457610100808354040283529160200191611dcf565b820191906000526020600020905b815481529060010190602001808311611db257829003601f168201915b505050505090806007018054611de4906132be565b80601f0160208091040260200160405190810160405280929190818152602001828054611e10906132be565b8015611e5d5780601f10611e3257610100808354040283529160200191611e5d565b820191906000526020600020905b815481529060010190602001808311611e4057829003601f168201915b505050505090806008018054611e72906132be565b80601f0160208091040260200160405190810160405280929190818152602001828054611e9e906132be565b8015611eeb5780601f10611ec057610100808354040283529160200191611eeb565b820191906000526020600020905b815481529060010190602001808311611ece57829003601f168201915b50505050509080600b018054611f00906132be565b80601f0160208091040260200160405190810160405280929190818152602001828054611f2c906132be565b8015611f795780601f10611f4e57610100808354040283529160200191611f79565b820191906000526020600020905b815481529060010190602001808311611f5c57829003601f168201915b505050505090508a565b81600160008581526020019081526020016000206002016000828254611fa991906131cc565b925050819055506002600084815260200190815260200160002060010181908060018154018082558091505060019003906000526020600020016000909190919091509080519060200190611fff9291906120a7565b506002600084815260200190815260200160002060020182908060018154018082558091505060019003906000526020600020016000909190919091505560026000848152602001908152602001600020600301429080600181540180825580915050600190039060005260206000200160009091909190915055505050565b6040518060800160405280600081526020016060815260200160608152602001606081525090565b8280546120b3906132be565b90600052602060002090601f0160209004810192826120d5576000855561211c565b82601f106120ee57805160ff191683800117855561211c565b8280016001018555821561211c579182015b8281111561211b578251825591602001919060010190612100565b5b5090506121299190612249565b5090565b60405180610180016040528060008152602001606081526020016000815260200160008152602001600073ffffffffffffffffffffffffffffffffffffffff168152602001606081526020016060815260200160608152602001606081526020016060815260200160608152602001606081525090565b6040518060a00160405280600073ffffffffffffffffffffffffffffffffffffffff168152602001606081526020016060815260200160608152602001606081525090565b828054828255906000526020600020908101928215612238579160200282015b828111156122375782518290805190602001906122279291906120a7565b5091602001919060010190612209565b5b5090506122459190612266565b5090565b5b8082111561226257600081600090555060010161224a565b5090565b5b80821115612286576000818161227d919061228a565b50600101612267565b5090565b508054612296906132be565b6000825580601f106122a857506122c7565b601f0160209004906000526020600020908101906122c69190612249565b5b50565b60006122dd6122d88461307b565b613056565b905080838252602082019050828560208602820111156122fc57600080fd5b60005b8581101561234657813567ffffffffffffffff81111561231e57600080fd5b80860161232b89826123cd565b855260208501945060208401935050506001810190506122ff565b5050509392505050565b600061236361235e846130a7565b613056565b90508281526020810184848401111561237b57600080fd5b61238684828561327c565b509392505050565b60008135905061239d81613408565b92915050565b600082601f8301126123b457600080fd5b81356123c48482602086016122ca565b91505092915050565b600082601f8301126123de57600080fd5b81356123ee848260208601612350565b91505092915050565b6000813590506124068161341f565b92915050565b60006020828403121561241e57600080fd5b600061242c8482850161238e565b91505092915050565b60006020828403121561244757600080fd5b600082013567ffffffffffffffff81111561246157600080fd5b61246d848285016123cd565b91505092915050565b60008060006060848603121561248b57600080fd5b600084013567ffffffffffffffff8111156124a557600080fd5b6124b1868287016123cd565b935050602084013567ffffffffffffffff8111156124ce57600080fd5b6124da868287016123cd565b925050604084013567ffffffffffffffff8111156124f757600080fd5b612503868287016123cd565b9150509250925092565b600080600080600080600080610100898b03121561252a57600080fd5b600089013567ffffffffffffffff81111561254457600080fd5b6125508b828c016123cd565b985050602089013567ffffffffffffffff81111561256d57600080fd5b6125798b828c016123cd565b975050604089013567ffffffffffffffff81111561259657600080fd5b6125a28b828c016123cd565b965050606089013567ffffffffffffffff8111156125bf57600080fd5b6125cb8b828c016123cd565b955050608089013567ffffffffffffffff8111156125e857600080fd5b6125f48b828c016123cd565b94505060a089013567ffffffffffffffff81111561261157600080fd5b61261d8b828c016123a3565b93505060c089013567ffffffffffffffff81111561263a57600080fd5b6126468b828c016123a3565b92505060e089013567ffffffffffffffff81111561266357600080fd5b61266f8b828c016123cd565b9150509295985092959890939650565b60006020828403121561269157600080fd5b600061269f848285016123f7565b91505092915050565b6000806000606084860312156126bd57600080fd5b60006126cb868287016123f7565b93505060206126dc868287016123f7565b925050604084013567ffffffffffffffff8111156126f957600080fd5b612705868287016123cd565b9150509250925092565b600061271b8383612948565b905092915050565b600061272f8383612a76565b905092915050565b60006127438383612d51565b60208301905092915050565b61275881613222565b82525050565b61276781613222565b82525050565b600061277882613108565b612782818561315b565b935083602082028501612794856130d8565b8060005b858110156127d057848403895281516127b1858261270f565b94506127bc83613134565b925060208a01995050600181019050612798565b50829750879550505050505092915050565b60006127ed82613108565b6127f7818561316c565b935083602082028501612809856130d8565b8060005b858110156128455784840389528151612826858261270f565b945061283183613134565b925060208a0199505060018101905061280d565b50829750879550505050505092915050565b600061286282613113565b61286c818561317d565b93508360208202850161287e856130e8565b8060005b858110156128ba578484038952815161289b8582612723565b94506128a683613141565b925060208a01995050600181019050612882565b50829750879550505050505092915050565b60006128d78261311e565b6128e1818561318e565b93506128ec836130f8565b8060005b8381101561291d5781516129048882612737565b975061290f8361314e565b9250506001810190506128f0565b5085935050505092915050565b61293381613234565b82525050565b6129428161326a565b82525050565b600061295382613129565b61295d818561319f565b935061296d81856020860161328b565b612976816133f7565b840191505092915050565b600061298c82613129565b61299681856131b0565b93506129a681856020860161328b565b6129af816133f7565b840191505092915050565b60006129c582613129565b6129cf81856131c1565b93506129df81856020860161328b565b80840191505092915050565b600060a083016000830151612a03600086018261274f565b5060208301518482036020860152612a1b828261276d565b91505060408301518482036040860152612a358282612948565b91505060608301518482036060860152612a4f8282612948565b91505060808301518482036080860152612a698282612948565b9150508091505092915050565b600061018083016000830151612a8f6000860182612d51565b5060208301518482036020860152612aa78282612948565b9150506040830151612abc6040860182612d51565b506060830151612acf6060860182612d51565b506080830151612ae2608086018261274f565b5060a083015184820360a0860152612afa8282612948565b91505060c083015184820360c0860152612b148282612948565b91505060e083015184820360e0860152612b2e8282612948565b915050610100830151848203610100860152612b4a8282612948565b915050610120830151848203610120860152612b66828261276d565b915050610140830151848203610140860152612b82828261276d565b915050610160830151848203610160860152612b9e8282612948565b9150508091505092915050565b600061018083016000830151612bc46000860182612d51565b5060208301518482036020860152612bdc8282612948565b9150506040830151612bf16040860182612d51565b506060830151612c046060860182612d51565b506080830151612c17608086018261274f565b5060a083015184820360a0860152612c2f8282612948565b91505060c083015184820360c0860152612c498282612948565b91505060e083015184820360e0860152612c638282612948565b915050610100830151848203610100860152612c7f8282612948565b915050610120830151848203610120860152612c9b828261276d565b915050610140830151848203610140860152612cb7828261276d565b915050610160830151848203610160860152612cd38282612948565b9150508091505092915050565b6000608083016000830151612cf86000860182612d51565b5060208301518482036020860152612d10828261276d565b91505060408301518482036040860152612d2a82826128cc565b91505060608301518482036060860152612d4482826128cc565b9150508091505092915050565b612d5a81613260565b82525050565b612d6981613260565b82525050565b6000612d7b82846129ba565b915081905092915050565b6000608082019050612d9b600083018761275e565b8181036020830152612dad8186612981565b90508181036040830152612dc18185612981565b90508181036060830152612dd58184612981565b905095945050505050565b60006020820190508181036000830152612dfa8184612857565b905092915050565b6000602082019050612e17600083018461292a565b92915050565b60006020820190508181036000830152612e3781846129eb565b905092915050565b60006020820190508181036000830152612e598184612bab565b905092915050565b60006020820190508181036000830152612e7b8184612ce0565b905092915050565b6000602082019050612e986000830184612d60565b92915050565b600061018082019050612eb4600083018f612d60565b8181036020830152612ec6818e612981565b9050612ed5604083018d612939565b612ee2606083018c612d60565b612eef608083018b61275e565b81810360a0830152612f01818a612981565b905081810360c0830152612f158189612981565b905081810360e0830152612f298188612981565b9050818103610100830152612f3e8187612981565b9050818103610120830152612f5381866127e2565b9050818103610140830152612f6881856127e2565b9050818103610160830152612f7d8184612981565b90509d9c50505050505050505050505050565b600061014082019050612fa6600083018d612d60565b8181036020830152612fb8818c612981565b9050612fc7604083018b612d60565b612fd4606083018a612d60565b612fe1608083018961275e565b81810360a0830152612ff38188612981565b905081810360c08301526130078187612981565b905081810360e083015261301b8186612981565b90508181036101008301526130308185612981565b90508181036101208301526130458184612981565b90509b9a5050505050505050505050565b6000613060613071565b905061306c82826132f0565b919050565b6000604051905090565b600067ffffffffffffffff821115613096576130956133c8565b5b602082029050602081019050919050565b600067ffffffffffffffff8211156130c2576130c16133c8565b5b6130cb826133f7565b9050602081019050919050565b6000819050602082019050919050565b6000819050602082019050919050565b6000819050602082019050919050565b600081519050919050565b600081519050919050565b600081519050919050565b600081519050919050565b6000602082019050919050565b6000602082019050919050565b6000602082019050919050565b600082825260208201905092915050565b600082825260208201905092915050565b600082825260208201905092915050565b600082825260208201905092915050565b600082825260208201905092915050565b600082825260208201905092915050565b600081905092915050565b60006131d782613260565b91506131e283613260565b9250827fffffffffffffffffffffffffffffffffffffffffffffffffffffffffffffffff038211156132175761321661336a565b5b828201905092915050565b600061322d82613240565b9050919050565b60008115159050919050565b600073ffffffffffffffffffffffffffffffffffffffff82169050919050565b6000819050919050565b600061327582613260565b9050919050565b82818337600083830152505050565b60005b838110156132a957808201518184015260208101905061328e565b838111156132b8576000848401525b50505050565b600060028204905060018216806132d657607f821691505b602082108114156132ea576132e9613399565b5b50919050565b6132f9826133f7565b810181811067ffffffffffffffff82111715613318576133176133c8565b5b80604052505050565b600061332c82613260565b91507fffffffffffffffffffffffffffffffffffffffffffffffffffffffffffffffff82141561335f5761335e61336a565b5b600182019050919050565b7f4e487b7100000000000000000000000000000000000000000000000000000000600052601160045260246000fd5b7f4e487b7100000000000000000000000000000000000000000000000000000000600052602260045260246000fd5b7f4e487b7100000000000000000000000000000000000000000000000000000000600052604160045260246000fd5b6000601f19601f8301169050919050565b61341181613222565b811461341c57600080fd5b50565b61342881613260565b811461343357600080fd5b5056fea2646970667358221220392dd4d9af1d20376e8fe0f1289dd50fb1d71e7edb497562121f4034d440041464736f6c63430008040033",
  "linkReferences": {},
  "deployedLinkReferences": {}
}