{
  "_format": "hh-sol-artifact-1",
  "contractName": "Uptune",
  "sourceName": "contracts/Uptune.sol",
  "abi": [
    {
      "anonymous": false,
      "inputs": [
        {
          "indexed": false,
          "internalType": "uint256",
          "name": "id",
          "type": "uint256"
        },
        {
          "indexed": false,
          "internalType": "string",
          "name": "uuid",
          "type": "string"
        },
        {
          "indexed": false,
          "internalType": "string",
          "name": "title",
          "type": "string"
        },
        {
          "indexed": false,
          "internalType": "string",
          "name": "mainAuthor",
          "type": "string"
        },
        {
          "indexed": false,
          "internalType": "string",
          "name": "artistID",
          "type": "string"
        },
        {
          "indexed": false,
          "internalType": "string",
          "name": "authors",
          "type": "string"
        }
      ],
      "name": "AudioUploaded",
      "type": "event"
    },
    {
      "inputs": [
        {
          "internalType": "address",
          "name": "_add",
          "type": "address"
        }
      ],
      "name": "artistExists",
      "outputs": [
        {
          "internalType": "bool",
          "name": "",
          "type": "bool"
        }
      ],
      "stateMutability": "view",
      "type": "function"
    },
    {
      "inputs": [
        {
          "internalType": "address",
          "name": "",
          "type": "address"
        }
      ],
      "name": "artists",
      "outputs": [
        {
          "internalType": "address",
          "name": "id",
          "type": "address"
        },
        {
          "internalType": "string",
          "name": "artistID",
          "type": "string"
        },
        {
          "internalType": "string",
          "name": "artist",
          "type": "string"
        },
        {
          "internalType": "string",
          "name": "profilegateway",
          "type": "string"
        }
      ],
      "stateMutability": "view",
      "type": "function"
    },
    {
      "inputs": [],
      "name": "audioCount",
      "outputs": [
        {
          "internalType": "uint256",
          "name": "",
          "type": "uint256"
        }
      ],
      "stateMutability": "view",
      "type": "function"
    },
    {
      "inputs": [
        {
          "internalType": "uint256",
          "name": "",
          "type": "uint256"
        }
      ],
      "name": "audios",
      "outputs": [
        {
          "internalType": "uint256",
          "name": "id",
          "type": "uint256"
        },
        {
          "internalType": "string",
          "name": "uuid",
          "type": "string"
        },
        {
          "internalType": "uint256",
          "name": "amount",
          "type": "uint256"
        },
        {
          "internalType": "uint256",
          "name": "timestamp",
          "type": "uint256"
        },
        {
          "internalType": "address",
          "name": "wallet",
          "type": "address"
        },
        {
          "internalType": "string",
          "name": "audiogateway",
          "type": "string"
        },
        {
          "internalType": "string",
          "name": "coverartgateway",
          "type": "string"
        },
        {
          "internalType": "string",
          "name": "title",
          "type": "string"
        },
        {
          "internalType": "string",
          "name": "mainAuthor",
          "type": "string"
        },
        {
          "internalType": "string",
          "name": "artistID",
          "type": "string"
        },
        {
          "internalType": "string",
          "name": "authors",
          "type": "string"
        }
      ],
      "stateMutability": "view",
      "type": "function"
    },
    {
      "inputs": [
        {
          "internalType": "uint256",
          "name": "",
          "type": "uint256"
        }
      ],
      "name": "comments",
      "outputs": [
        {
          "internalType": "uint256",
          "name": "id",
          "type": "uint256"
        }
      ],
      "stateMutability": "view",
      "type": "function"
    },
    {
      "inputs": [
        {
          "internalType": "string",
          "name": "_artistID",
          "type": "string"
        },
        {
          "internalType": "string",
          "name": "_artist",
          "type": "string"
        },
        {
          "internalType": "string",
          "name": "_artistgateway",
          "type": "string"
        }
      ],
      "name": "createArtist",
      "outputs": [],
      "stateMutability": "nonpayable",
      "type": "function"
    },
    {
      "inputs": [],
      "name": "getAllAudio",
      "outputs": [
        {
          "components": [
            {
              "internalType": "uint256",
              "name": "id",
              "type": "uint256"
            },
            {
              "internalType": "string",
              "name": "uuid",
              "type": "string"
            },
            {
              "internalType": "uint256",
              "name": "amount",
              "type": "uint256"
            },
            {
              "internalType": "uint256",
              "name": "timestamp",
              "type": "uint256"
            },
            {
              "internalType": "address",
              "name": "wallet",
              "type": "address"
            },
            {
              "internalType": "string",
              "name": "audiogateway",
              "type": "string"
            },
            {
              "internalType": "string",
              "name": "coverartgateway",
              "type": "string"
            },
            {
              "internalType": "string",
              "name": "title",
              "type": "string"
            },
            {
              "internalType": "string",
              "name": "mainAuthor",
              "type": "string"
            },
            {
              "internalType": "string",
              "name": "artistID",
              "type": "string"
            },
            {
              "internalType": "string[]",
              "name": "tags",
              "type": "string[]"
            },
            {
              "internalType": "string[]",
              "name": "genres",
              "type": "string[]"
            },
            {
              "internalType": "string",
              "name": "authors",
              "type": "string"
            }
          ],
          "internalType": "struct Uptune.Audio[]",
          "name": "",
          "type": "tuple[]"
        }
      ],
      "stateMutability": "view",
      "type": "function"
    },
    {
      "inputs": [
        {
          "internalType": "uint256",
          "name": "_id",
          "type": "uint256"
        }
      ],
      "name": "getAllComments",
      "outputs": [
        {
          "components": [
            {
              "internalType": "uint256",
              "name": "id",
              "type": "uint256"
            },
            {
              "internalType": "string[]",
              "name": "comment",
              "type": "string[]"
            },
            {
              "internalType": "uint256[]",
              "name": "amount",
              "type": "uint256[]"
            },
            {
              "internalType": "uint256[]",
              "name": "timestamp",
              "type": "uint256[]"
            }
          ],
          "internalType": "struct Uptune.Comment",
          "name": "",
          "type": "tuple"
        }
      ],
      "stateMutability": "view",
      "type": "function"
    },
    {
      "inputs": [
        {
          "internalType": "address",
          "name": "_add",
          "type": "address"
        }
      ],
      "name": "getArtist",
      "outputs": [
        {
          "components": [
            {
              "internalType": "address",
              "name": "id",
              "type": "address"
            },
            {
              "internalType": "string[]",
              "name": "songs",
              "type": "string[]"
            },
            {
              "internalType": "string",
              "name": "artistID",
              "type": "string"
            },
            {
              "internalType": "string",
              "name": "artist",
              "type": "string"
            },
            {
              "internalType": "string",
              "name": "profilegateway",
              "type": "string"
            }
          ],
          "internalType": "struct Uptune.Artist",
          "name": "",
          "type": "tuple"
        }
      ],
      "stateMutability": "view",
      "type": "function"
    },
    {
      "inputs": [
        {
          "internalType": "string[]",
          "name": "_songs",
          "type": "string[]"
        }
      ],
      "name": "getMultipleAudio",
      "outputs": [
        {
          "components": [
            {
              "internalType": "uint256",
              "name": "id",
              "type": "uint256"
            },
            {
              "internalType": "string",
              "name": "uuid",
              "type": "string"
            },
            {
              "internalType": "uint256",
              "name": "amount",
              "type": "uint256"
            },
            {
              "internalType": "uint256",
              "name": "timestamp",
              "type": "uint256"
            },
            {
              "internalType": "address",
              "name": "wallet",
              "type": "address"
            },
            {
              "internalType": "string",
              "name": "audiogateway",
              "type": "string"
            },
            {
              "internalType": "string",
              "name": "coverartgateway",
              "type": "string"
            },
            {
              "internalType": "string",
              "name": "title",
              "type": "string"
            },
            {
              "internalType": "string",
              "name": "mainAuthor",
              "type": "string"
            },
            {
              "internalType": "string",
              "name": "artistID",
              "type": "string"
            },
            {
              "internalType": "string[]",
              "name": "tags",
              "type": "string[]"
            },
            {
              "internalType": "string[]",
              "name": "genres",
              "type": "string[]"
            },
            {
              "internalType": "string",
              "name": "authors",
              "type": "string"
            }
          ],
          "internalType": "struct Uptune.Audio[]",
          "name": "",
          "type": "tuple[]"
        }
      ],
      "stateMutability": "view",
      "type": "function"
    },
    {
      "inputs": [
        {
          "internalType": "string",
          "name": "_uuid",
          "type": "string"
        }
      ],
      "name": "getOneAudio",
      "outputs": [
        {
          "components": [
            {
              "internalType": "uint256",
              "name": "id",
              "type": "uint256"
            },
            {
              "internalType": "string",
              "name": "uuid",
              "type": "string"
            },
            {
              "internalType": "uint256",
              "name": "amount",
              "type": "uint256"
            },
            {
              "internalType": "uint256",
              "name": "timestamp",
              "type": "uint256"
            },
            {
              "internalType": "address",
              "name": "wallet",
              "type": "address"
            },
            {
              "internalType": "string",
              "name": "audiogateway",
              "type": "string"
            },
            {
              "internalType": "string",
              "name": "coverartgateway",
              "type": "string"
            },
            {
              "internalType": "string",
              "name": "title",
              "type": "string"
            },
            {
              "internalType": "string",
              "name": "mainAuthor",
              "type": "string"
            },
            {
              "internalType": "string",
              "name": "artistID",
              "type": "string"
            },
            {
              "internalType": "string[]",
              "name": "tags",
              "type": "string[]"
            },
            {
              "internalType": "string[]",
              "name": "genres",
              "type": "string[]"
            },
            {
              "internalType": "string",
              "name": "authors",
              "type": "string"
            }
          ],
          "internalType": "struct Uptune.Audio",
          "name": "",
          "type": "tuple"
        }
      ],
      "stateMutability": "view",
      "type": "function"
    },
    {
      "inputs": [
        {
          "internalType": "uint256",
          "name": "_id",
          "type": "uint256"
        },
        {
          "internalType": "uint256",
          "name": "_amount",
          "type": "uint256"
        },
        {
          "internalType": "string",
          "name": "_message",
          "type": "string"
        }
      ],
      "name": "sendTip",
      "outputs": [],
      "stateMutability": "nonpayable",
      "type": "function"
    },
    {
      "inputs": [
        {
          "internalType": "string",
          "name": "_uuid",
          "type": "string"
        },
        {
          "internalType": "string",
          "name": "_audiogateway",
          "type": "string"
        },
        {
          "internalType": "string",
          "name": "_coverartgateway",
          "type": "string"
        },
        {
          "internalType": "string",
          "name": "_mainAuthor",
          "type": "string"
        },
        {
          "internalType": "string",
          "name": "_artistID",
          "type": "string"
        },
        {
          "internalType": "string",
          "name": "_title",
          "type": "string"
        },
        {
          "internalType": "string[]",
          "name": "_tags",
          "type": "string[]"
        },
        {
          "internalType": "string[]",
          "name": "_genres",
          "type": "string[]"
        },
        {
          "internalType": "string",
          "name": "_authors",
          "type": "string"
        }
      ],
      "name": "uploadAudio",
      "outputs": [],
      "stateMutability": "nonpayable",
      "type": "function"
    },
    {
      "inputs": [
        {
          "internalType": "string",
          "name": "",
          "type": "string"
        }
      ],
      "name": "uuidToId",
      "outputs": [
        {
          "internalType": "uint256",
          "name": "",
          "type": "uint256"
        }
      ],
      "stateMutability": "view",
      "type": "function"
    }
  ],
  "bytecode": "0x60806040526000805534801561001457600080fd5b50613df9806100246000396000f3fe608060405234801561001057600080fd5b50600436106100ea5760003560e01c80636562d2cf1161008c5780639117b16b116100665780639117b16b14610286578063b949c804146102b6578063cba211fa146102e6578063f0339d8814610320576100ea565b80636562d2cf146101f65780638d178341146102265780638ebb4c1514610256576100ea565b80632cdcd8e0116100c85780632cdcd8e01461016e57806338cb3b491461018a5780633bee2495146101a857806356b808de146101d8576100ea565b806303926df9146100ef578063069dab8f1461011f57806310afc0cf14610152575b600080fd5b610109600480360381019061010491906130d3565b61033c565b6040516101169190613869565b60405180910390f35b61013960048036038101906101349190612df3565b6104fc565b604051610149949392919061378e565b60405180910390f35b61016c60048036038101906101679190612e9e565b6106e4565b005b61018860048036038101906101839190612f35565b61086f565b005b610192610c0b565b60405161019f919061388b565b60405180910390f35b6101c260048036038101906101bd9190612e1c565b610c11565b6040516101cf91906137e8565b60405180910390f35b6101e06113a0565b6040516101ed91906137e8565b60405180910390f35b610210600480360381019061020b9190612e5d565b611adc565b60405161021d919061388b565b60405180910390f35b610240600480360381019061023b9190612e5d565b611b0a565b60405161024d9190613847565b60405180910390f35b610270600480360381019061026b91906130d3565b61217a565b60405161027d919061388b565b60405180910390f35b6102a0600480360381019061029b9190612df3565b612198565b6040516102ad919061380a565b60405180910390f35b6102d060048036038101906102cb9190612df3565b6121f3565b6040516102dd9190613825565b60405180910390f35b61030060048036038101906102fb91906130d3565b612531565b6040516103179b9a9998979695949392919061392a565b60405180910390f35b61033a600480360381019061033591906130fc565b612963565b005b610344612a5f565b600260008381526020019081526020016000206040518060800160405290816000820154815260200160018201805480602002602001604051908101604052809291908181526020016000905b8282101561043d5783829060005260206000200180546103b090613c4b565b80601f01602080910402602001604051908101604052809291908181526020018280546103dc90613c4b565b80156104295780601f106103fe57610100808354040283529160200191610429565b820191906000526020600020905b81548152906001019060200180831161040c57829003601f168201915b505050505081526020019060010190610391565b5050505081526020016002820180548060200260200160405190810160405280929190818152602001828054801561049457602002820191906000526020600020905b815481526020019060010190808311610480575b50505050508152602001600382018054806020026020016040519081016040528092919081815260200182805480156104ec57602002820191906000526020600020905b8154815260200190600101908083116104d8575b5050505050815250509050919050565b60036020528060005260406000206000915090508060000160009054906101000a900473ffffffffffffffffffffffffffffffffffffffff169080600201805461054590613c4b565b80601f016020809104026020016040519081016040528092919081815260200182805461057190613c4b565b80156105be5780601f10610593576101008083540402835291602001916105be565b820191906000526020600020905b8154815290600101906020018083116105a157829003601f168201915b5050505050908060030180546105d390613c4b565b80601f01602080910402602001604051908101604052809291908181526020018280546105ff90613c4b565b801561064c5780601f106106215761010080835404028352916020019161064c565b820191906000526020600020905b81548152906001019060200180831161062f57829003601f168201915b50505050509080600401805461066190613c4b565b80601f016020809104026020016040519081016040528092919081815260200182805461068d90613c4b565b80156106da5780601f106106af576101008083540402835291602001916106da565b820191906000526020600020905b8154815290600101906020018083116106bd57829003601f168201915b5050505050905084565b33600360003373ffffffffffffffffffffffffffffffffffffffff1673ffffffffffffffffffffffffffffffffffffffff16815260200190815260200160002060000160006101000a81548173ffffffffffffffffffffffffffffffffffffffff021916908373ffffffffffffffffffffffffffffffffffffffff16021790555082600360003373ffffffffffffffffffffffffffffffffffffffff1673ffffffffffffffffffffffffffffffffffffffff16815260200190815260200160002060020190805190602001906107bb929190612a87565b5081600360003373ffffffffffffffffffffffffffffffffffffffff1673ffffffffffffffffffffffffffffffffffffffff1681526020019081526020016000206003019080519060200190610812929190612a87565b5080600360003373ffffffffffffffffffffffffffffffffffffffff1673ffffffffffffffffffffffffffffffffffffffff1681526020019081526020016000206004019080519060200190610869929190612a87565b50505050565b600088511161087d57600080fd5b600087511161088b57600080fd5b600084511161089957600080fd5b600073ffffffffffffffffffffffffffffffffffffffff163373ffffffffffffffffffffffffffffffffffffffff1614156108d357600080fd5b6000808154809291906108e590613cae565b9190505550604051806101a0016040528060005481526020018a8152602001600081526020014281526020013373ffffffffffffffffffffffffffffffffffffffff1681526020018981526020018881526020018581526020018781526020016040518060200160405280600081525081526020018481526020018381526020018281525060016000805481526020019081526020016000206000820151816000015560208201518160010190805190602001906109a4929190612a87565b50604082015181600201556060820151816003015560808201518160040160006101000a81548173ffffffffffffffffffffffffffffffffffffffff021916908373ffffffffffffffffffffffffffffffffffffffff16021790555060a0820151816005019080519060200190610a1c929190612a87565b5060c0820151816006019080519060200190610a39929190612a87565b5060e0820151816007019080519060200190610a56929190612a87565b50610100820151816008019080519060200190610a74929190612a87565b50610120820151816009019080519060200190610a92929190612a87565b5061014082015181600a019080519060200190610ab0929190612b0d565b5061016082015181600b019080519060200190610ace929190612b0d565b5061018082015181600c019080519060200190610aec929190612a87565b509050508460016000805481526020019081526020016000206009019080519060200190610b1b929190612a87565b5060005460048a604051610b2f9190613777565b908152602001604051809103902081905550600360003373ffffffffffffffffffffffffffffffffffffffff1673ffffffffffffffffffffffffffffffffffffffff16815260200190815260200160002060010189908060018154018082558091505060019003906000526020600020016000909190919091509080519060200190610bbc929190612a87565b507fdbb904fb35f9f58fded7250759713a117db5c490cec414065f277a7bba5246d76000548a86898986604051610bf8969594939291906138a6565b60405180910390a1505050505050505050565b60005481565b60606000825167ffffffffffffffff811115610c56577f4e487b7100000000000000000000000000000000000000000000000000000000600052604160045260246000fd5b604051908082528060200260200182016040528015610c8f57816020015b610c7c612b6d565b815260200190600190039081610c745790505b50905060005b835181101561139657600160006004868481518110610cdd577f4e487b7100000000000000000000000000000000000000000000000000000000600052603260045260246000fd5b6020026020010151604051610cf29190613777565b9081526020016040518091039020548152602001908152602001600020604051806101a001604052908160008201548152602001600182018054610d3590613c4b565b80601f0160208091040260200160405190810160405280929190818152602001828054610d6190613c4b565b8015610dae5780601f10610d8357610100808354040283529160200191610dae565b820191906000526020600020905b815481529060010190602001808311610d9157829003601f168201915b5050505050815260200160028201548152602001600382015481526020016004820160009054906101000a900473ffffffffffffffffffffffffffffffffffffffff1673ffffffffffffffffffffffffffffffffffffffff1673ffffffffffffffffffffffffffffffffffffffff168152602001600582018054610e3190613c4b565b80601f0160208091040260200160405190810160405280929190818152602001828054610e5d90613c4b565b8015610eaa5780601f10610e7f57610100808354040283529160200191610eaa565b820191906000526020600020905b815481529060010190602001808311610e8d57829003601f168201915b50505050508152602001600682018054610ec390613c4b565b80601f0160208091040260200160405190810160405280929190818152602001828054610eef90613c4b565b8015610f3c5780601f10610f1157610100808354040283529160200191610f3c565b820191906000526020600020905b815481529060010190602001808311610f1f57829003601f168201915b50505050508152602001600782018054610f5590613c4b565b80601f0160208091040260200160405190810160405280929190818152602001828054610f8190613c4b565b8015610fce5780601f10610fa357610100808354040283529160200191610fce565b820191906000526020600020905b815481529060010190602001808311610fb157829003601f168201915b50505050508152602001600882018054610fe790613c4b565b80601f016020809104026020016040519081016040528092919081815260200182805461101390613c4b565b80156110605780601f1061103557610100808354040283529160200191611060565b820191906000526020600020905b81548152906001019060200180831161104357829003601f168201915b5050505050815260200160098201805461107990613c4b565b80601f01602080910402602001604051908101604052809291908181526020018280546110a590613c4b565b80156110f25780601f106110c7576101008083540402835291602001916110f2565b820191906000526020600020905b8154815290600101906020018083116110d557829003601f168201915b50505050508152602001600a8201805480602002602001604051908101604052809291908181526020016000905b828210156111cc57838290600052602060002001805461113f90613c4b565b80601f016020809104026020016040519081016040528092919081815260200182805461116b90613c4b565b80156111b85780601f1061118d576101008083540402835291602001916111b8565b820191906000526020600020905b81548152906001019060200180831161119b57829003601f168201915b505050505081526020019060010190611120565b505050508152602001600b8201805480602002602001604051908101604052809291908181526020016000905b828210156112a557838290600052602060002001805461121890613c4b565b80601f016020809104026020016040519081016040528092919081815260200182805461124490613c4b565b80156112915780601f1061126657610100808354040283529160200191611291565b820191906000526020600020905b81548152906001019060200180831161127457829003601f168201915b5050505050815260200190600101906111f9565b505050508152602001600c820180546112bd90613c4b565b80601f01602080910402602001604051908101604052809291908181526020018280546112e990613c4b565b80156113365780601f1061130b57610100808354040283529160200191611336565b820191906000526020600020905b81548152906001019060200180831161131957829003601f168201915b505050505081525050828281518110611378577f4e487b7100000000000000000000000000000000000000000000000000000000600052603260045260246000fd5b6020026020010181905250808061138e90613cae565b915050610c95565b5080915050919050565b60606000805467ffffffffffffffff8111156113e5577f4e487b7100000000000000000000000000000000000000000000000000000000600052604160045260246000fd5b60405190808252806020026020018201604052801561141e57816020015b61140b612b6d565b8152602001906001900390816114035790505b50905060005b600054811015611ad4576001600060018361143f9190613b6b565b8152602001908152602001600020604051806101a00160405290816000820154815260200160018201805461147390613c4b565b80601f016020809104026020016040519081016040528092919081815260200182805461149f90613c4b565b80156114ec5780601f106114c1576101008083540402835291602001916114ec565b820191906000526020600020905b8154815290600101906020018083116114cf57829003601f168201915b5050505050815260200160028201548152602001600382015481526020016004820160009054906101000a900473ffffffffffffffffffffffffffffffffffffffff1673ffffffffffffffffffffffffffffffffffffffff1673ffffffffffffffffffffffffffffffffffffffff16815260200160058201805461156f90613c4b565b80601f016020809104026020016040519081016040528092919081815260200182805461159b90613c4b565b80156115e85780601f106115bd576101008083540402835291602001916115e8565b820191906000526020600020905b8154815290600101906020018083116115cb57829003601f168201915b5050505050815260200160068201805461160190613c4b565b80601f016020809104026020016040519081016040528092919081815260200182805461162d90613c4b565b801561167a5780601f1061164f5761010080835404028352916020019161167a565b820191906000526020600020905b81548152906001019060200180831161165d57829003601f168201915b5050505050815260200160078201805461169390613c4b565b80601f01602080910402602001604051908101604052809291908181526020018280546116bf90613c4b565b801561170c5780601f106116e15761010080835404028352916020019161170c565b820191906000526020600020905b8154815290600101906020018083116116ef57829003601f168201915b5050505050815260200160088201805461172590613c4b565b80601f016020809104026020016040519081016040528092919081815260200182805461175190613c4b565b801561179e5780601f106117735761010080835404028352916020019161179e565b820191906000526020600020905b81548152906001019060200180831161178157829003601f168201915b505050505081526020016009820180546117b790613c4b565b80601f01602080910402602001604051908101604052809291908181526020018280546117e390613c4b565b80156118305780601f1061180557610100808354040283529160200191611830565b820191906000526020600020905b81548152906001019060200180831161181357829003601f168201915b50505050508152602001600a8201805480602002602001604051908101604052809291908181526020016000905b8282101561190a57838290600052602060002001805461187d90613c4b565b80601f01602080910402602001604051908101604052809291908181526020018280546118a990613c4b565b80156118f65780601f106118cb576101008083540402835291602001916118f6565b820191906000526020600020905b8154815290600101906020018083116118d957829003601f168201915b50505050508152602001906001019061185e565b505050508152602001600b8201805480602002602001604051908101604052809291908181526020016000905b828210156119e357838290600052602060002001805461195690613c4b565b80601f016020809104026020016040519081016040528092919081815260200182805461198290613c4b565b80156119cf5780601f106119a4576101008083540402835291602001916119cf565b820191906000526020600020905b8154815290600101906020018083116119b257829003601f168201915b505050505081526020019060010190611937565b505050508152602001600c820180546119fb90613c4b565b80601f0160208091040260200160405190810160405280929190818152602001828054611a2790613c4b565b8015611a745780601f10611a4957610100808354040283529160200191611a74565b820191906000526020600020905b815481529060010190602001808311611a5757829003601f168201915b505050505081525050828281518110611ab6577f4e487b7100000000000000000000000000000000000000000000000000000000600052603260045260246000fd5b60200260200101819052508080611acc90613cae565b915050611424565b508091505090565b6004818051602081018201805184825260208301602085012081835280955050505050506000915090505481565b611b12612b6d565b60016000600484604051611b269190613777565b9081526020016040518091039020548152602001908152602001600020604051806101a001604052908160008201548152602001600182018054611b6990613c4b565b80601f0160208091040260200160405190810160405280929190818152602001828054611b9590613c4b565b8015611be25780601f10611bb757610100808354040283529160200191611be2565b820191906000526020600020905b815481529060010190602001808311611bc557829003601f168201915b5050505050815260200160028201548152602001600382015481526020016004820160009054906101000a900473ffffffffffffffffffffffffffffffffffffffff1673ffffffffffffffffffffffffffffffffffffffff1673ffffffffffffffffffffffffffffffffffffffff168152602001600582018054611c6590613c4b565b80601f0160208091040260200160405190810160405280929190818152602001828054611c9190613c4b565b8015611cde5780601f10611cb357610100808354040283529160200191611cde565b820191906000526020600020905b815481529060010190602001808311611cc157829003601f168201915b50505050508152602001600682018054611cf790613c4b565b80601f0160208091040260200160405190810160405280929190818152602001828054611d2390613c4b565b8015611d705780601f10611d4557610100808354040283529160200191611d70565b820191906000526020600020905b815481529060010190602001808311611d5357829003601f168201915b50505050508152602001600782018054611d8990613c4b565b80601f0160208091040260200160405190810160405280929190818152602001828054611db590613c4b565b8015611e025780601f10611dd757610100808354040283529160200191611e02565b820191906000526020600020905b815481529060010190602001808311611de557829003601f168201915b50505050508152602001600882018054611e1b90613c4b565b80601f0160208091040260200160405190810160405280929190818152602001828054611e4790613c4b565b8015611e945780601f10611e6957610100808354040283529160200191611e94565b820191906000526020600020905b815481529060010190602001808311611e7757829003601f168201915b50505050508152602001600982018054611ead90613c4b565b80601f0160208091040260200160405190810160405280929190818152602001828054611ed990613c4b565b8015611f265780601f10611efb57610100808354040283529160200191611f26565b820191906000526020600020905b815481529060010190602001808311611f0957829003601f168201915b50505050508152602001600a8201805480602002602001604051908101604052809291908181526020016000905b82821015612000578382906000526020600020018054611f7390613c4b565b80601f0160208091040260200160405190810160405280929190818152602001828054611f9f90613c4b565b8015611fec5780601f10611fc157610100808354040283529160200191611fec565b820191906000526020600020905b815481529060010190602001808311611fcf57829003601f168201915b505050505081526020019060010190611f54565b505050508152602001600b8201805480602002602001604051908101604052809291908181526020016000905b828210156120d957838290600052602060002001805461204c90613c4b565b80601f016020809104026020016040519081016040528092919081815260200182805461207890613c4b565b80156120c55780601f1061209a576101008083540402835291602001916120c5565b820191906000526020600020905b8154815290600101906020018083116120a857829003601f168201915b50505050508152602001906001019061202d565b505050508152602001600c820180546120f190613c4b565b80601f016020809104026020016040519081016040528092919081815260200182805461211d90613c4b565b801561216a5780601f1061213f5761010080835404028352916020019161216a565b820191906000526020600020905b81548152906001019060200180831161214d57829003601f168201915b5050505050815250509050919050565b60026020528060005260406000206000915090508060000154905081565b600080600360008473ffffffffffffffffffffffffffffffffffffffff1673ffffffffffffffffffffffffffffffffffffffff16815260200190815260200160002060020180546121e890613c4b565b905014159050919050565b6121fb612beb565b600360008373ffffffffffffffffffffffffffffffffffffffff1673ffffffffffffffffffffffffffffffffffffffff1681526020019081526020016000206040518060a00160405290816000820160009054906101000a900473ffffffffffffffffffffffffffffffffffffffff1673ffffffffffffffffffffffffffffffffffffffff1673ffffffffffffffffffffffffffffffffffffffff16815260200160018201805480602002602001604051908101604052809291908181526020016000905b8282101561236c5783829060005260206000200180546122df90613c4b565b80601f016020809104026020016040519081016040528092919081815260200182805461230b90613c4b565b80156123585780601f1061232d57610100808354040283529160200191612358565b820191906000526020600020905b81548152906001019060200180831161233b57829003601f168201915b5050505050815260200190600101906122c0565b50505050815260200160028201805461238490613c4b565b80601f01602080910402602001604051908101604052809291908181526020018280546123b090613c4b565b80156123fd5780601f106123d2576101008083540402835291602001916123fd565b820191906000526020600020905b8154815290600101906020018083116123e057829003601f168201915b5050505050815260200160038201805461241690613c4b565b80601f016020809104026020016040519081016040528092919081815260200182805461244290613c4b565b801561248f5780601f106124645761010080835404028352916020019161248f565b820191906000526020600020905b81548152906001019060200180831161247257829003601f168201915b505050505081526020016004820180546124a890613c4b565b80601f01602080910402602001604051908101604052809291908181526020018280546124d490613c4b565b80156125215780601f106124f657610100808354040283529160200191612521565b820191906000526020600020905b81548152906001019060200180831161250457829003601f168201915b5050505050815250509050919050565b600160205280600052604060002060009150905080600001549080600101805461255a90613c4b565b80601f016020809104026020016040519081016040528092919081815260200182805461258690613c4b565b80156125d35780601f106125a8576101008083540402835291602001916125d3565b820191906000526020600020905b8154815290600101906020018083116125b657829003601f168201915b5050505050908060020154908060030154908060040160009054906101000a900473ffffffffffffffffffffffffffffffffffffffff169080600501805461261a90613c4b565b80601f016020809104026020016040519081016040528092919081815260200182805461264690613c4b565b80156126935780601f1061266857610100808354040283529160200191612693565b820191906000526020600020905b81548152906001019060200180831161267657829003601f168201915b5050505050908060060180546126a890613c4b565b80601f01602080910402602001604051908101604052809291908181526020018280546126d490613c4b565b80156127215780601f106126f657610100808354040283529160200191612721565b820191906000526020600020905b81548152906001019060200180831161270457829003601f168201915b50505050509080600701805461273690613c4b565b80601f016020809104026020016040519081016040528092919081815260200182805461276290613c4b565b80156127af5780601f10612784576101008083540402835291602001916127af565b820191906000526020600020905b81548152906001019060200180831161279257829003601f168201915b5050505050908060080180546127c490613c4b565b80601f01602080910402602001604051908101604052809291908181526020018280546127f090613c4b565b801561283d5780601f106128125761010080835404028352916020019161283d565b820191906000526020600020905b81548152906001019060200180831161282057829003601f168201915b50505050509080600901805461285290613c4b565b80601f016020809104026020016040519081016040528092919081815260200182805461287e90613c4b565b80156128cb5780601f106128a0576101008083540402835291602001916128cb565b820191906000526020600020905b8154815290600101906020018083116128ae57829003601f168201915b50505050509080600c0180546128e090613c4b565b80601f016020809104026020016040519081016040528092919081815260200182805461290c90613c4b565b80156129595780601f1061292e57610100808354040283529160200191612959565b820191906000526020600020905b81548152906001019060200180831161293c57829003601f168201915b505050505090508b565b816001600085815260200190815260200160002060020160008282546129899190613b6b565b9250508190555060026000848152602001908152602001600020600101819080600181540180825580915050600190039060005260206000200160009091909190915090805190602001906129df929190612a87565b506002600084815260200190815260200160002060020182908060018154018082558091505060019003906000526020600020016000909190919091505560026000848152602001908152602001600020600301429080600181540180825580915050600190039060005260206000200160009091909190915055505050565b6040518060800160405280600081526020016060815260200160608152602001606081525090565b828054612a9390613c4b565b90600052602060002090601f016020900481019282612ab55760008555612afc565b82601f10612ace57805160ff1916838001178555612afc565b82800160010185558215612afc579182015b82811115612afb578251825591602001919060010190612ae0565b5b509050612b099190612c30565b5090565b828054828255906000526020600020908101928215612b5c579160200282015b82811115612b5b578251829080519060200190612b4b929190612a87565b5091602001919060010190612b2d565b5b509050612b699190612c4d565b5090565b604051806101a0016040528060008152602001606081526020016000815260200160008152602001600073ffffffffffffffffffffffffffffffffffffffff16815260200160608152602001606081526020016060815260200160608152602001606081526020016060815260200160608152602001606081525090565b6040518060a00160405280600073ffffffffffffffffffffffffffffffffffffffff168152602001606081526020016060815260200160608152602001606081525090565b5b80821115612c49576000816000905550600101612c31565b5090565b5b80821115612c6d5760008181612c649190612c71565b50600101612c4e565b5090565b508054612c7d90613c4b565b6000825580601f10612c8f5750612cae565b601f016020900490600052602060002090810190612cad9190612c30565b5b50565b6000612cc4612cbf84613a2b565b613a06565b90508083825260208201905082856020860282011115612ce357600080fd5b60005b85811015612d2d57813567ffffffffffffffff811115612d0557600080fd5b808601612d128982612db4565b85526020850194506020840193505050600181019050612ce6565b5050509392505050565b6000612d4a612d4584613a57565b613a06565b905082815260208101848484011115612d6257600080fd5b612d6d848285613c09565b509392505050565b600081359050612d8481613d95565b92915050565b600082601f830112612d9b57600080fd5b8135612dab848260208601612cb1565b91505092915050565b600082601f830112612dc557600080fd5b8135612dd5848260208601612d37565b91505092915050565b600081359050612ded81613dac565b92915050565b600060208284031215612e0557600080fd5b6000612e1384828501612d75565b91505092915050565b600060208284031215612e2e57600080fd5b600082013567ffffffffffffffff811115612e4857600080fd5b612e5484828501612d8a565b91505092915050565b600060208284031215612e6f57600080fd5b600082013567ffffffffffffffff811115612e8957600080fd5b612e9584828501612db4565b91505092915050565b600080600060608486031215612eb357600080fd5b600084013567ffffffffffffffff811115612ecd57600080fd5b612ed986828701612db4565b935050602084013567ffffffffffffffff811115612ef657600080fd5b612f0286828701612db4565b925050604084013567ffffffffffffffff811115612f1f57600080fd5b612f2b86828701612db4565b9150509250925092565b60008060008060008060008060006101208a8c031215612f5457600080fd5b60008a013567ffffffffffffffff811115612f6e57600080fd5b612f7a8c828d01612db4565b99505060208a013567ffffffffffffffff811115612f9757600080fd5b612fa38c828d01612db4565b98505060408a013567ffffffffffffffff811115612fc057600080fd5b612fcc8c828d01612db4565b97505060608a013567ffffffffffffffff811115612fe957600080fd5b612ff58c828d01612db4565b96505060808a013567ffffffffffffffff81111561301257600080fd5b61301e8c828d01612db4565b95505060a08a013567ffffffffffffffff81111561303b57600080fd5b6130478c828d01612db4565b94505060c08a013567ffffffffffffffff81111561306457600080fd5b6130708c828d01612d8a565b93505060e08a013567ffffffffffffffff81111561308d57600080fd5b6130998c828d01612d8a565b9250506101008a013567ffffffffffffffff8111156130b757600080fd5b6130c38c828d01612db4565b9150509295985092959850929598565b6000602082840312156130e557600080fd5b60006130f384828501612dde565b91505092915050565b60008060006060848603121561311157600080fd5b600061311f86828701612dde565b935050602061313086828701612dde565b925050604084013567ffffffffffffffff81111561314d57600080fd5b61315986828701612db4565b9150509250925092565b600061316f8383613318565b905092915050565b60006131838383613446565b905092915050565b60006131978383613759565b60208301905092915050565b6131ac81613bc1565b82525050565b6131bb81613bc1565b82525050565b60006131cc82613ab8565b6131d68185613b0b565b9350836020820285016131e885613a88565b8060005b8581101561322457848403895281516132058582613163565b945061321083613ae4565b925060208a019950506001810190506131ec565b50829750879550505050505092915050565b600061324182613ac3565b61324b8185613b1c565b93508360208202850161325d85613a98565b8060005b85811015613299578484038952815161327a8582613177565b945061328583613af1565b925060208a01995050600181019050613261565b50829750879550505050505092915050565b60006132b682613ace565b6132c08185613b2d565b93506132cb83613aa8565b8060005b838110156132fc5781516132e3888261318b565b97506132ee83613afe565b9250506001810190506132cf565b5085935050505092915050565b61331281613bd3565b82525050565b600061332382613ad9565b61332d8185613b3e565b935061333d818560208601613c18565b61334681613d84565b840191505092915050565b600061335c82613ad9565b6133668185613b4f565b9350613376818560208601613c18565b61337f81613d84565b840191505092915050565b600061339582613ad9565b61339f8185613b60565b93506133af818560208601613c18565b80840191505092915050565b600060a0830160008301516133d360008601826131a3565b50602083015184820360208601526133eb82826131c1565b915050604083015184820360408601526134058282613318565b9150506060830151848203606086015261341f8282613318565b915050608083015184820360808601526134398282613318565b9150508091505092915050565b60006101a08301600083015161345f6000860182613759565b50602083015184820360208601526134778282613318565b915050604083015161348c6040860182613759565b50606083015161349f6060860182613759565b5060808301516134b260808601826131a3565b5060a083015184820360a08601526134ca8282613318565b91505060c083015184820360c08601526134e48282613318565b91505060e083015184820360e08601526134fe8282613318565b91505061010083015184820361010086015261351a8282613318565b9150506101208301518482036101208601526135368282613318565b91505061014083015184820361014086015261355282826131c1565b91505061016083015184820361016086015261356e82826131c1565b91505061018083015184820361018086015261358a8282613318565b9150508091505092915050565b60006101a0830160008301516135b06000860182613759565b50602083015184820360208601526135c88282613318565b91505060408301516135dd6040860182613759565b5060608301516135f06060860182613759565b50608083015161360360808601826131a3565b5060a083015184820360a086015261361b8282613318565b91505060c083015184820360c08601526136358282613318565b91505060e083015184820360e086015261364f8282613318565b91505061010083015184820361010086015261366b8282613318565b9150506101208301518482036101208601526136878282613318565b9150506101408301518482036101408601526136a382826131c1565b9150506101608301518482036101608601526136bf82826131c1565b9150506101808301518482036101808601526136db8282613318565b9150508091505092915050565b60006080830160008301516137006000860182613759565b506020830151848203602086015261371882826131c1565b9150506040830151848203604086015261373282826132ab565b9150506060830151848203606086015261374c82826132ab565b9150508091505092915050565b61376281613bff565b82525050565b61377181613bff565b82525050565b6000613783828461338a565b915081905092915050565b60006080820190506137a360008301876131b2565b81810360208301526137b58186613351565b905081810360408301526137c98185613351565b905081810360608301526137dd8184613351565b905095945050505050565b600060208201905081810360008301526138028184613236565b905092915050565b600060208201905061381f6000830184613309565b92915050565b6000602082019050818103600083015261383f81846133bb565b905092915050565b600060208201905081810360008301526138618184613597565b905092915050565b6000602082019050818103600083015261388381846136e8565b905092915050565b60006020820190506138a06000830184613768565b92915050565b600060c0820190506138bb6000830189613768565b81810360208301526138cd8188613351565b905081810360408301526138e18187613351565b905081810360608301526138f58186613351565b905081810360808301526139098185613351565b905081810360a083015261391d8184613351565b9050979650505050505050565b600061016082019050613940600083018e613768565b8181036020830152613952818d613351565b9050613961604083018c613768565b61396e606083018b613768565b61397b608083018a6131b2565b81810360a083015261398d8189613351565b905081810360c08301526139a18188613351565b905081810360e08301526139b58187613351565b90508181036101008301526139ca8186613351565b90508181036101208301526139df8185613351565b90508181036101408301526139f48184613351565b90509c9b505050505050505050505050565b6000613a10613a21565b9050613a1c8282613c7d565b919050565b6000604051905090565b600067ffffffffffffffff821115613a4657613a45613d55565b5b602082029050602081019050919050565b600067ffffffffffffffff821115613a7257613a71613d55565b5b613a7b82613d84565b9050602081019050919050565b6000819050602082019050919050565b6000819050602082019050919050565b6000819050602082019050919050565b600081519050919050565b600081519050919050565b600081519050919050565b600081519050919050565b6000602082019050919050565b6000602082019050919050565b6000602082019050919050565b600082825260208201905092915050565b600082825260208201905092915050565b600082825260208201905092915050565b600082825260208201905092915050565b600082825260208201905092915050565b600081905092915050565b6000613b7682613bff565b9150613b8183613bff565b9250827fffffffffffffffffffffffffffffffffffffffffffffffffffffffffffffffff03821115613bb657613bb5613cf7565b5b828201905092915050565b6000613bcc82613bdf565b9050919050565b60008115159050919050565b600073ffffffffffffffffffffffffffffffffffffffff82169050919050565b6000819050919050565b82818337600083830152505050565b60005b83811015613c36578082015181840152602081019050613c1b565b83811115613c45576000848401525b50505050565b60006002820490506001821680613c6357607f821691505b60208210811415613c7757613c76613d26565b5b50919050565b613c8682613d84565b810181811067ffffffffffffffff82111715613ca557613ca4613d55565b5b80604052505050565b6000613cb982613bff565b91507fffffffffffffffffffffffffffffffffffffffffffffffffffffffffffffffff821415613cec57613ceb613cf7565b5b600182019050919050565b7f4e487b7100000000000000000000000000000000000000000000000000000000600052601160045260246000fd5b7f4e487b7100000000000000000000000000000000000000000000000000000000600052602260045260246000fd5b7f4e487b7100000000000000000000000000000000000000000000000000000000600052604160045260246000fd5b6000601f19601f8301169050919050565b613d9e81613bc1565b8114613da957600080fd5b50565b613db581613bff565b8114613dc057600080fd5b5056fea2646970667358221220140c5d45876c7c7a1ec8d6a2faa2a26cec38ccdb466f8808474241b188ae110c64736f6c63430008040033",
  "linkReferences": {},
  "deployedLinkReferences": {}
}